{
	"Treasury.sol": {
		"Treasury": {
			"abi": [
				{
					"inputs": [],
					"stateMutability": "payable",
					"type": "constructor"
				},
				{
					"anonymous": false,
					"inputs": [
						{
							"indexed": true,
							"internalType": "address",
							"name": "sender",
							"type": "address"
						},
						{
							"indexed": false,
							"internalType": "uint256",
							"name": "amount",
							"type": "uint256"
						},
						{
							"indexed": false,
							"internalType": "uint256",
							"name": "balance",
							"type": "uint256"
						}
					],
					"name": "Deposit",
					"type": "event"
				},
				{
					"inputs": [],
					"name": "balance",
					"outputs": [
						{
							"internalType": "uint256",
							"name": "",
							"type": "uint256"
						}
					],
					"stateMutability": "view",
					"type": "function"
				},
				{
					"inputs": [],
					"name": "withdraw",
					"outputs": [],
					"stateMutability": "payable",
					"type": "function"
				},
				{
					"stateMutability": "payable",
					"type": "receive"
				}
			],
			"devdoc": {
				"kind": "dev",
				"methods": {},
				"version": 1
			},
			"evm": {
				"assembly": "    /* \"Treasury.sol\":61:584  contract Treasury {... */\n  mstore(0x40, 0x80)\n    /* \"Treasury.sol\":232:241  msg.value */\n  callvalue\n    /* \"Treasury.sol\":222:229  balance */\n  0x00\n    /* \"Treasury.sol\":222:241  balance = msg.value */\n  dup2\n  swap1\n  sstore\n  pop\n    /* \"Treasury.sol\":61:584  contract Treasury {... */\n  dataSize(sub_0)\n  dup1\n  dataOffset(sub_0)\n  0x00\n  codecopy\n  0x00\n  return\nstop\n\nsub_0: assembly {\n        /* \"Treasury.sol\":61:584  contract Treasury {... */\n      mstore(0x40, 0x80)\n      jumpi(tag_1, lt(calldatasize, 0x04))\n      shr(0xe0, calldataload(0x00))\n      dup1\n      0x3ccfd60b\n      eq\n      tag_3\n      jumpi\n      dup1\n      0xb69ef8a8\n      eq\n      tag_4\n      jumpi\n      jump(tag_2)\n    tag_1:\n      jumpi(tag_2, calldatasize)\n        /* \"Treasury.sol\":305:314  msg.value */\n      callvalue\n        /* \"Treasury.sol\":294:301  balance */\n      0x00\n      dup1\n        /* \"Treasury.sol\":294:314  balance += msg.value */\n      dup3\n      dup3\n      sload\n      tag_7\n      swap2\n      swap1\n      tag_8\n      jump\t// in\n    tag_7:\n      swap3\n      pop\n      pop\n      dup2\n      swap1\n      sstore\n      pop\n        /* \"Treasury.sol\":338:348  msg.sender */\n      caller\n        /* \"Treasury.sol\":330:369  Deposit(msg.sender, msg.value, balance) */\n      0xffffffffffffffffffffffffffffffffffffffff\n      and\n      0x90890809c654f11d6e72a28fa60149770a0d11ec6c92319d6ceb2bb0a4ea1a15\n        /* \"Treasury.sol\":350:359  msg.value */\n      callvalue\n        /* \"Treasury.sol\":361:368  balance */\n      sload(0x00)\n        /* \"Treasury.sol\":330:369  Deposit(msg.sender, msg.value, balance) */\n      mload(0x40)\n      tag_9\n      swap3\n      swap2\n      swap1\n      tag_10\n      jump\t// in\n    tag_9:\n      mload(0x40)\n      dup1\n      swap2\n      sub\n      swap1\n      log2\n        /* \"Treasury.sol\":61:584  contract Treasury {... */\n      stop\n    tag_2:\n      0x00\n      dup1\n      revert\n        /* \"Treasury.sol\":385:579  function withdraw() payable external {... */\n    tag_3:\n      tag_11\n      tag_12\n      jump\t// in\n    tag_11:\n      stop\n        /* \"Treasury.sol\":161:180  uint public balance */\n    tag_4:\n      callvalue\n      dup1\n      iszero\n      tag_13\n      jumpi\n      0x00\n      dup1\n      revert\n    tag_13:\n      pop\n      tag_14\n      tag_15\n      jump\t// in\n    tag_14:\n      mload(0x40)\n      tag_16\n      swap2\n      swap1\n      tag_17\n      jump\t// in\n    tag_16:\n      mload(0x40)\n      dup1\n      swap2\n      sub\n      swap1\n      return\n        /* \"Treasury.sol\":385:579  function withdraw() payable external {... */\n    tag_12:\n        /* \"Treasury.sol\":433:444  uint amount */\n      0x00\n        /* \"Treasury.sol\":447:454  balance */\n      dup1\n      sload\n        /* \"Treasury.sol\":433:454  uint amount = balance */\n      swap1\n      pop\n        /* \"Treasury.sol\":466:478  bool success */\n      0x00\n        /* \"Treasury.sol\":492:501  tx.origin */\n      origin\n        /* \"Treasury.sol\":484:507  payable(tx.origin).call */\n      0xffffffffffffffffffffffffffffffffffffffff\n      and\n        /* \"Treasury.sol\":515:521  amount */\n      dup3\n        /* \"Treasury.sol\":484:526  payable(tx.origin).call{value: amount}(\"\") */\n      mload(0x40)\n      tag_19\n      swap1\n      tag_20\n      jump\t// in\n    tag_19:\n      0x00\n      mload(0x40)\n      dup1\n      dup4\n      sub\n      dup2\n      dup6\n      dup8\n      gas\n      call\n      swap3\n      pop\n      pop\n      pop\n      returndatasize\n      dup1\n      0x00\n      dup2\n      eq\n      tag_23\n      jumpi\n      mload(0x40)\n      swap2\n      pop\n      and(add(returndatasize, 0x3f), not(0x1f))\n      dup3\n      add\n      0x40\n      mstore\n      returndatasize\n      dup3\n      mstore\n      returndatasize\n      0x00\n      0x20\n      dup5\n      add\n      returndatacopy\n      jump(tag_22)\n    tag_23:\n      0x60\n      swap2\n      pop\n    tag_22:\n      pop\n        /* \"Treasury.sol\":465:526  (bool success, ) = payable(tx.origin).call{value: amount}(\"\") */\n      pop\n      swap1\n      pop\n        /* \"Treasury.sol\":545:552  success */\n      dup1\n        /* \"Treasury.sol\":537:571  require(success, \"Transfer Error\") */\n      tag_24\n      jumpi\n      mload(0x40)\n      0x08c379a000000000000000000000000000000000000000000000000000000000\n      dup2\n      mstore\n      0x04\n      add\n      tag_25\n      swap1\n      tag_26\n      jump\t// in\n    tag_25:\n      mload(0x40)\n      dup1\n      swap2\n      sub\n      swap1\n      revert\n    tag_24:\n        /* \"Treasury.sol\":422:579  {... */\n      pop\n      pop\n        /* \"Treasury.sol\":385:579  function withdraw() payable external {... */\n      jump\t// out\n        /* \"Treasury.sol\":161:180  uint public balance */\n    tag_15:\n      sload(0x00)\n      dup2\n      jump\t// out\n        /* \"#utility.yul\":7:84   */\n    tag_27:\n        /* \"#utility.yul\":44:51   */\n      0x00\n        /* \"#utility.yul\":73:78   */\n      dup2\n        /* \"#utility.yul\":62:78   */\n      swap1\n      pop\n        /* \"#utility.yul\":7:84   */\n      swap2\n      swap1\n      pop\n      jump\t// out\n        /* \"#utility.yul\":90:270   */\n    tag_28:\n        /* \"#utility.yul\":138:215   */\n      0x4e487b7100000000000000000000000000000000000000000000000000000000\n        /* \"#utility.yul\":135:136   */\n      0x00\n        /* \"#utility.yul\":128:216   */\n      mstore\n        /* \"#utility.yul\":235:239   */\n      0x11\n        /* \"#utility.yul\":232:233   */\n      0x04\n        /* \"#utility.yul\":225:240   */\n      mstore\n        /* \"#utility.yul\":259:263   */\n      0x24\n        /* \"#utility.yul\":256:257   */\n      0x00\n        /* \"#utility.yul\":249:264   */\n      revert\n        /* \"#utility.yul\":276:581   */\n    tag_8:\n        /* \"#utility.yul\":316:319   */\n      0x00\n        /* \"#utility.yul\":335:355   */\n      tag_40\n        /* \"#utility.yul\":353:354   */\n      dup3\n        /* \"#utility.yul\":335:355   */\n      tag_27\n      jump\t// in\n    tag_40:\n        /* \"#utility.yul\":330:355   */\n      swap2\n      pop\n        /* \"#utility.yul\":369:389   */\n      tag_41\n        /* \"#utility.yul\":387:388   */\n      dup4\n        /* \"#utility.yul\":369:389   */\n      tag_27\n      jump\t// in\n    tag_41:\n        /* \"#utility.yul\":364:389   */\n      swap3\n      pop\n        /* \"#utility.yul\":523:524   */\n      dup3\n        /* \"#utility.yul\":455:521   */\n      0xffffffffffffffffffffffffffffffffffffffffffffffffffffffffffffffff\n        /* \"#utility.yul\":451:525   */\n      sub\n        /* \"#utility.yul\":448:449   */\n      dup3\n        /* \"#utility.yul\":445:526   */\n      gt\n        /* \"#utility.yul\":442:549   */\n      iszero\n      tag_42\n      jumpi\n        /* \"#utility.yul\":529:547   */\n      tag_43\n      tag_28\n      jump\t// in\n    tag_43:\n        /* \"#utility.yul\":442:549   */\n    tag_42:\n        /* \"#utility.yul\":573:574   */\n      dup3\n        /* \"#utility.yul\":570:571   */\n      dup3\n        /* \"#utility.yul\":566:575   */\n      add\n        /* \"#utility.yul\":559:575   */\n      swap1\n      pop\n        /* \"#utility.yul\":276:581   */\n      swap3\n      swap2\n      pop\n      pop\n      jump\t// out\n        /* \"#utility.yul\":587:705   */\n    tag_29:\n        /* \"#utility.yul\":674:698   */\n      tag_45\n        /* \"#utility.yul\":692:697   */\n      dup2\n        /* \"#utility.yul\":674:698   */\n      tag_27\n      jump\t// in\n    tag_45:\n        /* \"#utility.yul\":669:672   */\n      dup3\n        /* \"#utility.yul\":662:699   */\n      mstore\n        /* \"#utility.yul\":587:705   */\n      pop\n      pop\n      jump\t// out\n        /* \"#utility.yul\":711:1043   */\n    tag_10:\n        /* \"#utility.yul\":832:836   */\n      0x00\n        /* \"#utility.yul\":870:872   */\n      0x40\n        /* \"#utility.yul\":859:868   */\n      dup3\n        /* \"#utility.yul\":855:873   */\n      add\n        /* \"#utility.yul\":847:873   */\n      swap1\n      pop\n        /* \"#utility.yul\":883:954   */\n      tag_47\n        /* \"#utility.yul\":951:952   */\n      0x00\n        /* \"#utility.yul\":940:949   */\n      dup4\n        /* \"#utility.yul\":936:953   */\n      add\n        /* \"#utility.yul\":927:933   */\n      dup6\n        /* \"#utility.yul\":883:954   */\n      tag_29\n      jump\t// in\n    tag_47:\n        /* \"#utility.yul\":964:1036   */\n      tag_48\n        /* \"#utility.yul\":1032:1034   */\n      0x20\n        /* \"#utility.yul\":1021:1030   */\n      dup4\n        /* \"#utility.yul\":1017:1035   */\n      add\n        /* \"#utility.yul\":1008:1014   */\n      dup5\n        /* \"#utility.yul\":964:1036   */\n      tag_29\n      jump\t// in\n    tag_48:\n        /* \"#utility.yul\":711:1043   */\n      swap4\n      swap3\n      pop\n      pop\n      pop\n      jump\t// out\n        /* \"#utility.yul\":1049:1271   */\n    tag_17:\n        /* \"#utility.yul\":1142:1146   */\n      0x00\n        /* \"#utility.yul\":1180:1182   */\n      0x20\n        /* \"#utility.yul\":1169:1178   */\n      dup3\n        /* \"#utility.yul\":1165:1183   */\n      add\n        /* \"#utility.yul\":1157:1183   */\n      swap1\n      pop\n        /* \"#utility.yul\":1193:1264   */\n      tag_50\n        /* \"#utility.yul\":1261:1262   */\n      0x00\n        /* \"#utility.yul\":1250:1259   */\n      dup4\n        /* \"#utility.yul\":1246:1263   */\n      add\n        /* \"#utility.yul\":1237:1243   */\n      dup5\n        /* \"#utility.yul\":1193:1264   */\n      tag_29\n      jump\t// in\n    tag_50:\n        /* \"#utility.yul\":1049:1271   */\n      swap3\n      swap2\n      pop\n      pop\n      jump\t// out\n        /* \"#utility.yul\":1277:1424   */\n    tag_30:\n        /* \"#utility.yul\":1378:1389   */\n      0x00\n        /* \"#utility.yul\":1415:1418   */\n      dup2\n        /* \"#utility.yul\":1400:1418   */\n      swap1\n      pop\n        /* \"#utility.yul\":1277:1424   */\n      swap3\n      swap2\n      pop\n      pop\n      jump\t// out\n        /* \"#utility.yul\":1430:1544   */\n    tag_31:\n      pop\n      jump\t// out\n        /* \"#utility.yul\":1550:1948   */\n    tag_32:\n        /* \"#utility.yul\":1709:1712   */\n      0x00\n        /* \"#utility.yul\":1730:1813   */\n      tag_54\n        /* \"#utility.yul\":1811:1812   */\n      0x00\n        /* \"#utility.yul\":1806:1809   */\n      dup4\n        /* \"#utility.yul\":1730:1813   */\n      tag_30\n      jump\t// in\n    tag_54:\n        /* \"#utility.yul\":1723:1813   */\n      swap2\n      pop\n        /* \"#utility.yul\":1822:1915   */\n      tag_55\n        /* \"#utility.yul\":1911:1914   */\n      dup3\n        /* \"#utility.yul\":1822:1915   */\n      tag_31\n      jump\t// in\n    tag_55:\n        /* \"#utility.yul\":1940:1941   */\n      0x00\n        /* \"#utility.yul\":1935:1938   */\n      dup3\n        /* \"#utility.yul\":1931:1942   */\n      add\n        /* \"#utility.yul\":1924:1942   */\n      swap1\n      pop\n        /* \"#utility.yul\":1550:1948   */\n      swap2\n      swap1\n      pop\n      jump\t// out\n        /* \"#utility.yul\":1954:2333   */\n    tag_20:\n        /* \"#utility.yul\":2138:2141   */\n      0x00\n        /* \"#utility.yul\":2160:2307   */\n      tag_57\n        /* \"#utility.yul\":2303:2306   */\n      dup3\n        /* \"#utility.yul\":2160:2307   */\n      tag_32\n      jump\t// in\n    tag_57:\n        /* \"#utility.yul\":2153:2307   */\n      swap2\n      pop\n        /* \"#utility.yul\":2324:2327   */\n      dup2\n        /* \"#utility.yul\":2317:2327   */\n      swap1\n      pop\n        /* \"#utility.yul\":1954:2333   */\n      swap2\n      swap1\n      pop\n      jump\t// out\n        /* \"#utility.yul\":2339:2508   */\n    tag_33:\n        /* \"#utility.yul\":2423:2434   */\n      0x00\n        /* \"#utility.yul\":2457:2463   */\n      dup3\n        /* \"#utility.yul\":2452:2455   */\n      dup3\n        /* \"#utility.yul\":2445:2464   */\n      mstore\n        /* \"#utility.yul\":2497:2501   */\n      0x20\n        /* \"#utility.yul\":2492:2495   */\n      dup3\n        /* \"#utility.yul\":2488:2502   */\n      add\n        /* \"#utility.yul\":2473:2502   */\n      swap1\n      pop\n        /* \"#utility.yul\":2339:2508   */\n      swap3\n      swap2\n      pop\n      pop\n      jump\t// out\n        /* \"#utility.yul\":2514:2678   */\n    tag_34:\n        /* \"#utility.yul\":2654:2670   */\n      0x5472616e73666572204572726f72000000000000000000000000000000000000\n        /* \"#utility.yul\":2650:2651   */\n      0x00\n        /* \"#utility.yul\":2642:2648   */\n      dup3\n        /* \"#utility.yul\":2638:2652   */\n      add\n        /* \"#utility.yul\":2631:2671   */\n      mstore\n        /* \"#utility.yul\":2514:2678   */\n      pop\n      jump\t// out\n        /* \"#utility.yul\":2684:3050   */\n    tag_35:\n        /* \"#utility.yul\":2826:2829   */\n      0x00\n        /* \"#utility.yul\":2847:2914   */\n      tag_61\n        /* \"#utility.yul\":2911:2913   */\n      0x0e\n        /* \"#utility.yul\":2906:2909   */\n      dup4\n        /* \"#utility.yul\":2847:2914   */\n      tag_33\n      jump\t// in\n    tag_61:\n        /* \"#utility.yul\":2840:2914   */\n      swap2\n      pop\n        /* \"#utility.yul\":2923:3016   */\n      tag_62\n        /* \"#utility.yul\":3012:3015   */\n      dup3\n        /* \"#utility.yul\":2923:3016   */\n      tag_34\n      jump\t// in\n    tag_62:\n        /* \"#utility.yul\":3041:3043   */\n      0x20\n        /* \"#utility.yul\":3036:3039   */\n      dup3\n        /* \"#utility.yul\":3032:3044   */\n      add\n        /* \"#utility.yul\":3025:3044   */\n      swap1\n      pop\n        /* \"#utility.yul\":2684:3050   */\n      swap2\n      swap1\n      pop\n      jump\t// out\n        /* \"#utility.yul\":3056:3475   */\n    tag_26:\n        /* \"#utility.yul\":3222:3226   */\n      0x00\n        /* \"#utility.yul\":3260:3262   */\n      0x20\n        /* \"#utility.yul\":3249:3258   */\n      dup3\n        /* \"#utility.yul\":3245:3263   */\n      add\n        /* \"#utility.yul\":3237:3263   */\n      swap1\n      pop\n        /* \"#utility.yul\":3309:3318   */\n      dup2\n        /* \"#utility.yul\":3303:3307   */\n      dup2\n        /* \"#utility.yul\":3299:3319   */\n      sub\n        /* \"#utility.yul\":3295:3296   */\n      0x00\n        /* \"#utility.yul\":3284:3293   */\n      dup4\n        /* \"#utility.yul\":3280:3297   */\n      add\n        /* \"#utility.yul\":3273:3320   */\n      mstore\n        /* \"#utility.yul\":3337:3468   */\n      tag_64\n        /* \"#utility.yul\":3463:3467   */\n      dup2\n        /* \"#utility.yul\":3337:3468   */\n      tag_35\n      jump\t// in\n    tag_64:\n        /* \"#utility.yul\":3329:3468   */\n      swap1\n      pop\n        /* \"#utility.yul\":3056:3475   */\n      swap2\n      swap1\n      pop\n      jump\t// out\n\n    auxdata: 0xa26469706673582212206e15afd799dba4d6b60d787b84e4c166021b85d19e358cc6bf2010529f21276164736f6c634300080d0033\n}\n",
				"bytecode": {
					"linkReferences": {},
					"object": "60806040523460008190555061036f8061001a6000396000f3fe60806040526004361061002d5760003560e01c80633ccfd60b146100a3578063b69ef8a8146100ad5761009e565b3661009e573460008082825461004391906101cd565b925050819055503373ffffffffffffffffffffffffffffffffffffffff167f90890809c654f11d6e72a28fa60149770a0d11ec6c92319d6ceb2bb0a4ea1a1534600054604051610094929190610232565b60405180910390a2005b600080fd5b6100ab6100d8565b005b3480156100b957600080fd5b506100c261018e565b6040516100cf919061025b565b60405180910390f35b60008054905060003273ffffffffffffffffffffffffffffffffffffffff1682604051610104906102a7565b60006040518083038185875af1925050503d8060008114610141576040519150601f19603f3d011682016040523d82523d6000602084013e610146565b606091505b505090508061018a576040517f08c379a000000000000000000000000000000000000000000000000000000000815260040161018190610319565b60405180910390fd5b5050565b60005481565b6000819050919050565b7f4e487b7100000000000000000000000000000000000000000000000000000000600052601160045260246000fd5b60006101d882610194565b91506101e383610194565b9250827fffffffffffffffffffffffffffffffffffffffffffffffffffffffffffffffff038211156102185761021761019e565b5b828201905092915050565b61022c81610194565b82525050565b60006040820190506102476000830185610223565b6102546020830184610223565b9392505050565b60006020820190506102706000830184610223565b92915050565b600081905092915050565b50565b6000610291600083610276565b915061029c82610281565b600082019050919050565b60006102b282610284565b9150819050919050565b600082825260208201905092915050565b7f5472616e73666572204572726f72000000000000000000000000000000000000600082015250565b6000610303600e836102bc565b915061030e826102cd565b602082019050919050565b60006020820190508181036000830152610332816102f6565b905091905056fea26469706673582212206e15afd799dba4d6b60d787b84e4c166021b85d19e358cc6bf2010529f21276164736f6c634300080d0033",
					"opcodes": "PUSH1 0x80 PUSH1 0x40 MSTORE CALLVALUE PUSH1 0x0 DUP2 SWAP1 SSTORE POP PUSH2 0x36F DUP1 PUSH2 0x1A PUSH1 0x0 CODECOPY PUSH1 0x0 RETURN INVALID PUSH1 0x80 PUSH1 0x40 MSTORE PUSH1 0x4 CALLDATASIZE LT PUSH2 0x2D JUMPI PUSH1 0x0 CALLDATALOAD PUSH1 0xE0 SHR DUP1 PUSH4 0x3CCFD60B EQ PUSH2 0xA3 JUMPI DUP1 PUSH4 0xB69EF8A8 EQ PUSH2 0xAD JUMPI PUSH2 0x9E JUMP JUMPDEST CALLDATASIZE PUSH2 0x9E JUMPI CALLVALUE PUSH1 0x0 DUP1 DUP3 DUP3 SLOAD PUSH2 0x43 SWAP2 SWAP1 PUSH2 0x1CD JUMP JUMPDEST SWAP3 POP POP DUP2 SWAP1 SSTORE POP CALLER PUSH20 0xFFFFFFFFFFFFFFFFFFFFFFFFFFFFFFFFFFFFFFFF AND PUSH32 0x90890809C654F11D6E72A28FA60149770A0D11EC6C92319D6CEB2BB0A4EA1A15 CALLVALUE PUSH1 0x0 SLOAD PUSH1 0x40 MLOAD PUSH2 0x94 SWAP3 SWAP2 SWAP1 PUSH2 0x232 JUMP JUMPDEST PUSH1 0x40 MLOAD DUP1 SWAP2 SUB SWAP1 LOG2 STOP JUMPDEST PUSH1 0x0 DUP1 REVERT JUMPDEST PUSH2 0xAB PUSH2 0xD8 JUMP JUMPDEST STOP JUMPDEST CALLVALUE DUP1 ISZERO PUSH2 0xB9 JUMPI PUSH1 0x0 DUP1 REVERT JUMPDEST POP PUSH2 0xC2 PUSH2 0x18E JUMP JUMPDEST PUSH1 0x40 MLOAD PUSH2 0xCF SWAP2 SWAP1 PUSH2 0x25B JUMP JUMPDEST PUSH1 0x40 MLOAD DUP1 SWAP2 SUB SWAP1 RETURN JUMPDEST PUSH1 0x0 DUP1 SLOAD SWAP1 POP PUSH1 0x0 ORIGIN PUSH20 0xFFFFFFFFFFFFFFFFFFFFFFFFFFFFFFFFFFFFFFFF AND DUP3 PUSH1 0x40 MLOAD PUSH2 0x104 SWAP1 PUSH2 0x2A7 JUMP JUMPDEST PUSH1 0x0 PUSH1 0x40 MLOAD DUP1 DUP4 SUB DUP2 DUP6 DUP8 GAS CALL SWAP3 POP POP POP RETURNDATASIZE DUP1 PUSH1 0x0 DUP2 EQ PUSH2 0x141 JUMPI PUSH1 0x40 MLOAD SWAP2 POP PUSH1 0x1F NOT PUSH1 0x3F RETURNDATASIZE ADD AND DUP3 ADD PUSH1 0x40 MSTORE RETURNDATASIZE DUP3 MSTORE RETURNDATASIZE PUSH1 0x0 PUSH1 0x20 DUP5 ADD RETURNDATACOPY PUSH2 0x146 JUMP JUMPDEST PUSH1 0x60 SWAP2 POP JUMPDEST POP POP SWAP1 POP DUP1 PUSH2 0x18A JUMPI PUSH1 0x40 MLOAD PUSH32 0x8C379A000000000000000000000000000000000000000000000000000000000 DUP2 MSTORE PUSH1 0x4 ADD PUSH2 0x181 SWAP1 PUSH2 0x319 JUMP JUMPDEST PUSH1 0x40 MLOAD DUP1 SWAP2 SUB SWAP1 REVERT JUMPDEST POP POP JUMP JUMPDEST PUSH1 0x0 SLOAD DUP2 JUMP JUMPDEST PUSH1 0x0 DUP2 SWAP1 POP SWAP2 SWAP1 POP JUMP JUMPDEST PUSH32 0x4E487B7100000000000000000000000000000000000000000000000000000000 PUSH1 0x0 MSTORE PUSH1 0x11 PUSH1 0x4 MSTORE PUSH1 0x24 PUSH1 0x0 REVERT JUMPDEST PUSH1 0x0 PUSH2 0x1D8 DUP3 PUSH2 0x194 JUMP JUMPDEST SWAP2 POP PUSH2 0x1E3 DUP4 PUSH2 0x194 JUMP JUMPDEST SWAP3 POP DUP3 PUSH32 0xFFFFFFFFFFFFFFFFFFFFFFFFFFFFFFFFFFFFFFFFFFFFFFFFFFFFFFFFFFFFFFFF SUB DUP3 GT ISZERO PUSH2 0x218 JUMPI PUSH2 0x217 PUSH2 0x19E JUMP JUMPDEST JUMPDEST DUP3 DUP3 ADD SWAP1 POP SWAP3 SWAP2 POP POP JUMP JUMPDEST PUSH2 0x22C DUP2 PUSH2 0x194 JUMP JUMPDEST DUP3 MSTORE POP POP JUMP JUMPDEST PUSH1 0x0 PUSH1 0x40 DUP3 ADD SWAP1 POP PUSH2 0x247 PUSH1 0x0 DUP4 ADD DUP6 PUSH2 0x223 JUMP JUMPDEST PUSH2 0x254 PUSH1 0x20 DUP4 ADD DUP5 PUSH2 0x223 JUMP JUMPDEST SWAP4 SWAP3 POP POP POP JUMP JUMPDEST PUSH1 0x0 PUSH1 0x20 DUP3 ADD SWAP1 POP PUSH2 0x270 PUSH1 0x0 DUP4 ADD DUP5 PUSH2 0x223 JUMP JUMPDEST SWAP3 SWAP2 POP POP JUMP JUMPDEST PUSH1 0x0 DUP2 SWAP1 POP SWAP3 SWAP2 POP POP JUMP JUMPDEST POP JUMP JUMPDEST PUSH1 0x0 PUSH2 0x291 PUSH1 0x0 DUP4 PUSH2 0x276 JUMP JUMPDEST SWAP2 POP PUSH2 0x29C DUP3 PUSH2 0x281 JUMP JUMPDEST PUSH1 0x0 DUP3 ADD SWAP1 POP SWAP2 SWAP1 POP JUMP JUMPDEST PUSH1 0x0 PUSH2 0x2B2 DUP3 PUSH2 0x284 JUMP JUMPDEST SWAP2 POP DUP2 SWAP1 POP SWAP2 SWAP1 POP JUMP JUMPDEST PUSH1 0x0 DUP3 DUP3 MSTORE PUSH1 0x20 DUP3 ADD SWAP1 POP SWAP3 SWAP2 POP POP JUMP JUMPDEST PUSH32 0x5472616E73666572204572726F72000000000000000000000000000000000000 PUSH1 0x0 DUP3 ADD MSTORE POP JUMP JUMPDEST PUSH1 0x0 PUSH2 0x303 PUSH1 0xE DUP4 PUSH2 0x2BC JUMP JUMPDEST SWAP2 POP PUSH2 0x30E DUP3 PUSH2 0x2CD JUMP JUMPDEST PUSH1 0x20 DUP3 ADD SWAP1 POP SWAP2 SWAP1 POP JUMP JUMPDEST PUSH1 0x0 PUSH1 0x20 DUP3 ADD SWAP1 POP DUP2 DUP2 SUB PUSH1 0x0 DUP4 ADD MSTORE PUSH2 0x332 DUP2 PUSH2 0x2F6 JUMP JUMPDEST SWAP1 POP SWAP2 SWAP1 POP JUMP INVALID LOG2 PUSH5 0x6970667358 0x22 SLT KECCAK256 PUSH15 0x15AFD799DBA4D6B60D787B84E4C166 MUL SHL DUP6 0xD1 SWAP15 CALLDATALOAD DUP13 0xC6 0xBF KECCAK256 LT MSTORE SWAP16 0x21 0x27 PUSH2 0x6473 PUSH16 0x6C634300080D00330000000000000000 "
				},
				"gasEstimates": {
					"creation": {
						"codeDepositCost": "175800",
						"executionCost": "22309",
						"totalCost": "198109"
					},
					"external": {
						"balance()": "2429",
						"withdraw()": "infinite"
					}
				},
				"methodIdentifiers": {
					"balance()": "b69ef8a8",
					"withdraw()": "3ccfd60b"
				}
			},
			"userdoc": {
				"kind": "user",
				"methods": {},
				"version": 1
			}
		}
	}
}