{
	"Governor.sol": {
		"Governor": {
			"abi": [
				{
					"inputs": [
						{
							"internalType": "address",
							"name": "_target",
							"type": "address"
						},
						{
							"internalType": "uint256",
							"name": "_numConfirmationsRequired",
							"type": "uint256"
						},
						{
							"internalType": "address[]",
							"name": "_owners",
							"type": "address[]"
						}
					],
					"stateMutability": "nonpayable",
					"type": "constructor"
				},
				{
					"anonymous": false,
					"inputs": [
						{
							"indexed": true,
							"internalType": "address",
							"name": "owner",
							"type": "address"
						},
						{
							"indexed": true,
							"internalType": "uint256",
							"name": "txIndex",
							"type": "uint256"
						}
					],
					"name": "ConfirmTransaction",
					"type": "event"
				},
				{
					"anonymous": false,
					"inputs": [
						{
							"indexed": true,
							"internalType": "address",
							"name": "owner",
							"type": "address"
						},
						{
							"indexed": true,
							"internalType": "uint256",
							"name": "txIndex",
							"type": "uint256"
						}
					],
					"name": "ExecuteTransaction",
					"type": "event"
				},
				{
					"anonymous": false,
					"inputs": [
						{
							"indexed": true,
							"internalType": "address",
							"name": "owner",
							"type": "address"
						},
						{
							"indexed": true,
							"internalType": "uint256",
							"name": "txIndex",
							"type": "uint256"
						}
					],
					"name": "SubmitTransaction",
					"type": "event"
				},
				{
					"inputs": [
						{
							"internalType": "uint256",
							"name": "_txIndex",
							"type": "uint256"
						}
					],
					"name": "confirmTransaction",
					"outputs": [],
					"stateMutability": "nonpayable",
					"type": "function"
				},
				{
					"inputs": [
						{
							"internalType": "uint256",
							"name": "_txIndex",
							"type": "uint256"
						}
					],
					"name": "executeTransaction",
					"outputs": [],
					"stateMutability": "nonpayable",
					"type": "function"
				},
				{
					"inputs": [
						{
							"internalType": "uint256",
							"name": "",
							"type": "uint256"
						},
						{
							"internalType": "address",
							"name": "",
							"type": "address"
						}
					],
					"name": "isConfirmed",
					"outputs": [
						{
							"internalType": "bool",
							"name": "",
							"type": "bool"
						}
					],
					"stateMutability": "view",
					"type": "function"
				},
				{
					"inputs": [
						{
							"internalType": "address",
							"name": "",
							"type": "address"
						}
					],
					"name": "isOwner",
					"outputs": [
						{
							"internalType": "bool",
							"name": "",
							"type": "bool"
						}
					],
					"stateMutability": "view",
					"type": "function"
				},
				{
					"inputs": [],
					"name": "numConfirmationsRequired",
					"outputs": [
						{
							"internalType": "uint256",
							"name": "",
							"type": "uint256"
						}
					],
					"stateMutability": "view",
					"type": "function"
				},
				{
					"inputs": [
						{
							"internalType": "uint256",
							"name": "",
							"type": "uint256"
						}
					],
					"name": "owners",
					"outputs": [
						{
							"internalType": "address",
							"name": "",
							"type": "address"
						}
					],
					"stateMutability": "view",
					"type": "function"
				},
				{
					"inputs": [
						{
							"internalType": "uint256",
							"name": "_value",
							"type": "uint256"
						},
						{
							"internalType": "bytes",
							"name": "_data",
							"type": "bytes"
						}
					],
					"name": "submitTransaction",
					"outputs": [],
					"stateMutability": "nonpayable",
					"type": "function"
				},
				{
					"inputs": [],
					"name": "target",
					"outputs": [
						{
							"internalType": "address",
							"name": "",
							"type": "address"
						}
					],
					"stateMutability": "view",
					"type": "function"
				},
				{
					"inputs": [
						{
							"internalType": "uint256",
							"name": "",
							"type": "uint256"
						}
					],
					"name": "transactions",
					"outputs": [
						{
							"internalType": "uint256",
							"name": "value",
							"type": "uint256"
						},
						{
							"internalType": "bytes",
							"name": "data",
							"type": "bytes"
						},
						{
							"internalType": "bool",
							"name": "executed",
							"type": "bool"
						},
						{
							"internalType": "uint256",
							"name": "numConfirmations",
							"type": "uint256"
						}
					],
					"stateMutability": "view",
					"type": "function"
				}
			],
			"devdoc": {
				"kind": "dev",
				"methods": {},
				"version": 1
			},
			"evm": {
				"assembly": "    /* \"Governor.sol\":61:2940  contract Governor {... */\n  mstore(0x40, 0x80)\n    /* \"Governor.sol\":1127:1611  constructor(address _target, uint _numConfirmationsRequired, address[] memory _owners) {... */\n  callvalue\n  dup1\n  iszero\n  tag_1\n  jumpi\n  0x00\n  dup1\n  revert\ntag_1:\n  pop\n  mload(0x40)\n  sub(codesize, bytecodeSize)\n  dup1\n  bytecodeSize\n  dup4\n  codecopy\n  dup2\n  dup2\n  add\n  0x40\n  mstore\n  dup2\n  add\n  swap1\n  tag_2\n  swap2\n  swap1\n  tag_3\n  jump\t// in\ntag_2:\n    /* \"Governor.sol\":1234:1241  _target */\n  dup3\n    /* \"Governor.sol\":1225:1231  target */\n  0x00\n  dup1\n    /* \"Governor.sol\":1225:1241  target = _target */\n  0x0100\n  exp\n  dup2\n  sload\n  dup2\n  0xffffffffffffffffffffffffffffffffffffffff\n  mul\n  not\n  and\n  swap1\n  dup4\n  0xffffffffffffffffffffffffffffffffffffffff\n  and\n  mul\n  or\n  swap1\n  sstore\n  pop\n    /* \"Governor.sol\":1279:1304  _numConfirmationsRequired */\n  dup2\n    /* \"Governor.sol\":1252:1276  numConfirmationsRequired */\n  0x05\n    /* \"Governor.sol\":1252:1304  numConfirmationsRequired = _numConfirmationsRequired */\n  dup2\n  swap1\n  sstore\n  pop\n    /* \"Governor.sol\":1322:1328  uint i */\n  0x00\n    /* \"Governor.sol\":1317:1604  for (uint i = 0; i < _owners.length; i++) {... */\ntag_6:\n    /* \"Governor.sol\":1338:1345  _owners */\n  dup2\n    /* \"Governor.sol\":1338:1352  _owners.length */\n  mload\n    /* \"Governor.sol\":1334:1335  i */\n  dup2\n    /* \"Governor.sol\":1334:1352  i < _owners.length */\n  lt\n    /* \"Governor.sol\":1317:1604  for (uint i = 0; i < _owners.length; i++) {... */\n  iszero\n  tag_7\n  jumpi\n    /* \"Governor.sol\":1374:1387  address owner */\n  0x00\n    /* \"Governor.sol\":1390:1397  _owners */\n  dup3\n    /* \"Governor.sol\":1398:1399  i */\n  dup3\n    /* \"Governor.sol\":1390:1400  _owners[i] */\n  dup2\n  mload\n  dup2\n  lt\n  tag_9\n  jumpi\n  tag_10\n  tag_11\n  jump\t// in\ntag_10:\ntag_9:\n  0x20\n  mul\n  0x20\n  add\n  add\n  mload\n    /* \"Governor.sol\":1374:1400  address owner = _owners[i] */\n  swap1\n  pop\n    /* \"Governor.sol\":1442:1443  0 */\n  0x00\n    /* \"Governor.sol\":1425:1444  owner != address(0) */\n  0xffffffffffffffffffffffffffffffffffffffff\n  and\n    /* \"Governor.sol\":1425:1430  owner */\n  dup2\n    /* \"Governor.sol\":1425:1444  owner != address(0) */\n  0xffffffffffffffffffffffffffffffffffffffff\n  and\n  sub\n    /* \"Governor.sol\":1417:1462  require(owner != address(0), \"invalid owner\") */\n  tag_12\n  jumpi\n  mload(0x40)\n  0x08c379a000000000000000000000000000000000000000000000000000000000\n  dup2\n  mstore\n  0x04\n  add\n  tag_13\n  swap1\n  tag_14\n  jump\t// in\ntag_13:\n  mload(0x40)\n  dup1\n  swap2\n  sub\n  swap1\n  revert\ntag_12:\n    /* \"Governor.sol\":1486:1493  isOwner */\n  0x03\n    /* \"Governor.sol\":1486:1500  isOwner[owner] */\n  0x00\n    /* \"Governor.sol\":1494:1499  owner */\n  dup3\n    /* \"Governor.sol\":1486:1500  isOwner[owner] */\n  0xffffffffffffffffffffffffffffffffffffffff\n  and\n  0xffffffffffffffffffffffffffffffffffffffff\n  and\n  dup2\n  mstore\n  0x20\n  add\n  swap1\n  dup2\n  mstore\n  0x20\n  add\n  0x00\n  keccak256\n  0x00\n  swap1\n  sload\n  swap1\n  0x0100\n  exp\n  swap1\n  div\n  0xff\n  and\n    /* \"Governor.sol\":1485:1500  !isOwner[owner] */\n  iszero\n    /* \"Governor.sol\":1477:1521  require(!isOwner[owner], \"owner not unique\") */\n  tag_15\n  jumpi\n  mload(0x40)\n  0x08c379a000000000000000000000000000000000000000000000000000000000\n  dup2\n  mstore\n  0x04\n  add\n  tag_16\n  swap1\n  tag_17\n  jump\t// in\ntag_16:\n  mload(0x40)\n  dup1\n  swap2\n  sub\n  swap1\n  revert\ntag_15:\n    /* \"Governor.sol\":1555:1559  true */\n  0x01\n    /* \"Governor.sol\":1538:1545  isOwner */\n  0x03\n    /* \"Governor.sol\":1538:1552  isOwner[owner] */\n  0x00\n    /* \"Governor.sol\":1546:1551  owner */\n  dup4\n    /* \"Governor.sol\":1538:1552  isOwner[owner] */\n  0xffffffffffffffffffffffffffffffffffffffff\n  and\n  0xffffffffffffffffffffffffffffffffffffffff\n  and\n  dup2\n  mstore\n  0x20\n  add\n  swap1\n  dup2\n  mstore\n  0x20\n  add\n  0x00\n  keccak256\n  0x00\n    /* \"Governor.sol\":1538:1559  isOwner[owner] = true */\n  0x0100\n  exp\n  dup2\n  sload\n  dup2\n  0xff\n  mul\n  not\n  and\n  swap1\n  dup4\n  iszero\n  iszero\n  mul\n  or\n  swap1\n  sstore\n  pop\n    /* \"Governor.sol\":1574:1580  owners */\n  0x02\n    /* \"Governor.sol\":1586:1591  owner */\n  dup2\n    /* \"Governor.sol\":1574:1592  owners.push(owner) */\n  swap1\n  dup1\n  0x01\n  dup2\n  sload\n  add\n  dup1\n  dup3\n  sstore\n  dup1\n  swap2\n  pop\n  pop\n  0x01\n  swap1\n  sub\n  swap1\n  0x00\n  mstore\n  keccak256(0x00, 0x20)\n  add\n  0x00\n  swap1\n  swap2\n  swap1\n  swap2\n  swap1\n  swap2\n  0x0100\n  exp\n  dup2\n  sload\n  dup2\n  0xffffffffffffffffffffffffffffffffffffffff\n  mul\n  not\n  and\n  swap1\n  dup4\n  0xffffffffffffffffffffffffffffffffffffffff\n  and\n  mul\n  or\n  swap1\n  sstore\n  pop\n    /* \"Governor.sol\":1359:1604  {... */\n  pop\n    /* \"Governor.sol\":1354:1357  i++ */\n  dup1\n  dup1\n  tag_19\n  swap1\n  tag_20\n  jump\t// in\ntag_19:\n  swap2\n  pop\n  pop\n    /* \"Governor.sol\":1317:1604  for (uint i = 0; i < _owners.length; i++) {... */\n  jump(tag_6)\ntag_7:\n  pop\n    /* \"Governor.sol\":1127:1611  constructor(address _target, uint _numConfirmationsRequired, address[] memory _owners) {... */\n  pop\n  pop\n  pop\n    /* \"Governor.sol\":61:2940  contract Governor {... */\n  jump(tag_21)\n    /* \"#utility.yul\":7:82   */\ntag_22:\n    /* \"#utility.yul\":40:46   */\n  0x00\n    /* \"#utility.yul\":73:75   */\n  0x40\n    /* \"#utility.yul\":67:76   */\n  mload\n    /* \"#utility.yul\":57:76   */\n  swap1\n  pop\n    /* \"#utility.yul\":7:82   */\n  swap1\n  jump\t// out\n    /* \"#utility.yul\":88:205   */\ntag_23:\n    /* \"#utility.yul\":197:198   */\n  0x00\n    /* \"#utility.yul\":194:195   */\n  dup1\n    /* \"#utility.yul\":187:199   */\n  revert\n    /* \"#utility.yul\":211:328   */\ntag_24:\n    /* \"#utility.yul\":320:321   */\n  0x00\n    /* \"#utility.yul\":317:318   */\n  dup1\n    /* \"#utility.yul\":310:322   */\n  revert\n    /* \"#utility.yul\":334:460   */\ntag_25:\n    /* \"#utility.yul\":371:378   */\n  0x00\n    /* \"#utility.yul\":411:453   */\n  0xffffffffffffffffffffffffffffffffffffffff\n    /* \"#utility.yul\":404:409   */\n  dup3\n    /* \"#utility.yul\":400:454   */\n  and\n    /* \"#utility.yul\":389:454   */\n  swap1\n  pop\n    /* \"#utility.yul\":334:460   */\n  swap2\n  swap1\n  pop\n  jump\t// out\n    /* \"#utility.yul\":466:562   */\ntag_26:\n    /* \"#utility.yul\":503:510   */\n  0x00\n    /* \"#utility.yul\":532:556   */\n  tag_53\n    /* \"#utility.yul\":550:555   */\n  dup3\n    /* \"#utility.yul\":532:556   */\n  tag_25\n  jump\t// in\ntag_53:\n    /* \"#utility.yul\":521:556   */\n  swap1\n  pop\n    /* \"#utility.yul\":466:562   */\n  swap2\n  swap1\n  pop\n  jump\t// out\n    /* \"#utility.yul\":568:690   */\ntag_27:\n    /* \"#utility.yul\":641:665   */\n  tag_55\n    /* \"#utility.yul\":659:664   */\n  dup2\n    /* \"#utility.yul\":641:665   */\n  tag_26\n  jump\t// in\ntag_55:\n    /* \"#utility.yul\":634:639   */\n  dup2\n    /* \"#utility.yul\":631:666   */\n  eq\n    /* \"#utility.yul\":621:684   */\n  tag_56\n  jumpi\n    /* \"#utility.yul\":680:681   */\n  0x00\n    /* \"#utility.yul\":677:678   */\n  dup1\n    /* \"#utility.yul\":670:682   */\n  revert\n    /* \"#utility.yul\":621:684   */\ntag_56:\n    /* \"#utility.yul\":568:690   */\n  pop\n  jump\t// out\n    /* \"#utility.yul\":696:839   */\ntag_28:\n    /* \"#utility.yul\":753:758   */\n  0x00\n    /* \"#utility.yul\":784:790   */\n  dup2\n    /* \"#utility.yul\":778:791   */\n  mload\n    /* \"#utility.yul\":769:791   */\n  swap1\n  pop\n    /* \"#utility.yul\":800:833   */\n  tag_58\n    /* \"#utility.yul\":827:832   */\n  dup2\n    /* \"#utility.yul\":800:833   */\n  tag_27\n  jump\t// in\ntag_58:\n    /* \"#utility.yul\":696:839   */\n  swap3\n  swap2\n  pop\n  pop\n  jump\t// out\n    /* \"#utility.yul\":845:922   */\ntag_29:\n    /* \"#utility.yul\":882:889   */\n  0x00\n    /* \"#utility.yul\":911:916   */\n  dup2\n    /* \"#utility.yul\":900:916   */\n  swap1\n  pop\n    /* \"#utility.yul\":845:922   */\n  swap2\n  swap1\n  pop\n  jump\t// out\n    /* \"#utility.yul\":928:1050   */\ntag_30:\n    /* \"#utility.yul\":1001:1025   */\n  tag_61\n    /* \"#utility.yul\":1019:1024   */\n  dup2\n    /* \"#utility.yul\":1001:1025   */\n  tag_29\n  jump\t// in\ntag_61:\n    /* \"#utility.yul\":994:999   */\n  dup2\n    /* \"#utility.yul\":991:1026   */\n  eq\n    /* \"#utility.yul\":981:1044   */\n  tag_62\n  jumpi\n    /* \"#utility.yul\":1040:1041   */\n  0x00\n    /* \"#utility.yul\":1037:1038   */\n  dup1\n    /* \"#utility.yul\":1030:1042   */\n  revert\n    /* \"#utility.yul\":981:1044   */\ntag_62:\n    /* \"#utility.yul\":928:1050   */\n  pop\n  jump\t// out\n    /* \"#utility.yul\":1056:1199   */\ntag_31:\n    /* \"#utility.yul\":1113:1118   */\n  0x00\n    /* \"#utility.yul\":1144:1150   */\n  dup2\n    /* \"#utility.yul\":1138:1151   */\n  mload\n    /* \"#utility.yul\":1129:1151   */\n  swap1\n  pop\n    /* \"#utility.yul\":1160:1193   */\n  tag_64\n    /* \"#utility.yul\":1187:1192   */\n  dup2\n    /* \"#utility.yul\":1160:1193   */\n  tag_30\n  jump\t// in\ntag_64:\n    /* \"#utility.yul\":1056:1199   */\n  swap3\n  swap2\n  pop\n  pop\n  jump\t// out\n    /* \"#utility.yul\":1205:1322   */\ntag_32:\n    /* \"#utility.yul\":1314:1315   */\n  0x00\n    /* \"#utility.yul\":1311:1312   */\n  dup1\n    /* \"#utility.yul\":1304:1316   */\n  revert\n    /* \"#utility.yul\":1328:1430   */\ntag_33:\n    /* \"#utility.yul\":1369:1375   */\n  0x00\n    /* \"#utility.yul\":1420:1422   */\n  0x1f\n    /* \"#utility.yul\":1416:1423   */\n  not\n    /* \"#utility.yul\":1411:1413   */\n  0x1f\n    /* \"#utility.yul\":1404:1409   */\n  dup4\n    /* \"#utility.yul\":1400:1414   */\n  add\n    /* \"#utility.yul\":1396:1424   */\n  and\n    /* \"#utility.yul\":1386:1424   */\n  swap1\n  pop\n    /* \"#utility.yul\":1328:1430   */\n  swap2\n  swap1\n  pop\n  jump\t// out\n    /* \"#utility.yul\":1436:1616   */\ntag_34:\n    /* \"#utility.yul\":1484:1561   */\n  0x4e487b7100000000000000000000000000000000000000000000000000000000\n    /* \"#utility.yul\":1481:1482   */\n  0x00\n    /* \"#utility.yul\":1474:1562   */\n  mstore\n    /* \"#utility.yul\":1581:1585   */\n  0x41\n    /* \"#utility.yul\":1578:1579   */\n  0x04\n    /* \"#utility.yul\":1571:1586   */\n  mstore\n    /* \"#utility.yul\":1605:1609   */\n  0x24\n    /* \"#utility.yul\":1602:1603   */\n  0x00\n    /* \"#utility.yul\":1595:1610   */\n  revert\n    /* \"#utility.yul\":1622:1903   */\ntag_35:\n    /* \"#utility.yul\":1705:1732   */\n  tag_69\n    /* \"#utility.yul\":1727:1731   */\n  dup3\n    /* \"#utility.yul\":1705:1732   */\n  tag_33\n  jump\t// in\ntag_69:\n    /* \"#utility.yul\":1697:1703   */\n  dup2\n    /* \"#utility.yul\":1693:1733   */\n  add\n    /* \"#utility.yul\":1835:1841   */\n  dup2\n    /* \"#utility.yul\":1823:1833   */\n  dup2\n    /* \"#utility.yul\":1820:1842   */\n  lt\n    /* \"#utility.yul\":1799:1817   */\n  0xffffffffffffffff\n    /* \"#utility.yul\":1787:1797   */\n  dup3\n    /* \"#utility.yul\":1784:1818   */\n  gt\n    /* \"#utility.yul\":1781:1843   */\n  or\n    /* \"#utility.yul\":1778:1866   */\n  iszero\n  tag_70\n  jumpi\n    /* \"#utility.yul\":1846:1864   */\n  tag_71\n  tag_34\n  jump\t// in\ntag_71:\n    /* \"#utility.yul\":1778:1866   */\ntag_70:\n    /* \"#utility.yul\":1886:1896   */\n  dup1\n    /* \"#utility.yul\":1882:1884   */\n  0x40\n    /* \"#utility.yul\":1875:1897   */\n  mstore\n    /* \"#utility.yul\":1665:1903   */\n  pop\n    /* \"#utility.yul\":1622:1903   */\n  pop\n  pop\n  jump\t// out\n    /* \"#utility.yul\":1909:2038   */\ntag_36:\n    /* \"#utility.yul\":1943:1949   */\n  0x00\n    /* \"#utility.yul\":1970:1990   */\n  tag_73\n  tag_22\n  jump\t// in\ntag_73:\n    /* \"#utility.yul\":1960:1990   */\n  swap1\n  pop\n    /* \"#utility.yul\":1999:2032   */\n  tag_74\n    /* \"#utility.yul\":2027:2031   */\n  dup3\n    /* \"#utility.yul\":2019:2025   */\n  dup3\n    /* \"#utility.yul\":1999:2032   */\n  tag_35\n  jump\t// in\ntag_74:\n    /* \"#utility.yul\":1909:2038   */\n  swap2\n  swap1\n  pop\n  jump\t// out\n    /* \"#utility.yul\":2044:2355   */\ntag_37:\n    /* \"#utility.yul\":2121:2125   */\n  0x00\n    /* \"#utility.yul\":2211:2229   */\n  0xffffffffffffffff\n    /* \"#utility.yul\":2203:2209   */\n  dup3\n    /* \"#utility.yul\":2200:2230   */\n  gt\n    /* \"#utility.yul\":2197:2253   */\n  iszero\n  tag_76\n  jumpi\n    /* \"#utility.yul\":2233:2251   */\n  tag_77\n  tag_34\n  jump\t// in\ntag_77:\n    /* \"#utility.yul\":2197:2253   */\ntag_76:\n    /* \"#utility.yul\":2283:2287   */\n  0x20\n    /* \"#utility.yul\":2275:2281   */\n  dup3\n    /* \"#utility.yul\":2271:2288   */\n  mul\n    /* \"#utility.yul\":2263:2288   */\n  swap1\n  pop\n    /* \"#utility.yul\":2343:2347   */\n  0x20\n    /* \"#utility.yul\":2337:2341   */\n  dup2\n    /* \"#utility.yul\":2333:2348   */\n  add\n    /* \"#utility.yul\":2325:2348   */\n  swap1\n  pop\n    /* \"#utility.yul\":2044:2355   */\n  swap2\n  swap1\n  pop\n  jump\t// out\n    /* \"#utility.yul\":2361:2478   */\ntag_38:\n    /* \"#utility.yul\":2470:2471   */\n  0x00\n    /* \"#utility.yul\":2467:2468   */\n  dup1\n    /* \"#utility.yul\":2460:2472   */\n  revert\n    /* \"#utility.yul\":2501:3233   */\ntag_39:\n    /* \"#utility.yul\":2608:2613   */\n  0x00\n    /* \"#utility.yul\":2633:2714   */\n  tag_80\n    /* \"#utility.yul\":2649:2713   */\n  tag_81\n    /* \"#utility.yul\":2706:2712   */\n  dup5\n    /* \"#utility.yul\":2649:2713   */\n  tag_37\n  jump\t// in\ntag_81:\n    /* \"#utility.yul\":2633:2714   */\n  tag_36\n  jump\t// in\ntag_80:\n    /* \"#utility.yul\":2624:2714   */\n  swap1\n  pop\n    /* \"#utility.yul\":2734:2739   */\n  dup1\n    /* \"#utility.yul\":2763:2769   */\n  dup4\n    /* \"#utility.yul\":2756:2761   */\n  dup3\n    /* \"#utility.yul\":2749:2770   */\n  mstore\n    /* \"#utility.yul\":2797:2801   */\n  0x20\n    /* \"#utility.yul\":2790:2795   */\n  dup3\n    /* \"#utility.yul\":2786:2802   */\n  add\n    /* \"#utility.yul\":2779:2802   */\n  swap1\n  pop\n    /* \"#utility.yul\":2850:2854   */\n  0x20\n    /* \"#utility.yul\":2842:2848   */\n  dup5\n    /* \"#utility.yul\":2838:2855   */\n  mul\n    /* \"#utility.yul\":2830:2836   */\n  dup4\n    /* \"#utility.yul\":2826:2856   */\n  add\n    /* \"#utility.yul\":2879:2882   */\n  dup6\n    /* \"#utility.yul\":2871:2877   */\n  dup2\n    /* \"#utility.yul\":2868:2883   */\n  gt\n    /* \"#utility.yul\":2865:2987   */\n  iszero\n  tag_82\n  jumpi\n    /* \"#utility.yul\":2898:2977   */\n  tag_83\n  tag_38\n  jump\t// in\ntag_83:\n    /* \"#utility.yul\":2865:2987   */\ntag_82:\n    /* \"#utility.yul\":3013:3019   */\n  dup4\n    /* \"#utility.yul\":2996:3227   */\ntag_84:\n    /* \"#utility.yul\":3030:3036   */\n  dup2\n    /* \"#utility.yul\":3025:3028   */\n  dup2\n    /* \"#utility.yul\":3022:3037   */\n  lt\n    /* \"#utility.yul\":2996:3227   */\n  iszero\n  tag_86\n  jumpi\n    /* \"#utility.yul\":3105:3108   */\n  dup1\n    /* \"#utility.yul\":3134:3182   */\n  tag_87\n    /* \"#utility.yul\":3178:3181   */\n  dup9\n    /* \"#utility.yul\":3166:3176   */\n  dup3\n    /* \"#utility.yul\":3134:3182   */\n  tag_28\n  jump\t// in\ntag_87:\n    /* \"#utility.yul\":3129:3132   */\n  dup5\n    /* \"#utility.yul\":3122:3183   */\n  mstore\n    /* \"#utility.yul\":3212:3216   */\n  0x20\n    /* \"#utility.yul\":3207:3210   */\n  dup5\n    /* \"#utility.yul\":3203:3217   */\n  add\n    /* \"#utility.yul\":3196:3217   */\n  swap4\n  pop\n    /* \"#utility.yul\":3072:3227   */\n  pop\n    /* \"#utility.yul\":3056:3060   */\n  0x20\n    /* \"#utility.yul\":3051:3054   */\n  dup2\n    /* \"#utility.yul\":3047:3061   */\n  add\n    /* \"#utility.yul\":3040:3061   */\n  swap1\n  pop\n    /* \"#utility.yul\":2996:3227   */\n  jump(tag_84)\ntag_86:\n    /* \"#utility.yul\":3000:3021   */\n  pop\n    /* \"#utility.yul\":2614:3233   */\n  pop\n  pop\n    /* \"#utility.yul\":2501:3233   */\n  swap4\n  swap3\n  pop\n  pop\n  pop\n  jump\t// out\n    /* \"#utility.yul\":3256:3641   */\ntag_40:\n    /* \"#utility.yul\":3338:3343   */\n  0x00\n    /* \"#utility.yul\":3387:3390   */\n  dup3\n    /* \"#utility.yul\":3380:3384   */\n  0x1f\n    /* \"#utility.yul\":3372:3378   */\n  dup4\n    /* \"#utility.yul\":3368:3385   */\n  add\n    /* \"#utility.yul\":3364:3391   */\n  slt\n    /* \"#utility.yul\":3354:3476   */\n  tag_89\n  jumpi\n    /* \"#utility.yul\":3395:3474   */\n  tag_90\n  tag_32\n  jump\t// in\ntag_90:\n    /* \"#utility.yul\":3354:3476   */\ntag_89:\n    /* \"#utility.yul\":3505:3511   */\n  dup2\n    /* \"#utility.yul\":3499:3512   */\n  mload\n    /* \"#utility.yul\":3530:3635   */\n  tag_91\n    /* \"#utility.yul\":3631:3634   */\n  dup5\n    /* \"#utility.yul\":3623:3629   */\n  dup3\n    /* \"#utility.yul\":3616:3620   */\n  0x20\n    /* \"#utility.yul\":3608:3614   */\n  dup7\n    /* \"#utility.yul\":3604:3621   */\n  add\n    /* \"#utility.yul\":3530:3635   */\n  tag_39\n  jump\t// in\ntag_91:\n    /* \"#utility.yul\":3521:3635   */\n  swap2\n  pop\n    /* \"#utility.yul\":3344:3641   */\n  pop\n    /* \"#utility.yul\":3256:3641   */\n  swap3\n  swap2\n  pop\n  pop\n  jump\t// out\n    /* \"#utility.yul\":3647:4513   */\ntag_3:\n    /* \"#utility.yul\":3760:3766   */\n  0x00\n    /* \"#utility.yul\":3768:3774   */\n  dup1\n    /* \"#utility.yul\":3776:3782   */\n  0x00\n    /* \"#utility.yul\":3825:3827   */\n  0x60\n    /* \"#utility.yul\":3813:3822   */\n  dup5\n    /* \"#utility.yul\":3804:3811   */\n  dup7\n    /* \"#utility.yul\":3800:3823   */\n  sub\n    /* \"#utility.yul\":3796:3828   */\n  slt\n    /* \"#utility.yul\":3793:3912   */\n  iszero\n  tag_93\n  jumpi\n    /* \"#utility.yul\":3831:3910   */\n  tag_94\n  tag_23\n  jump\t// in\ntag_94:\n    /* \"#utility.yul\":3793:3912   */\ntag_93:\n    /* \"#utility.yul\":3951:3952   */\n  0x00\n    /* \"#utility.yul\":3976:4040   */\n  tag_95\n    /* \"#utility.yul\":4032:4039   */\n  dup7\n    /* \"#utility.yul\":4023:4029   */\n  dup3\n    /* \"#utility.yul\":4012:4021   */\n  dup8\n    /* \"#utility.yul\":4008:4030   */\n  add\n    /* \"#utility.yul\":3976:4040   */\n  tag_28\n  jump\t// in\ntag_95:\n    /* \"#utility.yul\":3966:4040   */\n  swap4\n  pop\n    /* \"#utility.yul\":3922:4050   */\n  pop\n    /* \"#utility.yul\":4089:4091   */\n  0x20\n    /* \"#utility.yul\":4115:4179   */\n  tag_96\n    /* \"#utility.yul\":4171:4178   */\n  dup7\n    /* \"#utility.yul\":4162:4168   */\n  dup3\n    /* \"#utility.yul\":4151:4160   */\n  dup8\n    /* \"#utility.yul\":4147:4169   */\n  add\n    /* \"#utility.yul\":4115:4179   */\n  tag_31\n  jump\t// in\ntag_96:\n    /* \"#utility.yul\":4105:4179   */\n  swap3\n  pop\n    /* \"#utility.yul\":4060:4189   */\n  pop\n    /* \"#utility.yul\":4249:4251   */\n  0x40\n    /* \"#utility.yul\":4238:4247   */\n  dup5\n    /* \"#utility.yul\":4234:4252   */\n  add\n    /* \"#utility.yul\":4228:4253   */\n  mload\n    /* \"#utility.yul\":4280:4298   */\n  0xffffffffffffffff\n    /* \"#utility.yul\":4272:4278   */\n  dup2\n    /* \"#utility.yul\":4269:4299   */\n  gt\n    /* \"#utility.yul\":4266:4383   */\n  iszero\n  tag_97\n  jumpi\n    /* \"#utility.yul\":4302:4381   */\n  tag_98\n  tag_24\n  jump\t// in\ntag_98:\n    /* \"#utility.yul\":4266:4383   */\ntag_97:\n    /* \"#utility.yul\":4407:4496   */\n  tag_99\n    /* \"#utility.yul\":4488:4495   */\n  dup7\n    /* \"#utility.yul\":4479:4485   */\n  dup3\n    /* \"#utility.yul\":4468:4477   */\n  dup8\n    /* \"#utility.yul\":4464:4486   */\n  add\n    /* \"#utility.yul\":4407:4496   */\n  tag_40\n  jump\t// in\ntag_99:\n    /* \"#utility.yul\":4397:4496   */\n  swap2\n  pop\n    /* \"#utility.yul\":4199:4506   */\n  pop\n    /* \"#utility.yul\":3647:4513   */\n  swap3\n  pop\n  swap3\n  pop\n  swap3\n  jump\t// out\n    /* \"#utility.yul\":4519:4699   */\ntag_11:\n    /* \"#utility.yul\":4567:4644   */\n  0x4e487b7100000000000000000000000000000000000000000000000000000000\n    /* \"#utility.yul\":4564:4565   */\n  0x00\n    /* \"#utility.yul\":4557:4645   */\n  mstore\n    /* \"#utility.yul\":4664:4668   */\n  0x32\n    /* \"#utility.yul\":4661:4662   */\n  0x04\n    /* \"#utility.yul\":4654:4669   */\n  mstore\n    /* \"#utility.yul\":4688:4692   */\n  0x24\n    /* \"#utility.yul\":4685:4686   */\n  0x00\n    /* \"#utility.yul\":4678:4693   */\n  revert\n    /* \"#utility.yul\":4705:4874   */\ntag_41:\n    /* \"#utility.yul\":4789:4800   */\n  0x00\n    /* \"#utility.yul\":4823:4829   */\n  dup3\n    /* \"#utility.yul\":4818:4821   */\n  dup3\n    /* \"#utility.yul\":4811:4830   */\n  mstore\n    /* \"#utility.yul\":4863:4867   */\n  0x20\n    /* \"#utility.yul\":4858:4861   */\n  dup3\n    /* \"#utility.yul\":4854:4868   */\n  add\n    /* \"#utility.yul\":4839:4868   */\n  swap1\n  pop\n    /* \"#utility.yul\":4705:4874   */\n  swap3\n  swap2\n  pop\n  pop\n  jump\t// out\n    /* \"#utility.yul\":4880:5043   */\ntag_42:\n    /* \"#utility.yul\":5020:5035   */\n  0x696e76616c6964206f776e657200000000000000000000000000000000000000\n    /* \"#utility.yul\":5016:5017   */\n  0x00\n    /* \"#utility.yul\":5008:5014   */\n  dup3\n    /* \"#utility.yul\":5004:5018   */\n  add\n    /* \"#utility.yul\":4997:5036   */\n  mstore\n    /* \"#utility.yul\":4880:5043   */\n  pop\n  jump\t// out\n    /* \"#utility.yul\":5049:5415   */\ntag_43:\n    /* \"#utility.yul\":5191:5194   */\n  0x00\n    /* \"#utility.yul\":5212:5279   */\n  tag_104\n    /* \"#utility.yul\":5276:5278   */\n  0x0d\n    /* \"#utility.yul\":5271:5274   */\n  dup4\n    /* \"#utility.yul\":5212:5279   */\n  tag_41\n  jump\t// in\ntag_104:\n    /* \"#utility.yul\":5205:5279   */\n  swap2\n  pop\n    /* \"#utility.yul\":5288:5381   */\n  tag_105\n    /* \"#utility.yul\":5377:5380   */\n  dup3\n    /* \"#utility.yul\":5288:5381   */\n  tag_42\n  jump\t// in\ntag_105:\n    /* \"#utility.yul\":5406:5408   */\n  0x20\n    /* \"#utility.yul\":5401:5404   */\n  dup3\n    /* \"#utility.yul\":5397:5409   */\n  add\n    /* \"#utility.yul\":5390:5409   */\n  swap1\n  pop\n    /* \"#utility.yul\":5049:5415   */\n  swap2\n  swap1\n  pop\n  jump\t// out\n    /* \"#utility.yul\":5421:5840   */\ntag_14:\n    /* \"#utility.yul\":5587:5591   */\n  0x00\n    /* \"#utility.yul\":5625:5627   */\n  0x20\n    /* \"#utility.yul\":5614:5623   */\n  dup3\n    /* \"#utility.yul\":5610:5628   */\n  add\n    /* \"#utility.yul\":5602:5628   */\n  swap1\n  pop\n    /* \"#utility.yul\":5674:5683   */\n  dup2\n    /* \"#utility.yul\":5668:5672   */\n  dup2\n    /* \"#utility.yul\":5664:5684   */\n  sub\n    /* \"#utility.yul\":5660:5661   */\n  0x00\n    /* \"#utility.yul\":5649:5658   */\n  dup4\n    /* \"#utility.yul\":5645:5662   */\n  add\n    /* \"#utility.yul\":5638:5685   */\n  mstore\n    /* \"#utility.yul\":5702:5833   */\n  tag_107\n    /* \"#utility.yul\":5828:5832   */\n  dup2\n    /* \"#utility.yul\":5702:5833   */\n  tag_43\n  jump\t// in\ntag_107:\n    /* \"#utility.yul\":5694:5833   */\n  swap1\n  pop\n    /* \"#utility.yul\":5421:5840   */\n  swap2\n  swap1\n  pop\n  jump\t// out\n    /* \"#utility.yul\":5846:6012   */\ntag_44:\n    /* \"#utility.yul\":5986:6004   */\n  0x6f776e6572206e6f7420756e6971756500000000000000000000000000000000\n    /* \"#utility.yul\":5982:5983   */\n  0x00\n    /* \"#utility.yul\":5974:5980   */\n  dup3\n    /* \"#utility.yul\":5970:5984   */\n  add\n    /* \"#utility.yul\":5963:6005   */\n  mstore\n    /* \"#utility.yul\":5846:6012   */\n  pop\n  jump\t// out\n    /* \"#utility.yul\":6018:6384   */\ntag_45:\n    /* \"#utility.yul\":6160:6163   */\n  0x00\n    /* \"#utility.yul\":6181:6248   */\n  tag_110\n    /* \"#utility.yul\":6245:6247   */\n  0x10\n    /* \"#utility.yul\":6240:6243   */\n  dup4\n    /* \"#utility.yul\":6181:6248   */\n  tag_41\n  jump\t// in\ntag_110:\n    /* \"#utility.yul\":6174:6248   */\n  swap2\n  pop\n    /* \"#utility.yul\":6257:6350   */\n  tag_111\n    /* \"#utility.yul\":6346:6349   */\n  dup3\n    /* \"#utility.yul\":6257:6350   */\n  tag_44\n  jump\t// in\ntag_111:\n    /* \"#utility.yul\":6375:6377   */\n  0x20\n    /* \"#utility.yul\":6370:6373   */\n  dup3\n    /* \"#utility.yul\":6366:6378   */\n  add\n    /* \"#utility.yul\":6359:6378   */\n  swap1\n  pop\n    /* \"#utility.yul\":6018:6384   */\n  swap2\n  swap1\n  pop\n  jump\t// out\n    /* \"#utility.yul\":6390:6809   */\ntag_17:\n    /* \"#utility.yul\":6556:6560   */\n  0x00\n    /* \"#utility.yul\":6594:6596   */\n  0x20\n    /* \"#utility.yul\":6583:6592   */\n  dup3\n    /* \"#utility.yul\":6579:6597   */\n  add\n    /* \"#utility.yul\":6571:6597   */\n  swap1\n  pop\n    /* \"#utility.yul\":6643:6652   */\n  dup2\n    /* \"#utility.yul\":6637:6641   */\n  dup2\n    /* \"#utility.yul\":6633:6653   */\n  sub\n    /* \"#utility.yul\":6629:6630   */\n  0x00\n    /* \"#utility.yul\":6618:6627   */\n  dup4\n    /* \"#utility.yul\":6614:6631   */\n  add\n    /* \"#utility.yul\":6607:6654   */\n  mstore\n    /* \"#utility.yul\":6671:6802   */\n  tag_113\n    /* \"#utility.yul\":6797:6801   */\n  dup2\n    /* \"#utility.yul\":6671:6802   */\n  tag_45\n  jump\t// in\ntag_113:\n    /* \"#utility.yul\":6663:6802   */\n  swap1\n  pop\n    /* \"#utility.yul\":6390:6809   */\n  swap2\n  swap1\n  pop\n  jump\t// out\n    /* \"#utility.yul\":6815:6995   */\ntag_46:\n    /* \"#utility.yul\":6863:6940   */\n  0x4e487b7100000000000000000000000000000000000000000000000000000000\n    /* \"#utility.yul\":6860:6861   */\n  0x00\n    /* \"#utility.yul\":6853:6941   */\n  mstore\n    /* \"#utility.yul\":6960:6964   */\n  0x11\n    /* \"#utility.yul\":6957:6958   */\n  0x04\n    /* \"#utility.yul\":6950:6965   */\n  mstore\n    /* \"#utility.yul\":6984:6988   */\n  0x24\n    /* \"#utility.yul\":6981:6982   */\n  0x00\n    /* \"#utility.yul\":6974:6989   */\n  revert\n    /* \"#utility.yul\":7001:7234   */\ntag_20:\n    /* \"#utility.yul\":7040:7043   */\n  0x00\n    /* \"#utility.yul\":7063:7087   */\n  tag_116\n    /* \"#utility.yul\":7081:7086   */\n  dup3\n    /* \"#utility.yul\":7063:7087   */\n  tag_29\n  jump\t// in\ntag_116:\n    /* \"#utility.yul\":7054:7087   */\n  swap2\n  pop\n    /* \"#utility.yul\":7109:7175   */\n  0xffffffffffffffffffffffffffffffffffffffffffffffffffffffffffffffff\n    /* \"#utility.yul\":7102:7107   */\n  dup3\n    /* \"#utility.yul\":7099:7176   */\n  sub\n    /* \"#utility.yul\":7096:7199   */\n  tag_117\n  jumpi\n    /* \"#utility.yul\":7179:7197   */\n  tag_118\n  tag_46\n  jump\t// in\ntag_118:\n    /* \"#utility.yul\":7096:7199   */\ntag_117:\n    /* \"#utility.yul\":7226:7227   */\n  0x01\n    /* \"#utility.yul\":7219:7224   */\n  dup3\n    /* \"#utility.yul\":7215:7228   */\n  add\n    /* \"#utility.yul\":7208:7228   */\n  swap1\n  pop\n    /* \"#utility.yul\":7001:7234   */\n  swap2\n  swap1\n  pop\n  jump\t// out\n    /* \"Governor.sol\":61:2940  contract Governor {... */\ntag_21:\n  dataSize(sub_0)\n  dup1\n  dataOffset(sub_0)\n  0x00\n  codecopy\n  0x00\n  return\nstop\n\nsub_0: assembly {\n        /* \"Governor.sol\":61:2940  contract Governor {... */\n      mstore(0x40, 0x80)\n      callvalue\n      dup1\n      iszero\n      tag_1\n      jumpi\n      0x00\n      dup1\n      revert\n    tag_1:\n      pop\n      jumpi(tag_2, lt(calldatasize, 0x04))\n      shr(0xe0, calldataload(0x00))\n      dup1\n      0x9ace38c2\n      gt\n      tag_12\n      jumpi\n      dup1\n      0x9ace38c2\n      eq\n      tag_7\n      jumpi\n      dup1\n      0xc01a8c84\n      eq\n      tag_8\n      jumpi\n      dup1\n      0xd0549b85\n      eq\n      tag_9\n      jumpi\n      dup1\n      0xd4b83992\n      eq\n      tag_10\n      jumpi\n      dup1\n      0xee22610b\n      eq\n      tag_11\n      jumpi\n      jump(tag_2)\n    tag_12:\n      dup1\n      0x025e7c27\n      eq\n      tag_3\n      jumpi\n      dup1\n      0x2f54bf6e\n      eq\n      tag_4\n      jumpi\n      dup1\n      0x6028f099\n      eq\n      tag_5\n      jumpi\n      dup1\n      0x80f59a65\n      eq\n      tag_6\n      jumpi\n    tag_2:\n      0x00\n      dup1\n      revert\n        /* \"Governor.sol\":518:541  address[] public owners */\n    tag_3:\n      tag_13\n      0x04\n      dup1\n      calldatasize\n      sub\n      dup2\n      add\n      swap1\n      tag_14\n      swap2\n      swap1\n      tag_15\n      jump\t// in\n    tag_14:\n      tag_16\n      jump\t// in\n    tag_13:\n      mload(0x40)\n      tag_17\n      swap2\n      swap1\n      tag_18\n      jump\t// in\n    tag_17:\n      mload(0x40)\n      dup1\n      swap2\n      sub\n      swap1\n      return\n        /* \"Governor.sol\":548:587  mapping(address => bool) public isOwner */\n    tag_4:\n      tag_19\n      0x04\n      dup1\n      calldatasize\n      sub\n      dup2\n      add\n      swap1\n      tag_20\n      swap2\n      swap1\n      tag_21\n      jump\t// in\n    tag_20:\n      tag_22\n      jump\t// in\n    tag_19:\n      mload(0x40)\n      tag_23\n      swap2\n      swap1\n      tag_24\n      jump\t// in\n    tag_23:\n      mload(0x40)\n      dup1\n      swap2\n      sub\n      swap1\n      return\n        /* \"Governor.sol\":1619:2038  function submitTransaction(... */\n    tag_5:\n      tag_25\n      0x04\n      dup1\n      calldatasize\n      sub\n      dup2\n      add\n      swap1\n      tag_26\n      swap2\n      swap1\n      tag_27\n      jump\t// in\n    tag_26:\n      tag_28\n      jump\t// in\n    tag_25:\n      stop\n        /* \"Governor.sol\":628:688  mapping(uint => mapping(address => bool)) public isConfirmed */\n    tag_6:\n      tag_29\n      0x04\n      dup1\n      calldatasize\n      sub\n      dup2\n      add\n      swap1\n      tag_30\n      swap2\n      swap1\n      tag_31\n      jump\t// in\n    tag_30:\n      tag_32\n      jump\t// in\n    tag_29:\n      mload(0x40)\n      tag_33\n      swap2\n      swap1\n      tag_24\n      jump\t// in\n    tag_33:\n      mload(0x40)\n      dup1\n      swap2\n      sub\n      swap1\n      return\n        /* \"Governor.sol\":478:511  Transaction[] public transactions */\n    tag_7:\n      tag_34\n      0x04\n      dup1\n      calldatasize\n      sub\n      dup2\n      add\n      swap1\n      tag_35\n      swap2\n      swap1\n      tag_15\n      jump\t// in\n    tag_35:\n      tag_36\n      jump\t// in\n    tag_34:\n      mload(0x40)\n      tag_37\n      swap5\n      swap4\n      swap3\n      swap2\n      swap1\n      tag_38\n      jump\t// in\n    tag_37:\n      mload(0x40)\n      dup1\n      swap2\n      sub\n      swap1\n      return\n        /* \"Governor.sol\":2046:2401  function confirmTransaction(uint _txIndex)... */\n    tag_8:\n      tag_39\n      0x04\n      dup1\n      calldatasize\n      sub\n      dup2\n      add\n      swap1\n      tag_40\n      swap2\n      swap1\n      tag_15\n      jump\t// in\n    tag_40:\n      tag_41\n      jump\t// in\n    tag_39:\n      stop\n        /* \"Governor.sol\":695:731  uint public numConfirmationsRequired */\n    tag_9:\n      tag_42\n      tag_43\n      jump\t// in\n    tag_42:\n      mload(0x40)\n      tag_44\n      swap2\n      swap1\n      tag_45\n      jump\t// in\n    tag_44:\n      mload(0x40)\n      dup1\n      swap2\n      sub\n      swap1\n      return\n        /* \"Governor.sol\":450:471  address public target */\n    tag_10:\n      tag_46\n      tag_47\n      jump\t// in\n    tag_46:\n      mload(0x40)\n      tag_48\n      swap2\n      swap1\n      tag_18\n      jump\t// in\n    tag_48:\n      mload(0x40)\n      dup1\n      swap2\n      sub\n      swap1\n      return\n        /* \"Governor.sol\":2409:2935  function executeTransaction(uint _txIndex)... */\n    tag_11:\n      tag_49\n      0x04\n      dup1\n      calldatasize\n      sub\n      dup2\n      add\n      swap1\n      tag_50\n      swap2\n      swap1\n      tag_15\n      jump\t// in\n    tag_50:\n      tag_51\n      jump\t// in\n    tag_49:\n      stop\n        /* \"Governor.sol\":518:541  address[] public owners */\n    tag_16:\n      0x02\n      dup2\n      dup2\n      sload\n      dup2\n      lt\n      tag_52\n      jumpi\n      0x00\n      dup1\n      revert\n    tag_52:\n      swap1\n      0x00\n      mstore\n      keccak256(0x00, 0x20)\n      add\n      0x00\n      swap2\n      pop\n      sload\n      swap1\n      0x0100\n      exp\n      swap1\n      div\n      0xffffffffffffffffffffffffffffffffffffffff\n      and\n      dup2\n      jump\t// out\n        /* \"Governor.sol\":548:587  mapping(address => bool) public isOwner */\n    tag_22:\n      mstore(0x20, 0x03)\n      dup1\n      0x00\n      mstore\n      keccak256(0x00, 0x40)\n      0x00\n      swap2\n      pop\n      sload\n      swap1\n      0x0100\n      exp\n      swap1\n      div\n      0xff\n      and\n      dup2\n      jump\t// out\n        /* \"Governor.sol\":1619:2038  function submitTransaction(... */\n    tag_28:\n        /* \"Governor.sol\":1722:1734  uint txIndex */\n      0x00\n        /* \"Governor.sol\":1737:1749  transactions */\n      0x01\n        /* \"Governor.sol\":1737:1756  transactions.length */\n      dup1\n      sload\n      swap1\n      pop\n        /* \"Governor.sol\":1722:1756  uint txIndex = transactions.length */\n      swap1\n      pop\n        /* \"Governor.sol\":1769:1781  transactions */\n      0x01\n        /* \"Governor.sol\":1801:1963  Transaction({... */\n      mload(0x40)\n      dup1\n      0x80\n      add\n      0x40\n      mstore\n      dup1\n        /* \"Governor.sol\":1839:1845  _value */\n      dup6\n        /* \"Governor.sol\":1801:1963  Transaction({... */\n      dup2\n      mstore\n      0x20\n      add\n        /* \"Governor.sol\":1870:1875  _data */\n      dup5\n        /* \"Governor.sol\":1801:1963  Transaction({... */\n      dup2\n      mstore\n      0x20\n      add\n        /* \"Governor.sol\":1904:1909  false */\n      0x00\n        /* \"Governor.sol\":1801:1963  Transaction({... */\n      iszero\n      iszero\n      dup2\n      mstore\n      0x20\n      add\n        /* \"Governor.sol\":1946:1947  0 */\n      0x00\n        /* \"Governor.sol\":1801:1963  Transaction({... */\n      dup2\n      mstore\n      pop\n        /* \"Governor.sol\":1769:1974  transactions.push(... */\n      swap1\n      dup1\n      0x01\n      dup2\n      sload\n      add\n      dup1\n      dup3\n      sstore\n      dup1\n      swap2\n      pop\n      pop\n      0x01\n      swap1\n      sub\n      swap1\n      0x00\n      mstore\n      keccak256(0x00, 0x20)\n      swap1\n      0x04\n      mul\n      add\n      0x00\n      swap1\n      swap2\n      swap1\n      swap2\n      swap1\n      swap2\n      pop\n      0x00\n      dup3\n      add\n      mload\n      dup2\n      0x00\n      add\n      sstore\n      0x20\n      dup3\n      add\n      mload\n      dup2\n      0x01\n      add\n      swap1\n      dup1\n      mload\n      swap1\n      0x20\n      add\n      swap1\n      tag_56\n      swap3\n      swap2\n      swap1\n      tag_57\n      jump\t// in\n    tag_56:\n      pop\n      0x40\n      dup3\n      add\n      mload\n      dup2\n      0x02\n      add\n      exp(0x0100, 0x00)\n      dup2\n      sload\n      dup2\n      0xff\n      mul\n      not\n      and\n      swap1\n      dup4\n      iszero\n      iszero\n      mul\n      or\n      swap1\n      sstore\n      pop\n      0x60\n      dup3\n      add\n      mload\n      dup2\n      0x03\n      add\n      sstore\n      pop\n      pop\n        /* \"Governor.sol\":2022:2029  txIndex */\n      dup1\n        /* \"Governor.sol\":2010:2020  msg.sender */\n      caller\n        /* \"Governor.sol\":1992:2030  SubmitTransaction(msg.sender, txIndex) */\n      0xffffffffffffffffffffffffffffffffffffffff\n      and\n      0xc82555d64d2b8b25ffefc140ae6575736763ee3a99347632d7f633e7bfae3f78\n      mload(0x40)\n      mload(0x40)\n      dup1\n      swap2\n      sub\n      swap1\n      log3\n        /* \"Governor.sol\":1711:2038  {... */\n      pop\n        /* \"Governor.sol\":1619:2038  function submitTransaction(... */\n      pop\n      pop\n      jump\t// out\n        /* \"Governor.sol\":628:688  mapping(uint => mapping(address => bool)) public isConfirmed */\n    tag_32:\n      mstore(0x20, 0x04)\n      dup2\n      0x00\n      mstore\n      mstore(0x20, keccak256(0x00, 0x40))\n      dup1\n      0x00\n      mstore\n      keccak256(0x00, 0x40)\n      0x00\n      swap2\n      pop\n      swap2\n      pop\n      swap1\n      sload\n      swap1\n      0x0100\n      exp\n      swap1\n      div\n      0xff\n      and\n      dup2\n      jump\t// out\n        /* \"Governor.sol\":478:511  Transaction[] public transactions */\n    tag_36:\n      0x01\n      dup2\n      dup2\n      sload\n      dup2\n      lt\n      tag_58\n      jumpi\n      0x00\n      dup1\n      revert\n    tag_58:\n      swap1\n      0x00\n      mstore\n      keccak256(0x00, 0x20)\n      swap1\n      0x04\n      mul\n      add\n      0x00\n      swap2\n      pop\n      swap1\n      pop\n      dup1\n      0x00\n      add\n      sload\n      swap1\n      dup1\n      0x01\n      add\n      dup1\n      sload\n      tag_60\n      swap1\n      tag_61\n      jump\t// in\n    tag_60:\n      dup1\n      0x1f\n      add\n      0x20\n      dup1\n      swap2\n      div\n      mul\n      0x20\n      add\n      mload(0x40)\n      swap1\n      dup2\n      add\n      0x40\n      mstore\n      dup1\n      swap3\n      swap2\n      swap1\n      dup2\n      dup2\n      mstore\n      0x20\n      add\n      dup3\n      dup1\n      sload\n      tag_62\n      swap1\n      tag_61\n      jump\t// in\n    tag_62:\n      dup1\n      iszero\n      tag_63\n      jumpi\n      dup1\n      0x1f\n      lt\n      tag_64\n      jumpi\n      0x0100\n      dup1\n      dup4\n      sload\n      div\n      mul\n      dup4\n      mstore\n      swap2\n      0x20\n      add\n      swap2\n      jump(tag_63)\n    tag_64:\n      dup3\n      add\n      swap2\n      swap1\n      0x00\n      mstore\n      keccak256(0x00, 0x20)\n      swap1\n    tag_65:\n      dup2\n      sload\n      dup2\n      mstore\n      swap1\n      0x01\n      add\n      swap1\n      0x20\n      add\n      dup1\n      dup4\n      gt\n      tag_65\n      jumpi\n      dup3\n      swap1\n      sub\n      0x1f\n      and\n      dup3\n      add\n      swap2\n    tag_63:\n      pop\n      pop\n      pop\n      pop\n      pop\n      swap1\n      dup1\n      0x02\n      add\n      0x00\n      swap1\n      sload\n      swap1\n      0x0100\n      exp\n      swap1\n      div\n      0xff\n      and\n      swap1\n      dup1\n      0x03\n      add\n      sload\n      swap1\n      pop\n      dup5\n      jump\t// out\n        /* \"Governor.sol\":2046:2401  function confirmTransaction(uint _txIndex)... */\n    tag_41:\n        /* \"Governor.sol\":2126:2134  _txIndex */\n      dup1\n        /* \"Governor.sol\":901:913  transactions */\n      0x01\n        /* \"Governor.sol\":914:922  _txIndex */\n      dup2\n        /* \"Governor.sol\":901:923  transactions[_txIndex] */\n      dup2\n      sload\n      dup2\n      lt\n      tag_67\n      jumpi\n      tag_68\n      tag_69\n      jump\t// in\n    tag_68:\n    tag_67:\n      swap1\n      0x00\n      mstore\n      keccak256(0x00, 0x20)\n      swap1\n      0x04\n      mul\n      add\n        /* \"Governor.sol\":901:932  transactions[_txIndex].executed */\n      0x02\n      add\n      0x00\n      swap1\n      sload\n      swap1\n      0x0100\n      exp\n      swap1\n      div\n      0xff\n      and\n        /* \"Governor.sol\":900:932  !transactions[_txIndex].executed */\n      iszero\n        /* \"Governor.sol\":892:956  require(!transactions[_txIndex].executed, \"tx already executed\") */\n      tag_71\n      jumpi\n      mload(0x40)\n      0x08c379a000000000000000000000000000000000000000000000000000000000\n      dup2\n      mstore\n      0x04\n      add\n      tag_72\n      swap1\n      tag_73\n      jump\t// in\n    tag_72:\n      mload(0x40)\n      dup1\n      swap2\n      sub\n      swap1\n      revert\n    tag_71:\n        /* \"Governor.sol\":2158:2166  _txIndex */\n      dup2\n        /* \"Governor.sol\":1041:1052  isConfirmed */\n      0x04\n        /* \"Governor.sol\":1041:1062  isConfirmed[_txIndex] */\n      0x00\n        /* \"Governor.sol\":1053:1061  _txIndex */\n      dup3\n        /* \"Governor.sol\":1041:1062  isConfirmed[_txIndex] */\n      dup2\n      mstore\n      0x20\n      add\n      swap1\n      dup2\n      mstore\n      0x20\n      add\n      0x00\n      keccak256\n        /* \"Governor.sol\":1041:1074  isConfirmed[_txIndex][msg.sender] */\n      0x00\n        /* \"Governor.sol\":1063:1073  msg.sender */\n      caller\n        /* \"Governor.sol\":1041:1074  isConfirmed[_txIndex][msg.sender] */\n      0xffffffffffffffffffffffffffffffffffffffff\n      and\n      0xffffffffffffffffffffffffffffffffffffffff\n      and\n      dup2\n      mstore\n      0x20\n      add\n      swap1\n      dup2\n      mstore\n      0x20\n      add\n      0x00\n      keccak256\n      0x00\n      swap1\n      sload\n      swap1\n      0x0100\n      exp\n      swap1\n      div\n      0xff\n      and\n        /* \"Governor.sol\":1040:1074  !isConfirmed[_txIndex][msg.sender] */\n      iszero\n        /* \"Governor.sol\":1032:1099  require(!isConfirmed[_txIndex][msg.sender], \"tx already confirmed\") */\n      tag_75\n      jumpi\n      mload(0x40)\n      0x08c379a000000000000000000000000000000000000000000000000000000000\n      dup2\n      mstore\n      0x04\n      add\n      tag_76\n      swap1\n      tag_77\n      jump\t// in\n    tag_76:\n      mload(0x40)\n      dup1\n      swap2\n      sub\n      swap1\n      revert\n    tag_75:\n        /* \"Governor.sol\":2184:2215  Transaction storage transaction */\n      0x00\n        /* \"Governor.sol\":2218:2230  transactions */\n      0x01\n        /* \"Governor.sol\":2231:2239  _txIndex */\n      dup5\n        /* \"Governor.sol\":2218:2240  transactions[_txIndex] */\n      dup2\n      sload\n      dup2\n      lt\n      tag_79\n      jumpi\n      tag_80\n      tag_69\n      jump\t// in\n    tag_80:\n    tag_79:\n      swap1\n      0x00\n      mstore\n      keccak256(0x00, 0x20)\n      swap1\n      0x04\n      mul\n      add\n        /* \"Governor.sol\":2184:2240  Transaction storage transaction = transactions[_txIndex] */\n      swap1\n      pop\n        /* \"Governor.sol\":2283:2284  1 */\n      0x01\n        /* \"Governor.sol\":2251:2262  transaction */\n      dup2\n        /* \"Governor.sol\":2251:2279  transaction.numConfirmations */\n      0x03\n      add\n      0x00\n        /* \"Governor.sol\":2251:2284  transaction.numConfirmations += 1 */\n      dup3\n      dup3\n      sload\n      tag_82\n      swap2\n      swap1\n      tag_83\n      jump\t// in\n    tag_82:\n      swap3\n      pop\n      pop\n      dup2\n      swap1\n      sstore\n      pop\n        /* \"Governor.sol\":2331:2335  true */\n      0x01\n        /* \"Governor.sol\":2295:2306  isConfirmed */\n      0x04\n        /* \"Governor.sol\":2295:2316  isConfirmed[_txIndex] */\n      0x00\n        /* \"Governor.sol\":2307:2315  _txIndex */\n      dup7\n        /* \"Governor.sol\":2295:2316  isConfirmed[_txIndex] */\n      dup2\n      mstore\n      0x20\n      add\n      swap1\n      dup2\n      mstore\n      0x20\n      add\n      0x00\n      keccak256\n        /* \"Governor.sol\":2295:2328  isConfirmed[_txIndex][msg.sender] */\n      0x00\n        /* \"Governor.sol\":2317:2327  msg.sender */\n      caller\n        /* \"Governor.sol\":2295:2328  isConfirmed[_txIndex][msg.sender] */\n      0xffffffffffffffffffffffffffffffffffffffff\n      and\n      0xffffffffffffffffffffffffffffffffffffffff\n      and\n      dup2\n      mstore\n      0x20\n      add\n      swap1\n      dup2\n      mstore\n      0x20\n      add\n      0x00\n      keccak256\n      0x00\n        /* \"Governor.sol\":2295:2335  isConfirmed[_txIndex][msg.sender] = true */\n      0x0100\n      exp\n      dup2\n      sload\n      dup2\n      0xff\n      mul\n      not\n      and\n      swap1\n      dup4\n      iszero\n      iszero\n      mul\n      or\n      swap1\n      sstore\n      pop\n        /* \"Governor.sol\":2384:2392  _txIndex */\n      dup4\n        /* \"Governor.sol\":2372:2382  msg.sender */\n      caller\n        /* \"Governor.sol\":2353:2393  ConfirmTransaction(msg.sender, _txIndex) */\n      0xffffffffffffffffffffffffffffffffffffffff\n      and\n      0x5cbe105e36805f7820e291f799d5794ff948af2a5f664e580382defb63390041\n      mload(0x40)\n      mload(0x40)\n      dup1\n      swap2\n      sub\n      swap1\n      log3\n        /* \"Governor.sol\":2173:2401  {... */\n      pop\n        /* \"Governor.sol\":967:968  _ */\n      pop\n        /* \"Governor.sol\":2046:2401  function confirmTransaction(uint _txIndex)... */\n      pop\n      pop\n      jump\t// out\n        /* \"Governor.sol\":695:731  uint public numConfirmationsRequired */\n    tag_43:\n      sload(0x05)\n      dup2\n      jump\t// out\n        /* \"Governor.sol\":450:471  address public target */\n    tag_47:\n      0x00\n      dup1\n      sload\n      swap1\n      0x0100\n      exp\n      swap1\n      div\n      0xffffffffffffffffffffffffffffffffffffffff\n      and\n      dup2\n      jump\t// out\n        /* \"Governor.sol\":2409:2935  function executeTransaction(uint _txIndex)... */\n    tag_51:\n        /* \"Governor.sol\":2489:2497  _txIndex */\n      dup1\n        /* \"Governor.sol\":901:913  transactions */\n      0x01\n        /* \"Governor.sol\":914:922  _txIndex */\n      dup2\n        /* \"Governor.sol\":901:923  transactions[_txIndex] */\n      dup2\n      sload\n      dup2\n      lt\n      tag_85\n      jumpi\n      tag_86\n      tag_69\n      jump\t// in\n    tag_86:\n    tag_85:\n      swap1\n      0x00\n      mstore\n      keccak256(0x00, 0x20)\n      swap1\n      0x04\n      mul\n      add\n        /* \"Governor.sol\":901:932  transactions[_txIndex].executed */\n      0x02\n      add\n      0x00\n      swap1\n      sload\n      swap1\n      0x0100\n      exp\n      swap1\n      div\n      0xff\n      and\n        /* \"Governor.sol\":900:932  !transactions[_txIndex].executed */\n      iszero\n        /* \"Governor.sol\":892:956  require(!transactions[_txIndex].executed, \"tx already executed\") */\n      tag_88\n      jumpi\n      mload(0x40)\n      0x08c379a000000000000000000000000000000000000000000000000000000000\n      dup2\n      mstore\n      0x04\n      add\n      tag_89\n      swap1\n      tag_73\n      jump\t// in\n    tag_89:\n      mload(0x40)\n      dup1\n      swap2\n      sub\n      swap1\n      revert\n    tag_88:\n        /* \"Governor.sol\":2515:2546  Transaction storage transaction */\n      0x00\n        /* \"Governor.sol\":2549:2561  transactions */\n      0x01\n        /* \"Governor.sol\":2562:2570  _txIndex */\n      dup4\n        /* \"Governor.sol\":2549:2571  transactions[_txIndex] */\n      dup2\n      sload\n      dup2\n      lt\n      tag_91\n      jumpi\n      tag_92\n      tag_69\n      jump\t// in\n    tag_92:\n    tag_91:\n      swap1\n      0x00\n      mstore\n      keccak256(0x00, 0x20)\n      swap1\n      0x04\n      mul\n      add\n        /* \"Governor.sol\":2515:2571  Transaction storage transaction = transactions[_txIndex] */\n      swap1\n      pop\n        /* \"Governor.sol\":2638:2662  numConfirmationsRequired */\n      sload(0x05)\n        /* \"Governor.sol\":2606:2617  transaction */\n      dup2\n        /* \"Governor.sol\":2606:2634  transaction.numConfirmations */\n      0x03\n      add\n      sload\n        /* \"Governor.sol\":2606:2662  transaction.numConfirmations >= numConfirmationsRequired */\n      lt\n      iszero\n        /* \"Governor.sol\":2584:2707  require(... */\n      tag_94\n      jumpi\n      mload(0x40)\n      0x08c379a000000000000000000000000000000000000000000000000000000000\n      dup2\n      mstore\n      0x04\n      add\n      tag_95\n      swap1\n      tag_96\n      jump\t// in\n    tag_95:\n      mload(0x40)\n      dup1\n      swap2\n      sub\n      swap1\n      revert\n    tag_94:\n        /* \"Governor.sol\":2743:2747  true */\n      0x01\n        /* \"Governor.sol\":2720:2731  transaction */\n      dup2\n        /* \"Governor.sol\":2720:2740  transaction.executed */\n      0x02\n      add\n      0x00\n        /* \"Governor.sol\":2720:2747  transaction.executed = true */\n      0x0100\n      exp\n      dup2\n      sload\n      dup2\n      0xff\n      mul\n      not\n      and\n      swap1\n      dup4\n      iszero\n      iszero\n      mul\n      or\n      swap1\n      sstore\n      pop\n        /* \"Governor.sol\":2761:2773  bool success */\n      0x00\n        /* \"Governor.sol\":2779:2785  target */\n      dup1\n      0x00\n      swap1\n      sload\n      swap1\n      0x0100\n      exp\n      swap1\n      div\n      0xffffffffffffffffffffffffffffffffffffffff\n      and\n        /* \"Governor.sol\":2779:2790  target.call */\n      0xffffffffffffffffffffffffffffffffffffffff\n      and\n        /* \"Governor.sol\":2791:2828  abi.encodeWithSignature(\"withdraw()\") */\n      add(0x24, mload(0x40))\n      mload(0x40)\n      0x20\n      dup2\n      dup4\n      sub\n      sub\n      dup2\n      mstore\n      swap1\n      0x40\n      mstore\n      and(not(0xffffffffffffffffffffffffffffffffffffffffffffffffffffffff), 0x3ccfd60b00000000000000000000000000000000000000000000000000000000)\n      0x20\n      dup3\n      add\n      dup1\n      mload\n      0xffffffffffffffffffffffffffffffffffffffffffffffffffffffff\n      dup4\n      dup2\n      dup4\n      and\n      or\n      dup4\n      mstore\n      pop\n      pop\n      pop\n      pop\n        /* \"Governor.sol\":2779:2829  target.call(abi.encodeWithSignature(\"withdraw()\")) */\n      mload(0x40)\n      tag_97\n      swap2\n      swap1\n      tag_98\n      jump\t// in\n    tag_97:\n      0x00\n      mload(0x40)\n      dup1\n      dup4\n      sub\n      dup2\n      0x00\n      dup7\n      gas\n      call\n      swap2\n      pop\n      pop\n      returndatasize\n      dup1\n      0x00\n      dup2\n      eq\n      tag_101\n      jumpi\n      mload(0x40)\n      swap2\n      pop\n      and(add(returndatasize, 0x3f), not(0x1f))\n      dup3\n      add\n      0x40\n      mstore\n      returndatasize\n      dup3\n      mstore\n      returndatasize\n      0x00\n      0x20\n      dup5\n      add\n      returndatacopy\n      jump(tag_100)\n    tag_101:\n      0x60\n      swap2\n      pop\n    tag_100:\n      pop\n        /* \"Governor.sol\":2760:2829  (bool success, ) = target.call(abi.encodeWithSignature(\"withdraw()\")) */\n      pop\n      swap1\n      pop\n        /* \"Governor.sol\":2848:2855  success */\n      dup1\n        /* \"Governor.sol\":2840:2869  require(success, \"tx failed\") */\n      tag_102\n      jumpi\n      mload(0x40)\n      0x08c379a000000000000000000000000000000000000000000000000000000000\n      dup2\n      mstore\n      0x04\n      add\n      tag_103\n      swap1\n      tag_104\n      jump\t// in\n    tag_103:\n      mload(0x40)\n      dup1\n      swap2\n      sub\n      swap1\n      revert\n    tag_102:\n        /* \"Governor.sol\":2918:2926  _txIndex */\n      dup4\n        /* \"Governor.sol\":2906:2916  msg.sender */\n      caller\n        /* \"Governor.sol\":2887:2927  ExecuteTransaction(msg.sender, _txIndex) */\n      0xffffffffffffffffffffffffffffffffffffffff\n      and\n      0x5445f318f4f5fcfb66592e68e0cc5822aa15664039bd5f0ffde24c5a8142b1ac\n      mload(0x40)\n      mload(0x40)\n      dup1\n      swap2\n      sub\n      swap1\n      log3\n        /* \"Governor.sol\":2504:2935  {... */\n      pop\n      pop\n        /* \"Governor.sol\":2409:2935  function executeTransaction(uint _txIndex)... */\n      pop\n      pop\n      jump\t// out\n    tag_57:\n      dup3\n      dup1\n      sload\n      tag_105\n      swap1\n      tag_61\n      jump\t// in\n    tag_105:\n      swap1\n      0x00\n      mstore\n      keccak256(0x00, 0x20)\n      swap1\n      0x1f\n      add\n      0x20\n      swap1\n      div\n      dup2\n      add\n      swap3\n      dup3\n      tag_107\n      jumpi\n      0x00\n      dup6\n      sstore\n      jump(tag_106)\n    tag_107:\n      dup3\n      0x1f\n      lt\n      tag_108\n      jumpi\n      dup1\n      mload\n      not(0xff)\n      and\n      dup4\n      dup1\n      add\n      or\n      dup6\n      sstore\n      jump(tag_106)\n    tag_108:\n      dup3\n      dup1\n      add\n      0x01\n      add\n      dup6\n      sstore\n      dup3\n      iszero\n      tag_106\n      jumpi\n      swap2\n      dup3\n      add\n    tag_109:\n      dup3\n      dup2\n      gt\n      iszero\n      tag_110\n      jumpi\n      dup3\n      mload\n      dup3\n      sstore\n      swap2\n      0x20\n      add\n      swap2\n      swap1\n      0x01\n      add\n      swap1\n      jump(tag_109)\n    tag_110:\n    tag_106:\n      pop\n      swap1\n      pop\n      tag_111\n      swap2\n      swap1\n      tag_112\n      jump\t// in\n    tag_111:\n      pop\n      swap1\n      jump\t// out\n    tag_112:\n    tag_113:\n      dup1\n      dup3\n      gt\n      iszero\n      tag_114\n      jumpi\n      0x00\n      dup2\n      0x00\n      swap1\n      sstore\n      pop\n      0x01\n      add\n      jump(tag_113)\n    tag_114:\n      pop\n      swap1\n      jump\t// out\n        /* \"#utility.yul\":7:82   */\n    tag_115:\n        /* \"#utility.yul\":40:46   */\n      0x00\n        /* \"#utility.yul\":73:75   */\n      0x40\n        /* \"#utility.yul\":67:76   */\n      mload\n        /* \"#utility.yul\":57:76   */\n      swap1\n      pop\n        /* \"#utility.yul\":7:82   */\n      swap1\n      jump\t// out\n        /* \"#utility.yul\":88:205   */\n    tag_116:\n        /* \"#utility.yul\":197:198   */\n      0x00\n        /* \"#utility.yul\":194:195   */\n      dup1\n        /* \"#utility.yul\":187:199   */\n      revert\n        /* \"#utility.yul\":211:328   */\n    tag_117:\n        /* \"#utility.yul\":320:321   */\n      0x00\n        /* \"#utility.yul\":317:318   */\n      dup1\n        /* \"#utility.yul\":310:322   */\n      revert\n        /* \"#utility.yul\":334:411   */\n    tag_118:\n        /* \"#utility.yul\":371:378   */\n      0x00\n        /* \"#utility.yul\":400:405   */\n      dup2\n        /* \"#utility.yul\":389:405   */\n      swap1\n      pop\n        /* \"#utility.yul\":334:411   */\n      swap2\n      swap1\n      pop\n      jump\t// out\n        /* \"#utility.yul\":417:539   */\n    tag_119:\n        /* \"#utility.yul\":490:514   */\n      tag_162\n        /* \"#utility.yul\":508:513   */\n      dup2\n        /* \"#utility.yul\":490:514   */\n      tag_118\n      jump\t// in\n    tag_162:\n        /* \"#utility.yul\":483:488   */\n      dup2\n        /* \"#utility.yul\":480:515   */\n      eq\n        /* \"#utility.yul\":470:533   */\n      tag_163\n      jumpi\n        /* \"#utility.yul\":529:530   */\n      0x00\n        /* \"#utility.yul\":526:527   */\n      dup1\n        /* \"#utility.yul\":519:531   */\n      revert\n        /* \"#utility.yul\":470:533   */\n    tag_163:\n        /* \"#utility.yul\":417:539   */\n      pop\n      jump\t// out\n        /* \"#utility.yul\":545:684   */\n    tag_120:\n        /* \"#utility.yul\":591:596   */\n      0x00\n        /* \"#utility.yul\":629:635   */\n      dup2\n        /* \"#utility.yul\":616:636   */\n      calldataload\n        /* \"#utility.yul\":607:636   */\n      swap1\n      pop\n        /* \"#utility.yul\":645:678   */\n      tag_165\n        /* \"#utility.yul\":672:677   */\n      dup2\n        /* \"#utility.yul\":645:678   */\n      tag_119\n      jump\t// in\n    tag_165:\n        /* \"#utility.yul\":545:684   */\n      swap3\n      swap2\n      pop\n      pop\n      jump\t// out\n        /* \"#utility.yul\":690:1019   */\n    tag_15:\n        /* \"#utility.yul\":749:755   */\n      0x00\n        /* \"#utility.yul\":798:800   */\n      0x20\n        /* \"#utility.yul\":786:795   */\n      dup3\n        /* \"#utility.yul\":777:784   */\n      dup5\n        /* \"#utility.yul\":773:796   */\n      sub\n        /* \"#utility.yul\":769:801   */\n      slt\n        /* \"#utility.yul\":766:885   */\n      iszero\n      tag_167\n      jumpi\n        /* \"#utility.yul\":804:883   */\n      tag_168\n      tag_116\n      jump\t// in\n    tag_168:\n        /* \"#utility.yul\":766:885   */\n    tag_167:\n        /* \"#utility.yul\":924:925   */\n      0x00\n        /* \"#utility.yul\":949:1002   */\n      tag_169\n        /* \"#utility.yul\":994:1001   */\n      dup5\n        /* \"#utility.yul\":985:991   */\n      dup3\n        /* \"#utility.yul\":974:983   */\n      dup6\n        /* \"#utility.yul\":970:992   */\n      add\n        /* \"#utility.yul\":949:1002   */\n      tag_120\n      jump\t// in\n    tag_169:\n        /* \"#utility.yul\":939:1002   */\n      swap2\n      pop\n        /* \"#utility.yul\":895:1012   */\n      pop\n        /* \"#utility.yul\":690:1019   */\n      swap3\n      swap2\n      pop\n      pop\n      jump\t// out\n        /* \"#utility.yul\":1025:1151   */\n    tag_121:\n        /* \"#utility.yul\":1062:1069   */\n      0x00\n        /* \"#utility.yul\":1102:1144   */\n      0xffffffffffffffffffffffffffffffffffffffff\n        /* \"#utility.yul\":1095:1100   */\n      dup3\n        /* \"#utility.yul\":1091:1145   */\n      and\n        /* \"#utility.yul\":1080:1145   */\n      swap1\n      pop\n        /* \"#utility.yul\":1025:1151   */\n      swap2\n      swap1\n      pop\n      jump\t// out\n        /* \"#utility.yul\":1157:1253   */\n    tag_122:\n        /* \"#utility.yul\":1194:1201   */\n      0x00\n        /* \"#utility.yul\":1223:1247   */\n      tag_172\n        /* \"#utility.yul\":1241:1246   */\n      dup3\n        /* \"#utility.yul\":1223:1247   */\n      tag_121\n      jump\t// in\n    tag_172:\n        /* \"#utility.yul\":1212:1247   */\n      swap1\n      pop\n        /* \"#utility.yul\":1157:1253   */\n      swap2\n      swap1\n      pop\n      jump\t// out\n        /* \"#utility.yul\":1259:1377   */\n    tag_123:\n        /* \"#utility.yul\":1346:1370   */\n      tag_174\n        /* \"#utility.yul\":1364:1369   */\n      dup2\n        /* \"#utility.yul\":1346:1370   */\n      tag_122\n      jump\t// in\n    tag_174:\n        /* \"#utility.yul\":1341:1344   */\n      dup3\n        /* \"#utility.yul\":1334:1371   */\n      mstore\n        /* \"#utility.yul\":1259:1377   */\n      pop\n      pop\n      jump\t// out\n        /* \"#utility.yul\":1383:1605   */\n    tag_18:\n        /* \"#utility.yul\":1476:1480   */\n      0x00\n        /* \"#utility.yul\":1514:1516   */\n      0x20\n        /* \"#utility.yul\":1503:1512   */\n      dup3\n        /* \"#utility.yul\":1499:1517   */\n      add\n        /* \"#utility.yul\":1491:1517   */\n      swap1\n      pop\n        /* \"#utility.yul\":1527:1598   */\n      tag_176\n        /* \"#utility.yul\":1595:1596   */\n      0x00\n        /* \"#utility.yul\":1584:1593   */\n      dup4\n        /* \"#utility.yul\":1580:1597   */\n      add\n        /* \"#utility.yul\":1571:1577   */\n      dup5\n        /* \"#utility.yul\":1527:1598   */\n      tag_123\n      jump\t// in\n    tag_176:\n        /* \"#utility.yul\":1383:1605   */\n      swap3\n      swap2\n      pop\n      pop\n      jump\t// out\n        /* \"#utility.yul\":1611:1733   */\n    tag_124:\n        /* \"#utility.yul\":1684:1708   */\n      tag_178\n        /* \"#utility.yul\":1702:1707   */\n      dup2\n        /* \"#utility.yul\":1684:1708   */\n      tag_122\n      jump\t// in\n    tag_178:\n        /* \"#utility.yul\":1677:1682   */\n      dup2\n        /* \"#utility.yul\":1674:1709   */\n      eq\n        /* \"#utility.yul\":1664:1727   */\n      tag_179\n      jumpi\n        /* \"#utility.yul\":1723:1724   */\n      0x00\n        /* \"#utility.yul\":1720:1721   */\n      dup1\n        /* \"#utility.yul\":1713:1725   */\n      revert\n        /* \"#utility.yul\":1664:1727   */\n    tag_179:\n        /* \"#utility.yul\":1611:1733   */\n      pop\n      jump\t// out\n        /* \"#utility.yul\":1739:1878   */\n    tag_125:\n        /* \"#utility.yul\":1785:1790   */\n      0x00\n        /* \"#utility.yul\":1823:1829   */\n      dup2\n        /* \"#utility.yul\":1810:1830   */\n      calldataload\n        /* \"#utility.yul\":1801:1830   */\n      swap1\n      pop\n        /* \"#utility.yul\":1839:1872   */\n      tag_181\n        /* \"#utility.yul\":1866:1871   */\n      dup2\n        /* \"#utility.yul\":1839:1872   */\n      tag_124\n      jump\t// in\n    tag_181:\n        /* \"#utility.yul\":1739:1878   */\n      swap3\n      swap2\n      pop\n      pop\n      jump\t// out\n        /* \"#utility.yul\":1884:2213   */\n    tag_21:\n        /* \"#utility.yul\":1943:1949   */\n      0x00\n        /* \"#utility.yul\":1992:1994   */\n      0x20\n        /* \"#utility.yul\":1980:1989   */\n      dup3\n        /* \"#utility.yul\":1971:1978   */\n      dup5\n        /* \"#utility.yul\":1967:1990   */\n      sub\n        /* \"#utility.yul\":1963:1995   */\n      slt\n        /* \"#utility.yul\":1960:2079   */\n      iszero\n      tag_183\n      jumpi\n        /* \"#utility.yul\":1998:2077   */\n      tag_184\n      tag_116\n      jump\t// in\n    tag_184:\n        /* \"#utility.yul\":1960:2079   */\n    tag_183:\n        /* \"#utility.yul\":2118:2119   */\n      0x00\n        /* \"#utility.yul\":2143:2196   */\n      tag_185\n        /* \"#utility.yul\":2188:2195   */\n      dup5\n        /* \"#utility.yul\":2179:2185   */\n      dup3\n        /* \"#utility.yul\":2168:2177   */\n      dup6\n        /* \"#utility.yul\":2164:2186   */\n      add\n        /* \"#utility.yul\":2143:2196   */\n      tag_125\n      jump\t// in\n    tag_185:\n        /* \"#utility.yul\":2133:2196   */\n      swap2\n      pop\n        /* \"#utility.yul\":2089:2206   */\n      pop\n        /* \"#utility.yul\":1884:2213   */\n      swap3\n      swap2\n      pop\n      pop\n      jump\t// out\n        /* \"#utility.yul\":2219:2309   */\n    tag_126:\n        /* \"#utility.yul\":2253:2260   */\n      0x00\n        /* \"#utility.yul\":2296:2301   */\n      dup2\n        /* \"#utility.yul\":2289:2302   */\n      iszero\n        /* \"#utility.yul\":2282:2303   */\n      iszero\n        /* \"#utility.yul\":2271:2303   */\n      swap1\n      pop\n        /* \"#utility.yul\":2219:2309   */\n      swap2\n      swap1\n      pop\n      jump\t// out\n        /* \"#utility.yul\":2315:2424   */\n    tag_127:\n        /* \"#utility.yul\":2396:2417   */\n      tag_188\n        /* \"#utility.yul\":2411:2416   */\n      dup2\n        /* \"#utility.yul\":2396:2417   */\n      tag_126\n      jump\t// in\n    tag_188:\n        /* \"#utility.yul\":2391:2394   */\n      dup3\n        /* \"#utility.yul\":2384:2418   */\n      mstore\n        /* \"#utility.yul\":2315:2424   */\n      pop\n      pop\n      jump\t// out\n        /* \"#utility.yul\":2430:2640   */\n    tag_24:\n        /* \"#utility.yul\":2517:2521   */\n      0x00\n        /* \"#utility.yul\":2555:2557   */\n      0x20\n        /* \"#utility.yul\":2544:2553   */\n      dup3\n        /* \"#utility.yul\":2540:2558   */\n      add\n        /* \"#utility.yul\":2532:2558   */\n      swap1\n      pop\n        /* \"#utility.yul\":2568:2633   */\n      tag_190\n        /* \"#utility.yul\":2630:2631   */\n      0x00\n        /* \"#utility.yul\":2619:2628   */\n      dup4\n        /* \"#utility.yul\":2615:2632   */\n      add\n        /* \"#utility.yul\":2606:2612   */\n      dup5\n        /* \"#utility.yul\":2568:2633   */\n      tag_127\n      jump\t// in\n    tag_190:\n        /* \"#utility.yul\":2430:2640   */\n      swap3\n      swap2\n      pop\n      pop\n      jump\t// out\n        /* \"#utility.yul\":2646:2763   */\n    tag_128:\n        /* \"#utility.yul\":2755:2756   */\n      0x00\n        /* \"#utility.yul\":2752:2753   */\n      dup1\n        /* \"#utility.yul\":2745:2757   */\n      revert\n        /* \"#utility.yul\":2769:2886   */\n    tag_129:\n        /* \"#utility.yul\":2878:2879   */\n      0x00\n        /* \"#utility.yul\":2875:2876   */\n      dup1\n        /* \"#utility.yul\":2868:2880   */\n      revert\n        /* \"#utility.yul\":2892:2994   */\n    tag_130:\n        /* \"#utility.yul\":2933:2939   */\n      0x00\n        /* \"#utility.yul\":2984:2986   */\n      0x1f\n        /* \"#utility.yul\":2980:2987   */\n      not\n        /* \"#utility.yul\":2975:2977   */\n      0x1f\n        /* \"#utility.yul\":2968:2973   */\n      dup4\n        /* \"#utility.yul\":2964:2978   */\n      add\n        /* \"#utility.yul\":2960:2988   */\n      and\n        /* \"#utility.yul\":2950:2988   */\n      swap1\n      pop\n        /* \"#utility.yul\":2892:2994   */\n      swap2\n      swap1\n      pop\n      jump\t// out\n        /* \"#utility.yul\":3000:3180   */\n    tag_131:\n        /* \"#utility.yul\":3048:3125   */\n      0x4e487b7100000000000000000000000000000000000000000000000000000000\n        /* \"#utility.yul\":3045:3046   */\n      0x00\n        /* \"#utility.yul\":3038:3126   */\n      mstore\n        /* \"#utility.yul\":3145:3149   */\n      0x41\n        /* \"#utility.yul\":3142:3143   */\n      0x04\n        /* \"#utility.yul\":3135:3150   */\n      mstore\n        /* \"#utility.yul\":3169:3173   */\n      0x24\n        /* \"#utility.yul\":3166:3167   */\n      0x00\n        /* \"#utility.yul\":3159:3174   */\n      revert\n        /* \"#utility.yul\":3186:3467   */\n    tag_132:\n        /* \"#utility.yul\":3269:3296   */\n      tag_196\n        /* \"#utility.yul\":3291:3295   */\n      dup3\n        /* \"#utility.yul\":3269:3296   */\n      tag_130\n      jump\t// in\n    tag_196:\n        /* \"#utility.yul\":3261:3267   */\n      dup2\n        /* \"#utility.yul\":3257:3297   */\n      add\n        /* \"#utility.yul\":3399:3405   */\n      dup2\n        /* \"#utility.yul\":3387:3397   */\n      dup2\n        /* \"#utility.yul\":3384:3406   */\n      lt\n        /* \"#utility.yul\":3363:3381   */\n      0xffffffffffffffff\n        /* \"#utility.yul\":3351:3361   */\n      dup3\n        /* \"#utility.yul\":3348:3382   */\n      gt\n        /* \"#utility.yul\":3345:3407   */\n      or\n        /* \"#utility.yul\":3342:3430   */\n      iszero\n      tag_197\n      jumpi\n        /* \"#utility.yul\":3410:3428   */\n      tag_198\n      tag_131\n      jump\t// in\n    tag_198:\n        /* \"#utility.yul\":3342:3430   */\n    tag_197:\n        /* \"#utility.yul\":3450:3460   */\n      dup1\n        /* \"#utility.yul\":3446:3448   */\n      0x40\n        /* \"#utility.yul\":3439:3461   */\n      mstore\n        /* \"#utility.yul\":3229:3467   */\n      pop\n        /* \"#utility.yul\":3186:3467   */\n      pop\n      pop\n      jump\t// out\n        /* \"#utility.yul\":3473:3602   */\n    tag_133:\n        /* \"#utility.yul\":3507:3513   */\n      0x00\n        /* \"#utility.yul\":3534:3554   */\n      tag_200\n      tag_115\n      jump\t// in\n    tag_200:\n        /* \"#utility.yul\":3524:3554   */\n      swap1\n      pop\n        /* \"#utility.yul\":3563:3596   */\n      tag_201\n        /* \"#utility.yul\":3591:3595   */\n      dup3\n        /* \"#utility.yul\":3583:3589   */\n      dup3\n        /* \"#utility.yul\":3563:3596   */\n      tag_132\n      jump\t// in\n    tag_201:\n        /* \"#utility.yul\":3473:3602   */\n      swap2\n      swap1\n      pop\n      jump\t// out\n        /* \"#utility.yul\":3608:3915   */\n    tag_134:\n        /* \"#utility.yul\":3669:3673   */\n      0x00\n        /* \"#utility.yul\":3759:3777   */\n      0xffffffffffffffff\n        /* \"#utility.yul\":3751:3757   */\n      dup3\n        /* \"#utility.yul\":3748:3778   */\n      gt\n        /* \"#utility.yul\":3745:3801   */\n      iszero\n      tag_203\n      jumpi\n        /* \"#utility.yul\":3781:3799   */\n      tag_204\n      tag_131\n      jump\t// in\n    tag_204:\n        /* \"#utility.yul\":3745:3801   */\n    tag_203:\n        /* \"#utility.yul\":3819:3848   */\n      tag_205\n        /* \"#utility.yul\":3841:3847   */\n      dup3\n        /* \"#utility.yul\":3819:3848   */\n      tag_130\n      jump\t// in\n    tag_205:\n        /* \"#utility.yul\":3811:3848   */\n      swap1\n      pop\n        /* \"#utility.yul\":3903:3907   */\n      0x20\n        /* \"#utility.yul\":3897:3901   */\n      dup2\n        /* \"#utility.yul\":3893:3908   */\n      add\n        /* \"#utility.yul\":3885:3908   */\n      swap1\n      pop\n        /* \"#utility.yul\":3608:3915   */\n      swap2\n      swap1\n      pop\n      jump\t// out\n        /* \"#utility.yul\":3921:4075   */\n    tag_135:\n        /* \"#utility.yul\":4005:4011   */\n      dup3\n        /* \"#utility.yul\":4000:4003   */\n      dup2\n        /* \"#utility.yul\":3995:3998   */\n      dup4\n        /* \"#utility.yul\":3982:4012   */\n      calldatacopy\n        /* \"#utility.yul\":4067:4068   */\n      0x00\n        /* \"#utility.yul\":4058:4064   */\n      dup4\n        /* \"#utility.yul\":4053:4056   */\n      dup4\n        /* \"#utility.yul\":4049:4065   */\n      add\n        /* \"#utility.yul\":4042:4069   */\n      mstore\n        /* \"#utility.yul\":3921:4075   */\n      pop\n      pop\n      pop\n      jump\t// out\n        /* \"#utility.yul\":4081:4491   */\n    tag_136:\n        /* \"#utility.yul\":4158:4163   */\n      0x00\n        /* \"#utility.yul\":4183:4248   */\n      tag_208\n        /* \"#utility.yul\":4199:4247   */\n      tag_209\n        /* \"#utility.yul\":4240:4246   */\n      dup5\n        /* \"#utility.yul\":4199:4247   */\n      tag_134\n      jump\t// in\n    tag_209:\n        /* \"#utility.yul\":4183:4248   */\n      tag_133\n      jump\t// in\n    tag_208:\n        /* \"#utility.yul\":4174:4248   */\n      swap1\n      pop\n        /* \"#utility.yul\":4271:4277   */\n      dup3\n        /* \"#utility.yul\":4264:4269   */\n      dup2\n        /* \"#utility.yul\":4257:4278   */\n      mstore\n        /* \"#utility.yul\":4309:4313   */\n      0x20\n        /* \"#utility.yul\":4302:4307   */\n      dup2\n        /* \"#utility.yul\":4298:4314   */\n      add\n        /* \"#utility.yul\":4347:4350   */\n      dup5\n        /* \"#utility.yul\":4338:4344   */\n      dup5\n        /* \"#utility.yul\":4333:4336   */\n      dup5\n        /* \"#utility.yul\":4329:4345   */\n      add\n        /* \"#utility.yul\":4326:4351   */\n      gt\n        /* \"#utility.yul\":4323:4435   */\n      iszero\n      tag_210\n      jumpi\n        /* \"#utility.yul\":4354:4433   */\n      tag_211\n      tag_129\n      jump\t// in\n    tag_211:\n        /* \"#utility.yul\":4323:4435   */\n    tag_210:\n        /* \"#utility.yul\":4444:4485   */\n      tag_212\n        /* \"#utility.yul\":4478:4484   */\n      dup5\n        /* \"#utility.yul\":4473:4476   */\n      dup3\n        /* \"#utility.yul\":4468:4471   */\n      dup6\n        /* \"#utility.yul\":4444:4485   */\n      tag_135\n      jump\t// in\n    tag_212:\n        /* \"#utility.yul\":4164:4491   */\n      pop\n        /* \"#utility.yul\":4081:4491   */\n      swap4\n      swap3\n      pop\n      pop\n      pop\n      jump\t// out\n        /* \"#utility.yul\":4510:4848   */\n    tag_137:\n        /* \"#utility.yul\":4565:4570   */\n      0x00\n        /* \"#utility.yul\":4614:4617   */\n      dup3\n        /* \"#utility.yul\":4607:4611   */\n      0x1f\n        /* \"#utility.yul\":4599:4605   */\n      dup4\n        /* \"#utility.yul\":4595:4612   */\n      add\n        /* \"#utility.yul\":4591:4618   */\n      slt\n        /* \"#utility.yul\":4581:4703   */\n      tag_214\n      jumpi\n        /* \"#utility.yul\":4622:4701   */\n      tag_215\n      tag_128\n      jump\t// in\n    tag_215:\n        /* \"#utility.yul\":4581:4703   */\n    tag_214:\n        /* \"#utility.yul\":4739:4745   */\n      dup2\n        /* \"#utility.yul\":4726:4746   */\n      calldataload\n        /* \"#utility.yul\":4764:4842   */\n      tag_216\n        /* \"#utility.yul\":4838:4841   */\n      dup5\n        /* \"#utility.yul\":4830:4836   */\n      dup3\n        /* \"#utility.yul\":4823:4827   */\n      0x20\n        /* \"#utility.yul\":4815:4821   */\n      dup7\n        /* \"#utility.yul\":4811:4828   */\n      add\n        /* \"#utility.yul\":4764:4842   */\n      tag_136\n      jump\t// in\n    tag_216:\n        /* \"#utility.yul\":4755:4842   */\n      swap2\n      pop\n        /* \"#utility.yul\":4571:4848   */\n      pop\n        /* \"#utility.yul\":4510:4848   */\n      swap3\n      swap2\n      pop\n      pop\n      jump\t// out\n        /* \"#utility.yul\":4854:5506   */\n    tag_27:\n        /* \"#utility.yul\":4931:4937   */\n      0x00\n        /* \"#utility.yul\":4939:4945   */\n      dup1\n        /* \"#utility.yul\":4988:4990   */\n      0x40\n        /* \"#utility.yul\":4976:4985   */\n      dup4\n        /* \"#utility.yul\":4967:4974   */\n      dup6\n        /* \"#utility.yul\":4963:4986   */\n      sub\n        /* \"#utility.yul\":4959:4991   */\n      slt\n        /* \"#utility.yul\":4956:5075   */\n      iszero\n      tag_218\n      jumpi\n        /* \"#utility.yul\":4994:5073   */\n      tag_219\n      tag_116\n      jump\t// in\n    tag_219:\n        /* \"#utility.yul\":4956:5075   */\n    tag_218:\n        /* \"#utility.yul\":5114:5115   */\n      0x00\n        /* \"#utility.yul\":5139:5192   */\n      tag_220\n        /* \"#utility.yul\":5184:5191   */\n      dup6\n        /* \"#utility.yul\":5175:5181   */\n      dup3\n        /* \"#utility.yul\":5164:5173   */\n      dup7\n        /* \"#utility.yul\":5160:5182   */\n      add\n        /* \"#utility.yul\":5139:5192   */\n      tag_120\n      jump\t// in\n    tag_220:\n        /* \"#utility.yul\":5129:5192   */\n      swap3\n      pop\n        /* \"#utility.yul\":5085:5202   */\n      pop\n        /* \"#utility.yul\":5269:5271   */\n      0x20\n        /* \"#utility.yul\":5258:5267   */\n      dup4\n        /* \"#utility.yul\":5254:5272   */\n      add\n        /* \"#utility.yul\":5241:5273   */\n      calldataload\n        /* \"#utility.yul\":5300:5318   */\n      0xffffffffffffffff\n        /* \"#utility.yul\":5292:5298   */\n      dup2\n        /* \"#utility.yul\":5289:5319   */\n      gt\n        /* \"#utility.yul\":5286:5403   */\n      iszero\n      tag_221\n      jumpi\n        /* \"#utility.yul\":5322:5401   */\n      tag_222\n      tag_117\n      jump\t// in\n    tag_222:\n        /* \"#utility.yul\":5286:5403   */\n    tag_221:\n        /* \"#utility.yul\":5427:5489   */\n      tag_223\n        /* \"#utility.yul\":5481:5488   */\n      dup6\n        /* \"#utility.yul\":5472:5478   */\n      dup3\n        /* \"#utility.yul\":5461:5470   */\n      dup7\n        /* \"#utility.yul\":5457:5479   */\n      add\n        /* \"#utility.yul\":5427:5489   */\n      tag_137\n      jump\t// in\n    tag_223:\n        /* \"#utility.yul\":5417:5489   */\n      swap2\n      pop\n        /* \"#utility.yul\":5212:5499   */\n      pop\n        /* \"#utility.yul\":4854:5506   */\n      swap3\n      pop\n      swap3\n      swap1\n      pop\n      jump\t// out\n        /* \"#utility.yul\":5512:5986   */\n    tag_31:\n        /* \"#utility.yul\":5580:5586   */\n      0x00\n        /* \"#utility.yul\":5588:5594   */\n      dup1\n        /* \"#utility.yul\":5637:5639   */\n      0x40\n        /* \"#utility.yul\":5625:5634   */\n      dup4\n        /* \"#utility.yul\":5616:5623   */\n      dup6\n        /* \"#utility.yul\":5612:5635   */\n      sub\n        /* \"#utility.yul\":5608:5640   */\n      slt\n        /* \"#utility.yul\":5605:5724   */\n      iszero\n      tag_225\n      jumpi\n        /* \"#utility.yul\":5643:5722   */\n      tag_226\n      tag_116\n      jump\t// in\n    tag_226:\n        /* \"#utility.yul\":5605:5724   */\n    tag_225:\n        /* \"#utility.yul\":5763:5764   */\n      0x00\n        /* \"#utility.yul\":5788:5841   */\n      tag_227\n        /* \"#utility.yul\":5833:5840   */\n      dup6\n        /* \"#utility.yul\":5824:5830   */\n      dup3\n        /* \"#utility.yul\":5813:5822   */\n      dup7\n        /* \"#utility.yul\":5809:5831   */\n      add\n        /* \"#utility.yul\":5788:5841   */\n      tag_120\n      jump\t// in\n    tag_227:\n        /* \"#utility.yul\":5778:5841   */\n      swap3\n      pop\n        /* \"#utility.yul\":5734:5851   */\n      pop\n        /* \"#utility.yul\":5890:5892   */\n      0x20\n        /* \"#utility.yul\":5916:5969   */\n      tag_228\n        /* \"#utility.yul\":5961:5968   */\n      dup6\n        /* \"#utility.yul\":5952:5958   */\n      dup3\n        /* \"#utility.yul\":5941:5950   */\n      dup7\n        /* \"#utility.yul\":5937:5959   */\n      add\n        /* \"#utility.yul\":5916:5969   */\n      tag_125\n      jump\t// in\n    tag_228:\n        /* \"#utility.yul\":5906:5969   */\n      swap2\n      pop\n        /* \"#utility.yul\":5861:5979   */\n      pop\n        /* \"#utility.yul\":5512:5986   */\n      swap3\n      pop\n      swap3\n      swap1\n      pop\n      jump\t// out\n        /* \"#utility.yul\":5992:6110   */\n    tag_138:\n        /* \"#utility.yul\":6079:6103   */\n      tag_230\n        /* \"#utility.yul\":6097:6102   */\n      dup2\n        /* \"#utility.yul\":6079:6103   */\n      tag_118\n      jump\t// in\n    tag_230:\n        /* \"#utility.yul\":6074:6077   */\n      dup3\n        /* \"#utility.yul\":6067:6104   */\n      mstore\n        /* \"#utility.yul\":5992:6110   */\n      pop\n      pop\n      jump\t// out\n        /* \"#utility.yul\":6116:6214   */\n    tag_139:\n        /* \"#utility.yul\":6167:6173   */\n      0x00\n        /* \"#utility.yul\":6201:6206   */\n      dup2\n        /* \"#utility.yul\":6195:6207   */\n      mload\n        /* \"#utility.yul\":6185:6207   */\n      swap1\n      pop\n        /* \"#utility.yul\":6116:6214   */\n      swap2\n      swap1\n      pop\n      jump\t// out\n        /* \"#utility.yul\":6220:6388   */\n    tag_140:\n        /* \"#utility.yul\":6303:6314   */\n      0x00\n        /* \"#utility.yul\":6337:6343   */\n      dup3\n        /* \"#utility.yul\":6332:6335   */\n      dup3\n        /* \"#utility.yul\":6325:6344   */\n      mstore\n        /* \"#utility.yul\":6377:6381   */\n      0x20\n        /* \"#utility.yul\":6372:6375   */\n      dup3\n        /* \"#utility.yul\":6368:6382   */\n      add\n        /* \"#utility.yul\":6353:6382   */\n      swap1\n      pop\n        /* \"#utility.yul\":6220:6388   */\n      swap3\n      swap2\n      pop\n      pop\n      jump\t// out\n        /* \"#utility.yul\":6394:6701   */\n    tag_141:\n        /* \"#utility.yul\":6462:6463   */\n      0x00\n        /* \"#utility.yul\":6472:6585   */\n    tag_234:\n        /* \"#utility.yul\":6486:6492   */\n      dup4\n        /* \"#utility.yul\":6483:6484   */\n      dup2\n        /* \"#utility.yul\":6480:6493   */\n      lt\n        /* \"#utility.yul\":6472:6585   */\n      iszero\n      tag_236\n      jumpi\n        /* \"#utility.yul\":6571:6572   */\n      dup1\n        /* \"#utility.yul\":6566:6569   */\n      dup3\n        /* \"#utility.yul\":6562:6573   */\n      add\n        /* \"#utility.yul\":6556:6574   */\n      mload\n        /* \"#utility.yul\":6552:6553   */\n      dup2\n        /* \"#utility.yul\":6547:6550   */\n      dup5\n        /* \"#utility.yul\":6543:6554   */\n      add\n        /* \"#utility.yul\":6536:6575   */\n      mstore\n        /* \"#utility.yul\":6508:6510   */\n      0x20\n        /* \"#utility.yul\":6505:6506   */\n      dup2\n        /* \"#utility.yul\":6501:6511   */\n      add\n        /* \"#utility.yul\":6496:6511   */\n      swap1\n      pop\n        /* \"#utility.yul\":6472:6585   */\n      jump(tag_234)\n    tag_236:\n        /* \"#utility.yul\":6603:6609   */\n      dup4\n        /* \"#utility.yul\":6600:6601   */\n      dup2\n        /* \"#utility.yul\":6597:6610   */\n      gt\n        /* \"#utility.yul\":6594:6695   */\n      iszero\n      tag_237\n      jumpi\n        /* \"#utility.yul\":6683:6684   */\n      0x00\n        /* \"#utility.yul\":6674:6680   */\n      dup5\n        /* \"#utility.yul\":6669:6672   */\n      dup5\n        /* \"#utility.yul\":6665:6681   */\n      add\n        /* \"#utility.yul\":6658:6685   */\n      mstore\n        /* \"#utility.yul\":6594:6695   */\n    tag_237:\n        /* \"#utility.yul\":6443:6701   */\n      pop\n        /* \"#utility.yul\":6394:6701   */\n      pop\n      pop\n      pop\n      jump\t// out\n        /* \"#utility.yul\":6707:7067   */\n    tag_142:\n        /* \"#utility.yul\":6793:6796   */\n      0x00\n        /* \"#utility.yul\":6821:6859   */\n      tag_239\n        /* \"#utility.yul\":6853:6858   */\n      dup3\n        /* \"#utility.yul\":6821:6859   */\n      tag_139\n      jump\t// in\n    tag_239:\n        /* \"#utility.yul\":6875:6945   */\n      tag_240\n        /* \"#utility.yul\":6938:6944   */\n      dup2\n        /* \"#utility.yul\":6933:6936   */\n      dup6\n        /* \"#utility.yul\":6875:6945   */\n      tag_140\n      jump\t// in\n    tag_240:\n        /* \"#utility.yul\":6868:6945   */\n      swap4\n      pop\n        /* \"#utility.yul\":6954:7006   */\n      tag_241\n        /* \"#utility.yul\":6999:7005   */\n      dup2\n        /* \"#utility.yul\":6994:6997   */\n      dup6\n        /* \"#utility.yul\":6987:6991   */\n      0x20\n        /* \"#utility.yul\":6980:6985   */\n      dup7\n        /* \"#utility.yul\":6976:6992   */\n      add\n        /* \"#utility.yul\":6954:7006   */\n      tag_141\n      jump\t// in\n    tag_241:\n        /* \"#utility.yul\":7031:7060   */\n      tag_242\n        /* \"#utility.yul\":7053:7059   */\n      dup2\n        /* \"#utility.yul\":7031:7060   */\n      tag_130\n      jump\t// in\n    tag_242:\n        /* \"#utility.yul\":7026:7029   */\n      dup5\n        /* \"#utility.yul\":7022:7061   */\n      add\n        /* \"#utility.yul\":7015:7061   */\n      swap2\n      pop\n        /* \"#utility.yul\":6797:7067   */\n      pop\n        /* \"#utility.yul\":6707:7067   */\n      swap3\n      swap2\n      pop\n      pop\n      jump\t// out\n        /* \"#utility.yul\":7073:7701   */\n    tag_38:\n        /* \"#utility.yul\":7262:7266   */\n      0x00\n        /* \"#utility.yul\":7300:7303   */\n      0x80\n        /* \"#utility.yul\":7289:7298   */\n      dup3\n        /* \"#utility.yul\":7285:7304   */\n      add\n        /* \"#utility.yul\":7277:7304   */\n      swap1\n      pop\n        /* \"#utility.yul\":7314:7385   */\n      tag_244\n        /* \"#utility.yul\":7382:7383   */\n      0x00\n        /* \"#utility.yul\":7371:7380   */\n      dup4\n        /* \"#utility.yul\":7367:7384   */\n      add\n        /* \"#utility.yul\":7358:7364   */\n      dup8\n        /* \"#utility.yul\":7314:7385   */\n      tag_138\n      jump\t// in\n    tag_244:\n        /* \"#utility.yul\":7432:7441   */\n      dup2\n        /* \"#utility.yul\":7426:7430   */\n      dup2\n        /* \"#utility.yul\":7422:7442   */\n      sub\n        /* \"#utility.yul\":7417:7419   */\n      0x20\n        /* \"#utility.yul\":7406:7415   */\n      dup4\n        /* \"#utility.yul\":7402:7420   */\n      add\n        /* \"#utility.yul\":7395:7443   */\n      mstore\n        /* \"#utility.yul\":7460:7536   */\n      tag_245\n        /* \"#utility.yul\":7531:7535   */\n      dup2\n        /* \"#utility.yul\":7522:7528   */\n      dup7\n        /* \"#utility.yul\":7460:7536   */\n      tag_142\n      jump\t// in\n    tag_245:\n        /* \"#utility.yul\":7452:7536   */\n      swap1\n      pop\n        /* \"#utility.yul\":7546:7612   */\n      tag_246\n        /* \"#utility.yul\":7608:7610   */\n      0x40\n        /* \"#utility.yul\":7597:7606   */\n      dup4\n        /* \"#utility.yul\":7593:7611   */\n      add\n        /* \"#utility.yul\":7584:7590   */\n      dup6\n        /* \"#utility.yul\":7546:7612   */\n      tag_127\n      jump\t// in\n    tag_246:\n        /* \"#utility.yul\":7622:7694   */\n      tag_247\n        /* \"#utility.yul\":7690:7692   */\n      0x60\n        /* \"#utility.yul\":7679:7688   */\n      dup4\n        /* \"#utility.yul\":7675:7693   */\n      add\n        /* \"#utility.yul\":7666:7672   */\n      dup5\n        /* \"#utility.yul\":7622:7694   */\n      tag_138\n      jump\t// in\n    tag_247:\n        /* \"#utility.yul\":7073:7701   */\n      swap6\n      swap5\n      pop\n      pop\n      pop\n      pop\n      pop\n      jump\t// out\n        /* \"#utility.yul\":7707:7929   */\n    tag_45:\n        /* \"#utility.yul\":7800:7804   */\n      0x00\n        /* \"#utility.yul\":7838:7840   */\n      0x20\n        /* \"#utility.yul\":7827:7836   */\n      dup3\n        /* \"#utility.yul\":7823:7841   */\n      add\n        /* \"#utility.yul\":7815:7841   */\n      swap1\n      pop\n        /* \"#utility.yul\":7851:7922   */\n      tag_249\n        /* \"#utility.yul\":7919:7920   */\n      0x00\n        /* \"#utility.yul\":7908:7917   */\n      dup4\n        /* \"#utility.yul\":7904:7921   */\n      add\n        /* \"#utility.yul\":7895:7901   */\n      dup5\n        /* \"#utility.yul\":7851:7922   */\n      tag_138\n      jump\t// in\n    tag_249:\n        /* \"#utility.yul\":7707:7929   */\n      swap3\n      swap2\n      pop\n      pop\n      jump\t// out\n        /* \"#utility.yul\":7935:8115   */\n    tag_143:\n        /* \"#utility.yul\":7983:8060   */\n      0x4e487b7100000000000000000000000000000000000000000000000000000000\n        /* \"#utility.yul\":7980:7981   */\n      0x00\n        /* \"#utility.yul\":7973:8061   */\n      mstore\n        /* \"#utility.yul\":8080:8084   */\n      0x22\n        /* \"#utility.yul\":8077:8078   */\n      0x04\n        /* \"#utility.yul\":8070:8085   */\n      mstore\n        /* \"#utility.yul\":8104:8108   */\n      0x24\n        /* \"#utility.yul\":8101:8102   */\n      0x00\n        /* \"#utility.yul\":8094:8109   */\n      revert\n        /* \"#utility.yul\":8121:8441   */\n    tag_61:\n        /* \"#utility.yul\":8165:8171   */\n      0x00\n        /* \"#utility.yul\":8202:8203   */\n      0x02\n        /* \"#utility.yul\":8196:8200   */\n      dup3\n        /* \"#utility.yul\":8192:8204   */\n      div\n        /* \"#utility.yul\":8182:8204   */\n      swap1\n      pop\n        /* \"#utility.yul\":8249:8250   */\n      0x01\n        /* \"#utility.yul\":8243:8247   */\n      dup3\n        /* \"#utility.yul\":8239:8251   */\n      and\n        /* \"#utility.yul\":8270:8288   */\n      dup1\n        /* \"#utility.yul\":8260:8341   */\n      tag_252\n      jumpi\n        /* \"#utility.yul\":8326:8330   */\n      0x7f\n        /* \"#utility.yul\":8318:8324   */\n      dup3\n        /* \"#utility.yul\":8314:8331   */\n      and\n        /* \"#utility.yul\":8304:8331   */\n      swap2\n      pop\n        /* \"#utility.yul\":8260:8341   */\n    tag_252:\n        /* \"#utility.yul\":8388:8390   */\n      0x20\n        /* \"#utility.yul\":8380:8386   */\n      dup3\n        /* \"#utility.yul\":8377:8391   */\n      lt\n        /* \"#utility.yul\":8357:8375   */\n      dup2\n        /* \"#utility.yul\":8354:8392   */\n      sub\n        /* \"#utility.yul\":8351:8435   */\n      tag_253\n      jumpi\n        /* \"#utility.yul\":8407:8425   */\n      tag_254\n      tag_143\n      jump\t// in\n    tag_254:\n        /* \"#utility.yul\":8351:8435   */\n    tag_253:\n        /* \"#utility.yul\":8172:8441   */\n      pop\n        /* \"#utility.yul\":8121:8441   */\n      swap2\n      swap1\n      pop\n      jump\t// out\n        /* \"#utility.yul\":8447:8627   */\n    tag_69:\n        /* \"#utility.yul\":8495:8572   */\n      0x4e487b7100000000000000000000000000000000000000000000000000000000\n        /* \"#utility.yul\":8492:8493   */\n      0x00\n        /* \"#utility.yul\":8485:8573   */\n      mstore\n        /* \"#utility.yul\":8592:8596   */\n      0x32\n        /* \"#utility.yul\":8589:8590   */\n      0x04\n        /* \"#utility.yul\":8582:8597   */\n      mstore\n        /* \"#utility.yul\":8616:8620   */\n      0x24\n        /* \"#utility.yul\":8613:8614   */\n      0x00\n        /* \"#utility.yul\":8606:8621   */\n      revert\n        /* \"#utility.yul\":8633:8802   */\n    tag_144:\n        /* \"#utility.yul\":8717:8728   */\n      0x00\n        /* \"#utility.yul\":8751:8757   */\n      dup3\n        /* \"#utility.yul\":8746:8749   */\n      dup3\n        /* \"#utility.yul\":8739:8758   */\n      mstore\n        /* \"#utility.yul\":8791:8795   */\n      0x20\n        /* \"#utility.yul\":8786:8789   */\n      dup3\n        /* \"#utility.yul\":8782:8796   */\n      add\n        /* \"#utility.yul\":8767:8796   */\n      swap1\n      pop\n        /* \"#utility.yul\":8633:8802   */\n      swap3\n      swap2\n      pop\n      pop\n      jump\t// out\n        /* \"#utility.yul\":8808:8977   */\n    tag_145:\n        /* \"#utility.yul\":8948:8969   */\n      0x747820616c726561647920657865637574656400000000000000000000000000\n        /* \"#utility.yul\":8944:8945   */\n      0x00\n        /* \"#utility.yul\":8936:8942   */\n      dup3\n        /* \"#utility.yul\":8932:8946   */\n      add\n        /* \"#utility.yul\":8925:8970   */\n      mstore\n        /* \"#utility.yul\":8808:8977   */\n      pop\n      jump\t// out\n        /* \"#utility.yul\":8983:9349   */\n    tag_146:\n        /* \"#utility.yul\":9125:9128   */\n      0x00\n        /* \"#utility.yul\":9146:9213   */\n      tag_259\n        /* \"#utility.yul\":9210:9212   */\n      0x13\n        /* \"#utility.yul\":9205:9208   */\n      dup4\n        /* \"#utility.yul\":9146:9213   */\n      tag_144\n      jump\t// in\n    tag_259:\n        /* \"#utility.yul\":9139:9213   */\n      swap2\n      pop\n        /* \"#utility.yul\":9222:9315   */\n      tag_260\n        /* \"#utility.yul\":9311:9314   */\n      dup3\n        /* \"#utility.yul\":9222:9315   */\n      tag_145\n      jump\t// in\n    tag_260:\n        /* \"#utility.yul\":9340:9342   */\n      0x20\n        /* \"#utility.yul\":9335:9338   */\n      dup3\n        /* \"#utility.yul\":9331:9343   */\n      add\n        /* \"#utility.yul\":9324:9343   */\n      swap1\n      pop\n        /* \"#utility.yul\":8983:9349   */\n      swap2\n      swap1\n      pop\n      jump\t// out\n        /* \"#utility.yul\":9355:9774   */\n    tag_73:\n        /* \"#utility.yul\":9521:9525   */\n      0x00\n        /* \"#utility.yul\":9559:9561   */\n      0x20\n        /* \"#utility.yul\":9548:9557   */\n      dup3\n        /* \"#utility.yul\":9544:9562   */\n      add\n        /* \"#utility.yul\":9536:9562   */\n      swap1\n      pop\n        /* \"#utility.yul\":9608:9617   */\n      dup2\n        /* \"#utility.yul\":9602:9606   */\n      dup2\n        /* \"#utility.yul\":9598:9618   */\n      sub\n        /* \"#utility.yul\":9594:9595   */\n      0x00\n        /* \"#utility.yul\":9583:9592   */\n      dup4\n        /* \"#utility.yul\":9579:9596   */\n      add\n        /* \"#utility.yul\":9572:9619   */\n      mstore\n        /* \"#utility.yul\":9636:9767   */\n      tag_262\n        /* \"#utility.yul\":9762:9766   */\n      dup2\n        /* \"#utility.yul\":9636:9767   */\n      tag_146\n      jump\t// in\n    tag_262:\n        /* \"#utility.yul\":9628:9767   */\n      swap1\n      pop\n        /* \"#utility.yul\":9355:9774   */\n      swap2\n      swap1\n      pop\n      jump\t// out\n        /* \"#utility.yul\":9780:9950   */\n    tag_147:\n        /* \"#utility.yul\":9920:9942   */\n      0x747820616c726561647920636f6e6669726d6564000000000000000000000000\n        /* \"#utility.yul\":9916:9917   */\n      0x00\n        /* \"#utility.yul\":9908:9914   */\n      dup3\n        /* \"#utility.yul\":9904:9918   */\n      add\n        /* \"#utility.yul\":9897:9943   */\n      mstore\n        /* \"#utility.yul\":9780:9950   */\n      pop\n      jump\t// out\n        /* \"#utility.yul\":9956:10322   */\n    tag_148:\n        /* \"#utility.yul\":10098:10101   */\n      0x00\n        /* \"#utility.yul\":10119:10186   */\n      tag_265\n        /* \"#utility.yul\":10183:10185   */\n      0x14\n        /* \"#utility.yul\":10178:10181   */\n      dup4\n        /* \"#utility.yul\":10119:10186   */\n      tag_144\n      jump\t// in\n    tag_265:\n        /* \"#utility.yul\":10112:10186   */\n      swap2\n      pop\n        /* \"#utility.yul\":10195:10288   */\n      tag_266\n        /* \"#utility.yul\":10284:10287   */\n      dup3\n        /* \"#utility.yul\":10195:10288   */\n      tag_147\n      jump\t// in\n    tag_266:\n        /* \"#utility.yul\":10313:10315   */\n      0x20\n        /* \"#utility.yul\":10308:10311   */\n      dup3\n        /* \"#utility.yul\":10304:10316   */\n      add\n        /* \"#utility.yul\":10297:10316   */\n      swap1\n      pop\n        /* \"#utility.yul\":9956:10322   */\n      swap2\n      swap1\n      pop\n      jump\t// out\n        /* \"#utility.yul\":10328:10747   */\n    tag_77:\n        /* \"#utility.yul\":10494:10498   */\n      0x00\n        /* \"#utility.yul\":10532:10534   */\n      0x20\n        /* \"#utility.yul\":10521:10530   */\n      dup3\n        /* \"#utility.yul\":10517:10535   */\n      add\n        /* \"#utility.yul\":10509:10535   */\n      swap1\n      pop\n        /* \"#utility.yul\":10581:10590   */\n      dup2\n        /* \"#utility.yul\":10575:10579   */\n      dup2\n        /* \"#utility.yul\":10571:10591   */\n      sub\n        /* \"#utility.yul\":10567:10568   */\n      0x00\n        /* \"#utility.yul\":10556:10565   */\n      dup4\n        /* \"#utility.yul\":10552:10569   */\n      add\n        /* \"#utility.yul\":10545:10592   */\n      mstore\n        /* \"#utility.yul\":10609:10740   */\n      tag_268\n        /* \"#utility.yul\":10735:10739   */\n      dup2\n        /* \"#utility.yul\":10609:10740   */\n      tag_148\n      jump\t// in\n    tag_268:\n        /* \"#utility.yul\":10601:10740   */\n      swap1\n      pop\n        /* \"#utility.yul\":10328:10747   */\n      swap2\n      swap1\n      pop\n      jump\t// out\n        /* \"#utility.yul\":10753:10933   */\n    tag_149:\n        /* \"#utility.yul\":10801:10878   */\n      0x4e487b7100000000000000000000000000000000000000000000000000000000\n        /* \"#utility.yul\":10798:10799   */\n      0x00\n        /* \"#utility.yul\":10791:10879   */\n      mstore\n        /* \"#utility.yul\":10898:10902   */\n      0x11\n        /* \"#utility.yul\":10895:10896   */\n      0x04\n        /* \"#utility.yul\":10888:10903   */\n      mstore\n        /* \"#utility.yul\":10922:10926   */\n      0x24\n        /* \"#utility.yul\":10919:10920   */\n      0x00\n        /* \"#utility.yul\":10912:10927   */\n      revert\n        /* \"#utility.yul\":10939:11244   */\n    tag_83:\n        /* \"#utility.yul\":10979:10982   */\n      0x00\n        /* \"#utility.yul\":10998:11018   */\n      tag_271\n        /* \"#utility.yul\":11016:11017   */\n      dup3\n        /* \"#utility.yul\":10998:11018   */\n      tag_118\n      jump\t// in\n    tag_271:\n        /* \"#utility.yul\":10993:11018   */\n      swap2\n      pop\n        /* \"#utility.yul\":11032:11052   */\n      tag_272\n        /* \"#utility.yul\":11050:11051   */\n      dup4\n        /* \"#utility.yul\":11032:11052   */\n      tag_118\n      jump\t// in\n    tag_272:\n        /* \"#utility.yul\":11027:11052   */\n      swap3\n      pop\n        /* \"#utility.yul\":11186:11187   */\n      dup3\n        /* \"#utility.yul\":11118:11184   */\n      0xffffffffffffffffffffffffffffffffffffffffffffffffffffffffffffffff\n        /* \"#utility.yul\":11114:11188   */\n      sub\n        /* \"#utility.yul\":11111:11112   */\n      dup3\n        /* \"#utility.yul\":11108:11189   */\n      gt\n        /* \"#utility.yul\":11105:11212   */\n      iszero\n      tag_273\n      jumpi\n        /* \"#utility.yul\":11192:11210   */\n      tag_274\n      tag_149\n      jump\t// in\n    tag_274:\n        /* \"#utility.yul\":11105:11212   */\n    tag_273:\n        /* \"#utility.yul\":11236:11237   */\n      dup3\n        /* \"#utility.yul\":11233:11234   */\n      dup3\n        /* \"#utility.yul\":11229:11238   */\n      add\n        /* \"#utility.yul\":11222:11238   */\n      swap1\n      pop\n        /* \"#utility.yul\":10939:11244   */\n      swap3\n      swap2\n      pop\n      pop\n      jump\t// out\n        /* \"#utility.yul\":11250:11417   */\n    tag_150:\n        /* \"#utility.yul\":11390:11409   */\n      0x63616e6e6f742065786563757465207478000000000000000000000000000000\n        /* \"#utility.yul\":11386:11387   */\n      0x00\n        /* \"#utility.yul\":11378:11384   */\n      dup3\n        /* \"#utility.yul\":11374:11388   */\n      add\n        /* \"#utility.yul\":11367:11410   */\n      mstore\n        /* \"#utility.yul\":11250:11417   */\n      pop\n      jump\t// out\n        /* \"#utility.yul\":11423:11789   */\n    tag_151:\n        /* \"#utility.yul\":11565:11568   */\n      0x00\n        /* \"#utility.yul\":11586:11653   */\n      tag_277\n        /* \"#utility.yul\":11650:11652   */\n      0x11\n        /* \"#utility.yul\":11645:11648   */\n      dup4\n        /* \"#utility.yul\":11586:11653   */\n      tag_144\n      jump\t// in\n    tag_277:\n        /* \"#utility.yul\":11579:11653   */\n      swap2\n      pop\n        /* \"#utility.yul\":11662:11755   */\n      tag_278\n        /* \"#utility.yul\":11751:11754   */\n      dup3\n        /* \"#utility.yul\":11662:11755   */\n      tag_150\n      jump\t// in\n    tag_278:\n        /* \"#utility.yul\":11780:11782   */\n      0x20\n        /* \"#utility.yul\":11775:11778   */\n      dup3\n        /* \"#utility.yul\":11771:11783   */\n      add\n        /* \"#utility.yul\":11764:11783   */\n      swap1\n      pop\n        /* \"#utility.yul\":11423:11789   */\n      swap2\n      swap1\n      pop\n      jump\t// out\n        /* \"#utility.yul\":11795:12214   */\n    tag_96:\n        /* \"#utility.yul\":11961:11965   */\n      0x00\n        /* \"#utility.yul\":11999:12001   */\n      0x20\n        /* \"#utility.yul\":11988:11997   */\n      dup3\n        /* \"#utility.yul\":11984:12002   */\n      add\n        /* \"#utility.yul\":11976:12002   */\n      swap1\n      pop\n        /* \"#utility.yul\":12048:12057   */\n      dup2\n        /* \"#utility.yul\":12042:12046   */\n      dup2\n        /* \"#utility.yul\":12038:12058   */\n      sub\n        /* \"#utility.yul\":12034:12035   */\n      0x00\n        /* \"#utility.yul\":12023:12032   */\n      dup4\n        /* \"#utility.yul\":12019:12036   */\n      add\n        /* \"#utility.yul\":12012:12059   */\n      mstore\n        /* \"#utility.yul\":12076:12207   */\n      tag_280\n        /* \"#utility.yul\":12202:12206   */\n      dup2\n        /* \"#utility.yul\":12076:12207   */\n      tag_151\n      jump\t// in\n    tag_280:\n        /* \"#utility.yul\":12068:12207   */\n      swap1\n      pop\n        /* \"#utility.yul\":11795:12214   */\n      swap2\n      swap1\n      pop\n      jump\t// out\n        /* \"#utility.yul\":12220:12367   */\n    tag_152:\n        /* \"#utility.yul\":12321:12332   */\n      0x00\n        /* \"#utility.yul\":12358:12361   */\n      dup2\n        /* \"#utility.yul\":12343:12361   */\n      swap1\n      pop\n        /* \"#utility.yul\":12220:12367   */\n      swap3\n      swap2\n      pop\n      pop\n      jump\t// out\n        /* \"#utility.yul\":12373:12746   */\n    tag_153:\n        /* \"#utility.yul\":12477:12480   */\n      0x00\n        /* \"#utility.yul\":12505:12543   */\n      tag_283\n        /* \"#utility.yul\":12537:12542   */\n      dup3\n        /* \"#utility.yul\":12505:12543   */\n      tag_139\n      jump\t// in\n    tag_283:\n        /* \"#utility.yul\":12559:12647   */\n      tag_284\n        /* \"#utility.yul\":12640:12646   */\n      dup2\n        /* \"#utility.yul\":12635:12638   */\n      dup6\n        /* \"#utility.yul\":12559:12647   */\n      tag_152\n      jump\t// in\n    tag_284:\n        /* \"#utility.yul\":12552:12647   */\n      swap4\n      pop\n        /* \"#utility.yul\":12656:12708   */\n      tag_285\n        /* \"#utility.yul\":12701:12707   */\n      dup2\n        /* \"#utility.yul\":12696:12699   */\n      dup6\n        /* \"#utility.yul\":12689:12693   */\n      0x20\n        /* \"#utility.yul\":12682:12687   */\n      dup7\n        /* \"#utility.yul\":12678:12694   */\n      add\n        /* \"#utility.yul\":12656:12708   */\n      tag_141\n      jump\t// in\n    tag_285:\n        /* \"#utility.yul\":12733:12739   */\n      dup1\n        /* \"#utility.yul\":12728:12731   */\n      dup5\n        /* \"#utility.yul\":12724:12740   */\n      add\n        /* \"#utility.yul\":12717:12740   */\n      swap2\n      pop\n        /* \"#utility.yul\":12481:12746   */\n      pop\n        /* \"#utility.yul\":12373:12746   */\n      swap3\n      swap2\n      pop\n      pop\n      jump\t// out\n        /* \"#utility.yul\":12752:13023   */\n    tag_98:\n        /* \"#utility.yul\":12882:12885   */\n      0x00\n        /* \"#utility.yul\":12904:12997   */\n      tag_287\n        /* \"#utility.yul\":12993:12996   */\n      dup3\n        /* \"#utility.yul\":12984:12990   */\n      dup5\n        /* \"#utility.yul\":12904:12997   */\n      tag_153\n      jump\t// in\n    tag_287:\n        /* \"#utility.yul\":12897:12997   */\n      swap2\n      pop\n        /* \"#utility.yul\":13014:13017   */\n      dup2\n        /* \"#utility.yul\":13007:13017   */\n      swap1\n      pop\n        /* \"#utility.yul\":12752:13023   */\n      swap3\n      swap2\n      pop\n      pop\n      jump\t// out\n        /* \"#utility.yul\":13029:13188   */\n    tag_154:\n        /* \"#utility.yul\":13169:13180   */\n      0x7478206661696c65640000000000000000000000000000000000000000000000\n        /* \"#utility.yul\":13165:13166   */\n      0x00\n        /* \"#utility.yul\":13157:13163   */\n      dup3\n        /* \"#utility.yul\":13153:13167   */\n      add\n        /* \"#utility.yul\":13146:13181   */\n      mstore\n        /* \"#utility.yul\":13029:13188   */\n      pop\n      jump\t// out\n        /* \"#utility.yul\":13194:13559   */\n    tag_155:\n        /* \"#utility.yul\":13336:13339   */\n      0x00\n        /* \"#utility.yul\":13357:13423   */\n      tag_290\n        /* \"#utility.yul\":13421:13422   */\n      0x09\n        /* \"#utility.yul\":13416:13419   */\n      dup4\n        /* \"#utility.yul\":13357:13423   */\n      tag_144\n      jump\t// in\n    tag_290:\n        /* \"#utility.yul\":13350:13423   */\n      swap2\n      pop\n        /* \"#utility.yul\":13432:13525   */\n      tag_291\n        /* \"#utility.yul\":13521:13524   */\n      dup3\n        /* \"#utility.yul\":13432:13525   */\n      tag_154\n      jump\t// in\n    tag_291:\n        /* \"#utility.yul\":13550:13552   */\n      0x20\n        /* \"#utility.yul\":13545:13548   */\n      dup3\n        /* \"#utility.yul\":13541:13553   */\n      add\n        /* \"#utility.yul\":13534:13553   */\n      swap1\n      pop\n        /* \"#utility.yul\":13194:13559   */\n      swap2\n      swap1\n      pop\n      jump\t// out\n        /* \"#utility.yul\":13565:13984   */\n    tag_104:\n        /* \"#utility.yul\":13731:13735   */\n      0x00\n        /* \"#utility.yul\":13769:13771   */\n      0x20\n        /* \"#utility.yul\":13758:13767   */\n      dup3\n        /* \"#utility.yul\":13754:13772   */\n      add\n        /* \"#utility.yul\":13746:13772   */\n      swap1\n      pop\n        /* \"#utility.yul\":13818:13827   */\n      dup2\n        /* \"#utility.yul\":13812:13816   */\n      dup2\n        /* \"#utility.yul\":13808:13828   */\n      sub\n        /* \"#utility.yul\":13804:13805   */\n      0x00\n        /* \"#utility.yul\":13793:13802   */\n      dup4\n        /* \"#utility.yul\":13789:13806   */\n      add\n        /* \"#utility.yul\":13782:13829   */\n      mstore\n        /* \"#utility.yul\":13846:13977   */\n      tag_293\n        /* \"#utility.yul\":13972:13976   */\n      dup2\n        /* \"#utility.yul\":13846:13977   */\n      tag_155\n      jump\t// in\n    tag_293:\n        /* \"#utility.yul\":13838:13977   */\n      swap1\n      pop\n        /* \"#utility.yul\":13565:13984   */\n      swap2\n      swap1\n      pop\n      jump\t// out\n\n    auxdata: 0xa2646970667358221220d8261809861d3bd1e0f1751251bfe004e37d1970386773d823d9fdfdc32d813964736f6c634300080d0033\n}\n",
				"bytecode": {
					"linkReferences": {},
					"object": "60806040523480156200001157600080fd5b5060405162001832380380620018328339818101604052810190620000379190620004b4565b826000806101000a81548173ffffffffffffffffffffffffffffffffffffffff021916908373ffffffffffffffffffffffffffffffffffffffff1602179055508160058190555060005b815181101562000281576000828281518110620000a357620000a26200052f565b5b60200260200101519050600073ffffffffffffffffffffffffffffffffffffffff168173ffffffffffffffffffffffffffffffffffffffff16036200011f576040517f08c379a00000000000000000000000000000000000000000000000000000000081526004016200011690620005bf565b60405180910390fd5b600360008273ffffffffffffffffffffffffffffffffffffffff1673ffffffffffffffffffffffffffffffffffffffff16815260200190815260200160002060009054906101000a900460ff1615620001af576040517f08c379a0000000000000000000000000000000000000000000000000000000008152600401620001a69062000631565b60405180910390fd5b6001600360008373ffffffffffffffffffffffffffffffffffffffff1673ffffffffffffffffffffffffffffffffffffffff16815260200190815260200160002060006101000a81548160ff0219169083151502179055506002819080600181540180825580915050600190039060005260206000200160009091909190916101000a81548173ffffffffffffffffffffffffffffffffffffffff021916908373ffffffffffffffffffffffffffffffffffffffff160217905550508080620002789062000682565b91505062000081565b50505050620006cf565b6000604051905090565b600080fd5b600080fd5b600073ffffffffffffffffffffffffffffffffffffffff82169050919050565b6000620002cc826200029f565b9050919050565b620002de81620002bf565b8114620002ea57600080fd5b50565b600081519050620002fe81620002d3565b92915050565b6000819050919050565b620003198162000304565b81146200032557600080fd5b50565b60008151905062000339816200030e565b92915050565b600080fd5b6000601f19601f8301169050919050565b7f4e487b7100000000000000000000000000000000000000000000000000000000600052604160045260246000fd5b6200038f8262000344565b810181811067ffffffffffffffff82111715620003b157620003b062000355565b5b80604052505050565b6000620003c66200028b565b9050620003d4828262000384565b919050565b600067ffffffffffffffff821115620003f757620003f662000355565b5b602082029050602081019050919050565b600080fd5b6000620004246200041e84620003d9565b620003ba565b905080838252602082019050602084028301858111156200044a576200044962000408565b5b835b81811015620004775780620004628882620002ed565b8452602084019350506020810190506200044c565b5050509392505050565b600082601f8301126200049957620004986200033f565b5b8151620004ab8482602086016200040d565b91505092915050565b600080600060608486031215620004d057620004cf62000295565b5b6000620004e086828701620002ed565b9350506020620004f38682870162000328565b925050604084015167ffffffffffffffff8111156200051757620005166200029a565b5b620005258682870162000481565b9150509250925092565b7f4e487b7100000000000000000000000000000000000000000000000000000000600052603260045260246000fd5b600082825260208201905092915050565b7f696e76616c6964206f776e657200000000000000000000000000000000000000600082015250565b6000620005a7600d836200055e565b9150620005b4826200056f565b602082019050919050565b60006020820190508181036000830152620005da8162000598565b9050919050565b7f6f776e6572206e6f7420756e6971756500000000000000000000000000000000600082015250565b6000620006196010836200055e565b91506200062682620005e1565b602082019050919050565b600060208201905081810360008301526200064c816200060a565b9050919050565b7f4e487b7100000000000000000000000000000000000000000000000000000000600052601160045260246000fd5b60006200068f8262000304565b91507fffffffffffffffffffffffffffffffffffffffffffffffffffffffffffffffff8203620006c457620006c362000653565b5b600182019050919050565b61115380620006df6000396000f3fe608060405234801561001057600080fd5b50600436106100935760003560e01c80639ace38c2116100665780639ace38c214610144578063c01a8c8414610177578063d0549b8514610193578063d4b83992146101b1578063ee22610b146101cf57610093565b8063025e7c27146100985780632f54bf6e146100c85780636028f099146100f857806380f59a6514610114575b600080fd5b6100b260048036038101906100ad91906109fd565b6101eb565b6040516100bf9190610a6b565b60405180910390f35b6100e260048036038101906100dd9190610ab2565b61022a565b6040516100ef9190610afa565b60405180910390f35b610112600480360381019061010d9190610c5b565b61024a565b005b61012e60048036038101906101299190610cb7565b610340565b60405161013b9190610afa565b60405180910390f35b61015e600480360381019061015991906109fd565b61036f565b60405161016e9493929190610d8e565b60405180910390f35b610191600480360381019061018c91906109fd565b610444565b005b61019b61064c565b6040516101a89190610dda565b60405180910390f35b6101b9610652565b6040516101c69190610a6b565b60405180910390f35b6101e960048036038101906101e491906109fd565b610676565b005b600281815481106101fb57600080fd5b906000526020600020016000915054906101000a900473ffffffffffffffffffffffffffffffffffffffff1681565b60036020528060005260406000206000915054906101000a900460ff1681565b6000600180549050905060016040518060800160405280858152602001848152602001600015158152602001600081525090806001815401808255809150506001900390600052602060002090600402016000909190919091506000820151816000015560208201518160010190805190602001906102ca929190610910565b5060408201518160020160006101000a81548160ff021916908315150217905550606082015181600301555050803373ffffffffffffffffffffffffffffffffffffffff167fc82555d64d2b8b25ffefc140ae6575736763ee3a99347632d7f633e7bfae3f7860405160405180910390a3505050565b60046020528160005260406000206020528060005260406000206000915091509054906101000a900460ff1681565b6001818154811061037f57600080fd5b90600052602060002090600402016000915090508060000154908060010180546103a890610e24565b80601f01602080910402602001604051908101604052809291908181526020018280546103d490610e24565b80156104215780601f106103f657610100808354040283529160200191610421565b820191906000526020600020905b81548152906001019060200180831161040457829003601f168201915b5050505050908060020160009054906101000a900460ff16908060030154905084565b806001818154811061045957610458610e55565b5b906000526020600020906004020160020160009054906101000a900460ff16156104b8576040517f08c379a00000000000000000000000000000000000000000000000000000000081526004016104af90610ee1565b60405180910390fd5b816004600082815260200190815260200160002060003373ffffffffffffffffffffffffffffffffffffffff1673ffffffffffffffffffffffffffffffffffffffff16815260200190815260200160002060009054906101000a900460ff1615610557576040517f08c379a000000000000000000000000000000000000000000000000000000000815260040161054e90610f4d565b60405180910390fd5b60006001848154811061056d5761056c610e55565b5b9060005260206000209060040201905060018160030160008282546105929190610f9c565b9250508190555060016004600086815260200190815260200160002060003373ffffffffffffffffffffffffffffffffffffffff1673ffffffffffffffffffffffffffffffffffffffff16815260200190815260200160002060006101000a81548160ff021916908315150217905550833373ffffffffffffffffffffffffffffffffffffffff167f5cbe105e36805f7820e291f799d5794ff948af2a5f664e580382defb6339004160405160405180910390a350505050565b60055481565b60008054906101000a900473ffffffffffffffffffffffffffffffffffffffff1681565b806001818154811061068b5761068a610e55565b5b906000526020600020906004020160020160009054906101000a900460ff16156106ea576040517f08c379a00000000000000000000000000000000000000000000000000000000081526004016106e190610ee1565b60405180910390fd5b600060018381548110610700576106ff610e55565b5b9060005260206000209060040201905060055481600301541015610759576040517f08c379a00000000000000000000000000000000000000000000000000000000081526004016107509061103e565b60405180910390fd5b60018160020160006101000a81548160ff02191690831515021790555060008060009054906101000a900473ffffffffffffffffffffffffffffffffffffffff1673ffffffffffffffffffffffffffffffffffffffff166040516024016040516020818303038152906040527f3ccfd60b000000000000000000000000000000000000000000000000000000007bffffffffffffffffffffffffffffffffffffffffffffffffffffffff19166020820180517bffffffffffffffffffffffffffffffffffffffffffffffffffffffff8381831617835250505050604051610840919061109a565b6000604051808303816000865af19150503d806000811461087d576040519150601f19603f3d011682016040523d82523d6000602084013e610882565b606091505b50509050806108c6576040517f08c379a00000000000000000000000000000000000000000000000000000000081526004016108bd906110fd565b60405180910390fd5b833373ffffffffffffffffffffffffffffffffffffffff167f5445f318f4f5fcfb66592e68e0cc5822aa15664039bd5f0ffde24c5a8142b1ac60405160405180910390a350505050565b82805461091c90610e24565b90600052602060002090601f01602090048101928261093e5760008555610985565b82601f1061095757805160ff1916838001178555610985565b82800160010185558215610985579182015b82811115610984578251825591602001919060010190610969565b5b5090506109929190610996565b5090565b5b808211156109af576000816000905550600101610997565b5090565b6000604051905090565b600080fd5b600080fd5b6000819050919050565b6109da816109c7565b81146109e557600080fd5b50565b6000813590506109f7816109d1565b92915050565b600060208284031215610a1357610a126109bd565b5b6000610a21848285016109e8565b91505092915050565b600073ffffffffffffffffffffffffffffffffffffffff82169050919050565b6000610a5582610a2a565b9050919050565b610a6581610a4a565b82525050565b6000602082019050610a806000830184610a5c565b92915050565b610a8f81610a4a565b8114610a9a57600080fd5b50565b600081359050610aac81610a86565b92915050565b600060208284031215610ac857610ac76109bd565b5b6000610ad684828501610a9d565b91505092915050565b60008115159050919050565b610af481610adf565b82525050565b6000602082019050610b0f6000830184610aeb565b92915050565b600080fd5b600080fd5b6000601f19601f8301169050919050565b7f4e487b7100000000000000000000000000000000000000000000000000000000600052604160045260246000fd5b610b6882610b1f565b810181811067ffffffffffffffff82111715610b8757610b86610b30565b5b80604052505050565b6000610b9a6109b3565b9050610ba68282610b5f565b919050565b600067ffffffffffffffff821115610bc657610bc5610b30565b5b610bcf82610b1f565b9050602081019050919050565b82818337600083830152505050565b6000610bfe610bf984610bab565b610b90565b905082815260208101848484011115610c1a57610c19610b1a565b5b610c25848285610bdc565b509392505050565b600082601f830112610c4257610c41610b15565b5b8135610c52848260208601610beb565b91505092915050565b60008060408385031215610c7257610c716109bd565b5b6000610c80858286016109e8565b925050602083013567ffffffffffffffff811115610ca157610ca06109c2565b5b610cad85828601610c2d565b9150509250929050565b60008060408385031215610cce57610ccd6109bd565b5b6000610cdc858286016109e8565b9250506020610ced85828601610a9d565b9150509250929050565b610d00816109c7565b82525050565b600081519050919050565b600082825260208201905092915050565b60005b83811015610d40578082015181840152602081019050610d25565b83811115610d4f576000848401525b50505050565b6000610d6082610d06565b610d6a8185610d11565b9350610d7a818560208601610d22565b610d8381610b1f565b840191505092915050565b6000608082019050610da36000830187610cf7565b8181036020830152610db58186610d55565b9050610dc46040830185610aeb565b610dd16060830184610cf7565b95945050505050565b6000602082019050610def6000830184610cf7565b92915050565b7f4e487b7100000000000000000000000000000000000000000000000000000000600052602260045260246000fd5b60006002820490506001821680610e3c57607f821691505b602082108103610e4f57610e4e610df5565b5b50919050565b7f4e487b7100000000000000000000000000000000000000000000000000000000600052603260045260246000fd5b600082825260208201905092915050565b7f747820616c726561647920657865637574656400000000000000000000000000600082015250565b6000610ecb601383610e84565b9150610ed682610e95565b602082019050919050565b60006020820190508181036000830152610efa81610ebe565b9050919050565b7f747820616c726561647920636f6e6669726d6564000000000000000000000000600082015250565b6000610f37601483610e84565b9150610f4282610f01565b602082019050919050565b60006020820190508181036000830152610f6681610f2a565b9050919050565b7f4e487b7100000000000000000000000000000000000000000000000000000000600052601160045260246000fd5b6000610fa7826109c7565b9150610fb2836109c7565b9250827fffffffffffffffffffffffffffffffffffffffffffffffffffffffffffffffff03821115610fe757610fe6610f6d565b5b828201905092915050565b7f63616e6e6f742065786563757465207478000000000000000000000000000000600082015250565b6000611028601183610e84565b915061103382610ff2565b602082019050919050565b600060208201905081810360008301526110578161101b565b9050919050565b600081905092915050565b600061107482610d06565b61107e818561105e565b935061108e818560208601610d22565b80840191505092915050565b60006110a68284611069565b915081905092915050565b7f7478206661696c65640000000000000000000000000000000000000000000000600082015250565b60006110e7600983610e84565b91506110f2826110b1565b602082019050919050565b60006020820190508181036000830152611116816110da565b905091905056fea2646970667358221220d8261809861d3bd1e0f1751251bfe004e37d1970386773d823d9fdfdc32d813964736f6c634300080d0033",
					"opcodes": "PUSH1 0x80 PUSH1 0x40 MSTORE CALLVALUE DUP1 ISZERO PUSH3 0x11 JUMPI PUSH1 0x0 DUP1 REVERT JUMPDEST POP PUSH1 0x40 MLOAD PUSH3 0x1832 CODESIZE SUB DUP1 PUSH3 0x1832 DUP4 CODECOPY DUP2 DUP2 ADD PUSH1 0x40 MSTORE DUP2 ADD SWAP1 PUSH3 0x37 SWAP2 SWAP1 PUSH3 0x4B4 JUMP JUMPDEST DUP3 PUSH1 0x0 DUP1 PUSH2 0x100 EXP DUP2 SLOAD DUP2 PUSH20 0xFFFFFFFFFFFFFFFFFFFFFFFFFFFFFFFFFFFFFFFF MUL NOT AND SWAP1 DUP4 PUSH20 0xFFFFFFFFFFFFFFFFFFFFFFFFFFFFFFFFFFFFFFFF AND MUL OR SWAP1 SSTORE POP DUP2 PUSH1 0x5 DUP2 SWAP1 SSTORE POP PUSH1 0x0 JUMPDEST DUP2 MLOAD DUP2 LT ISZERO PUSH3 0x281 JUMPI PUSH1 0x0 DUP3 DUP3 DUP2 MLOAD DUP2 LT PUSH3 0xA3 JUMPI PUSH3 0xA2 PUSH3 0x52F JUMP JUMPDEST JUMPDEST PUSH1 0x20 MUL PUSH1 0x20 ADD ADD MLOAD SWAP1 POP PUSH1 0x0 PUSH20 0xFFFFFFFFFFFFFFFFFFFFFFFFFFFFFFFFFFFFFFFF AND DUP2 PUSH20 0xFFFFFFFFFFFFFFFFFFFFFFFFFFFFFFFFFFFFFFFF AND SUB PUSH3 0x11F JUMPI PUSH1 0x40 MLOAD PUSH32 0x8C379A000000000000000000000000000000000000000000000000000000000 DUP2 MSTORE PUSH1 0x4 ADD PUSH3 0x116 SWAP1 PUSH3 0x5BF JUMP JUMPDEST PUSH1 0x40 MLOAD DUP1 SWAP2 SUB SWAP1 REVERT JUMPDEST PUSH1 0x3 PUSH1 0x0 DUP3 PUSH20 0xFFFFFFFFFFFFFFFFFFFFFFFFFFFFFFFFFFFFFFFF AND PUSH20 0xFFFFFFFFFFFFFFFFFFFFFFFFFFFFFFFFFFFFFFFF AND DUP2 MSTORE PUSH1 0x20 ADD SWAP1 DUP2 MSTORE PUSH1 0x20 ADD PUSH1 0x0 KECCAK256 PUSH1 0x0 SWAP1 SLOAD SWAP1 PUSH2 0x100 EXP SWAP1 DIV PUSH1 0xFF AND ISZERO PUSH3 0x1AF JUMPI PUSH1 0x40 MLOAD PUSH32 0x8C379A000000000000000000000000000000000000000000000000000000000 DUP2 MSTORE PUSH1 0x4 ADD PUSH3 0x1A6 SWAP1 PUSH3 0x631 JUMP JUMPDEST PUSH1 0x40 MLOAD DUP1 SWAP2 SUB SWAP1 REVERT JUMPDEST PUSH1 0x1 PUSH1 0x3 PUSH1 0x0 DUP4 PUSH20 0xFFFFFFFFFFFFFFFFFFFFFFFFFFFFFFFFFFFFFFFF AND PUSH20 0xFFFFFFFFFFFFFFFFFFFFFFFFFFFFFFFFFFFFFFFF AND DUP2 MSTORE PUSH1 0x20 ADD SWAP1 DUP2 MSTORE PUSH1 0x20 ADD PUSH1 0x0 KECCAK256 PUSH1 0x0 PUSH2 0x100 EXP DUP2 SLOAD DUP2 PUSH1 0xFF MUL NOT AND SWAP1 DUP4 ISZERO ISZERO MUL OR SWAP1 SSTORE POP PUSH1 0x2 DUP2 SWAP1 DUP1 PUSH1 0x1 DUP2 SLOAD ADD DUP1 DUP3 SSTORE DUP1 SWAP2 POP POP PUSH1 0x1 SWAP1 SUB SWAP1 PUSH1 0x0 MSTORE PUSH1 0x20 PUSH1 0x0 KECCAK256 ADD PUSH1 0x0 SWAP1 SWAP2 SWAP1 SWAP2 SWAP1 SWAP2 PUSH2 0x100 EXP DUP2 SLOAD DUP2 PUSH20 0xFFFFFFFFFFFFFFFFFFFFFFFFFFFFFFFFFFFFFFFF MUL NOT AND SWAP1 DUP4 PUSH20 0xFFFFFFFFFFFFFFFFFFFFFFFFFFFFFFFFFFFFFFFF AND MUL OR SWAP1 SSTORE POP POP DUP1 DUP1 PUSH3 0x278 SWAP1 PUSH3 0x682 JUMP JUMPDEST SWAP2 POP POP PUSH3 0x81 JUMP JUMPDEST POP POP POP POP PUSH3 0x6CF JUMP JUMPDEST PUSH1 0x0 PUSH1 0x40 MLOAD SWAP1 POP SWAP1 JUMP JUMPDEST PUSH1 0x0 DUP1 REVERT JUMPDEST PUSH1 0x0 DUP1 REVERT JUMPDEST PUSH1 0x0 PUSH20 0xFFFFFFFFFFFFFFFFFFFFFFFFFFFFFFFFFFFFFFFF DUP3 AND SWAP1 POP SWAP2 SWAP1 POP JUMP JUMPDEST PUSH1 0x0 PUSH3 0x2CC DUP3 PUSH3 0x29F JUMP JUMPDEST SWAP1 POP SWAP2 SWAP1 POP JUMP JUMPDEST PUSH3 0x2DE DUP2 PUSH3 0x2BF JUMP JUMPDEST DUP2 EQ PUSH3 0x2EA JUMPI PUSH1 0x0 DUP1 REVERT JUMPDEST POP JUMP JUMPDEST PUSH1 0x0 DUP2 MLOAD SWAP1 POP PUSH3 0x2FE DUP2 PUSH3 0x2D3 JUMP JUMPDEST SWAP3 SWAP2 POP POP JUMP JUMPDEST PUSH1 0x0 DUP2 SWAP1 POP SWAP2 SWAP1 POP JUMP JUMPDEST PUSH3 0x319 DUP2 PUSH3 0x304 JUMP JUMPDEST DUP2 EQ PUSH3 0x325 JUMPI PUSH1 0x0 DUP1 REVERT JUMPDEST POP JUMP JUMPDEST PUSH1 0x0 DUP2 MLOAD SWAP1 POP PUSH3 0x339 DUP2 PUSH3 0x30E JUMP JUMPDEST SWAP3 SWAP2 POP POP JUMP JUMPDEST PUSH1 0x0 DUP1 REVERT JUMPDEST PUSH1 0x0 PUSH1 0x1F NOT PUSH1 0x1F DUP4 ADD AND SWAP1 POP SWAP2 SWAP1 POP JUMP JUMPDEST PUSH32 0x4E487B7100000000000000000000000000000000000000000000000000000000 PUSH1 0x0 MSTORE PUSH1 0x41 PUSH1 0x4 MSTORE PUSH1 0x24 PUSH1 0x0 REVERT JUMPDEST PUSH3 0x38F DUP3 PUSH3 0x344 JUMP JUMPDEST DUP2 ADD DUP2 DUP2 LT PUSH8 0xFFFFFFFFFFFFFFFF DUP3 GT OR ISZERO PUSH3 0x3B1 JUMPI PUSH3 0x3B0 PUSH3 0x355 JUMP JUMPDEST JUMPDEST DUP1 PUSH1 0x40 MSTORE POP POP POP JUMP JUMPDEST PUSH1 0x0 PUSH3 0x3C6 PUSH3 0x28B JUMP JUMPDEST SWAP1 POP PUSH3 0x3D4 DUP3 DUP3 PUSH3 0x384 JUMP JUMPDEST SWAP2 SWAP1 POP JUMP JUMPDEST PUSH1 0x0 PUSH8 0xFFFFFFFFFFFFFFFF DUP3 GT ISZERO PUSH3 0x3F7 JUMPI PUSH3 0x3F6 PUSH3 0x355 JUMP JUMPDEST JUMPDEST PUSH1 0x20 DUP3 MUL SWAP1 POP PUSH1 0x20 DUP2 ADD SWAP1 POP SWAP2 SWAP1 POP JUMP JUMPDEST PUSH1 0x0 DUP1 REVERT JUMPDEST PUSH1 0x0 PUSH3 0x424 PUSH3 0x41E DUP5 PUSH3 0x3D9 JUMP JUMPDEST PUSH3 0x3BA JUMP JUMPDEST SWAP1 POP DUP1 DUP4 DUP3 MSTORE PUSH1 0x20 DUP3 ADD SWAP1 POP PUSH1 0x20 DUP5 MUL DUP4 ADD DUP6 DUP2 GT ISZERO PUSH3 0x44A JUMPI PUSH3 0x449 PUSH3 0x408 JUMP JUMPDEST JUMPDEST DUP4 JUMPDEST DUP2 DUP2 LT ISZERO PUSH3 0x477 JUMPI DUP1 PUSH3 0x462 DUP9 DUP3 PUSH3 0x2ED JUMP JUMPDEST DUP5 MSTORE PUSH1 0x20 DUP5 ADD SWAP4 POP POP PUSH1 0x20 DUP2 ADD SWAP1 POP PUSH3 0x44C JUMP JUMPDEST POP POP POP SWAP4 SWAP3 POP POP POP JUMP JUMPDEST PUSH1 0x0 DUP3 PUSH1 0x1F DUP4 ADD SLT PUSH3 0x499 JUMPI PUSH3 0x498 PUSH3 0x33F JUMP JUMPDEST JUMPDEST DUP2 MLOAD PUSH3 0x4AB DUP5 DUP3 PUSH1 0x20 DUP7 ADD PUSH3 0x40D JUMP JUMPDEST SWAP2 POP POP SWAP3 SWAP2 POP POP JUMP JUMPDEST PUSH1 0x0 DUP1 PUSH1 0x0 PUSH1 0x60 DUP5 DUP7 SUB SLT ISZERO PUSH3 0x4D0 JUMPI PUSH3 0x4CF PUSH3 0x295 JUMP JUMPDEST JUMPDEST PUSH1 0x0 PUSH3 0x4E0 DUP7 DUP3 DUP8 ADD PUSH3 0x2ED JUMP JUMPDEST SWAP4 POP POP PUSH1 0x20 PUSH3 0x4F3 DUP7 DUP3 DUP8 ADD PUSH3 0x328 JUMP JUMPDEST SWAP3 POP POP PUSH1 0x40 DUP5 ADD MLOAD PUSH8 0xFFFFFFFFFFFFFFFF DUP2 GT ISZERO PUSH3 0x517 JUMPI PUSH3 0x516 PUSH3 0x29A JUMP JUMPDEST JUMPDEST PUSH3 0x525 DUP7 DUP3 DUP8 ADD PUSH3 0x481 JUMP JUMPDEST SWAP2 POP POP SWAP3 POP SWAP3 POP SWAP3 JUMP JUMPDEST PUSH32 0x4E487B7100000000000000000000000000000000000000000000000000000000 PUSH1 0x0 MSTORE PUSH1 0x32 PUSH1 0x4 MSTORE PUSH1 0x24 PUSH1 0x0 REVERT JUMPDEST PUSH1 0x0 DUP3 DUP3 MSTORE PUSH1 0x20 DUP3 ADD SWAP1 POP SWAP3 SWAP2 POP POP JUMP JUMPDEST PUSH32 0x696E76616C6964206F776E657200000000000000000000000000000000000000 PUSH1 0x0 DUP3 ADD MSTORE POP JUMP JUMPDEST PUSH1 0x0 PUSH3 0x5A7 PUSH1 0xD DUP4 PUSH3 0x55E JUMP JUMPDEST SWAP2 POP PUSH3 0x5B4 DUP3 PUSH3 0x56F JUMP JUMPDEST PUSH1 0x20 DUP3 ADD SWAP1 POP SWAP2 SWAP1 POP JUMP JUMPDEST PUSH1 0x0 PUSH1 0x20 DUP3 ADD SWAP1 POP DUP2 DUP2 SUB PUSH1 0x0 DUP4 ADD MSTORE PUSH3 0x5DA DUP2 PUSH3 0x598 JUMP JUMPDEST SWAP1 POP SWAP2 SWAP1 POP JUMP JUMPDEST PUSH32 0x6F776E6572206E6F7420756E6971756500000000000000000000000000000000 PUSH1 0x0 DUP3 ADD MSTORE POP JUMP JUMPDEST PUSH1 0x0 PUSH3 0x619 PUSH1 0x10 DUP4 PUSH3 0x55E JUMP JUMPDEST SWAP2 POP PUSH3 0x626 DUP3 PUSH3 0x5E1 JUMP JUMPDEST PUSH1 0x20 DUP3 ADD SWAP1 POP SWAP2 SWAP1 POP JUMP JUMPDEST PUSH1 0x0 PUSH1 0x20 DUP3 ADD SWAP1 POP DUP2 DUP2 SUB PUSH1 0x0 DUP4 ADD MSTORE PUSH3 0x64C DUP2 PUSH3 0x60A JUMP JUMPDEST SWAP1 POP SWAP2 SWAP1 POP JUMP JUMPDEST PUSH32 0x4E487B7100000000000000000000000000000000000000000000000000000000 PUSH1 0x0 MSTORE PUSH1 0x11 PUSH1 0x4 MSTORE PUSH1 0x24 PUSH1 0x0 REVERT JUMPDEST PUSH1 0x0 PUSH3 0x68F DUP3 PUSH3 0x304 JUMP JUMPDEST SWAP2 POP PUSH32 0xFFFFFFFFFFFFFFFFFFFFFFFFFFFFFFFFFFFFFFFFFFFFFFFFFFFFFFFFFFFFFFFF DUP3 SUB PUSH3 0x6C4 JUMPI PUSH3 0x6C3 PUSH3 0x653 JUMP JUMPDEST JUMPDEST PUSH1 0x1 DUP3 ADD SWAP1 POP SWAP2 SWAP1 POP JUMP JUMPDEST PUSH2 0x1153 DUP1 PUSH3 0x6DF PUSH1 0x0 CODECOPY PUSH1 0x0 RETURN INVALID PUSH1 0x80 PUSH1 0x40 MSTORE CALLVALUE DUP1 ISZERO PUSH2 0x10 JUMPI PUSH1 0x0 DUP1 REVERT JUMPDEST POP PUSH1 0x4 CALLDATASIZE LT PUSH2 0x93 JUMPI PUSH1 0x0 CALLDATALOAD PUSH1 0xE0 SHR DUP1 PUSH4 0x9ACE38C2 GT PUSH2 0x66 JUMPI DUP1 PUSH4 0x9ACE38C2 EQ PUSH2 0x144 JUMPI DUP1 PUSH4 0xC01A8C84 EQ PUSH2 0x177 JUMPI DUP1 PUSH4 0xD0549B85 EQ PUSH2 0x193 JUMPI DUP1 PUSH4 0xD4B83992 EQ PUSH2 0x1B1 JUMPI DUP1 PUSH4 0xEE22610B EQ PUSH2 0x1CF JUMPI PUSH2 0x93 JUMP JUMPDEST DUP1 PUSH4 0x25E7C27 EQ PUSH2 0x98 JUMPI DUP1 PUSH4 0x2F54BF6E EQ PUSH2 0xC8 JUMPI DUP1 PUSH4 0x6028F099 EQ PUSH2 0xF8 JUMPI DUP1 PUSH4 0x80F59A65 EQ PUSH2 0x114 JUMPI JUMPDEST PUSH1 0x0 DUP1 REVERT JUMPDEST PUSH2 0xB2 PUSH1 0x4 DUP1 CALLDATASIZE SUB DUP2 ADD SWAP1 PUSH2 0xAD SWAP2 SWAP1 PUSH2 0x9FD JUMP JUMPDEST PUSH2 0x1EB JUMP JUMPDEST PUSH1 0x40 MLOAD PUSH2 0xBF SWAP2 SWAP1 PUSH2 0xA6B JUMP JUMPDEST PUSH1 0x40 MLOAD DUP1 SWAP2 SUB SWAP1 RETURN JUMPDEST PUSH2 0xE2 PUSH1 0x4 DUP1 CALLDATASIZE SUB DUP2 ADD SWAP1 PUSH2 0xDD SWAP2 SWAP1 PUSH2 0xAB2 JUMP JUMPDEST PUSH2 0x22A JUMP JUMPDEST PUSH1 0x40 MLOAD PUSH2 0xEF SWAP2 SWAP1 PUSH2 0xAFA JUMP JUMPDEST PUSH1 0x40 MLOAD DUP1 SWAP2 SUB SWAP1 RETURN JUMPDEST PUSH2 0x112 PUSH1 0x4 DUP1 CALLDATASIZE SUB DUP2 ADD SWAP1 PUSH2 0x10D SWAP2 SWAP1 PUSH2 0xC5B JUMP JUMPDEST PUSH2 0x24A JUMP JUMPDEST STOP JUMPDEST PUSH2 0x12E PUSH1 0x4 DUP1 CALLDATASIZE SUB DUP2 ADD SWAP1 PUSH2 0x129 SWAP2 SWAP1 PUSH2 0xCB7 JUMP JUMPDEST PUSH2 0x340 JUMP JUMPDEST PUSH1 0x40 MLOAD PUSH2 0x13B SWAP2 SWAP1 PUSH2 0xAFA JUMP JUMPDEST PUSH1 0x40 MLOAD DUP1 SWAP2 SUB SWAP1 RETURN JUMPDEST PUSH2 0x15E PUSH1 0x4 DUP1 CALLDATASIZE SUB DUP2 ADD SWAP1 PUSH2 0x159 SWAP2 SWAP1 PUSH2 0x9FD JUMP JUMPDEST PUSH2 0x36F JUMP JUMPDEST PUSH1 0x40 MLOAD PUSH2 0x16E SWAP5 SWAP4 SWAP3 SWAP2 SWAP1 PUSH2 0xD8E JUMP JUMPDEST PUSH1 0x40 MLOAD DUP1 SWAP2 SUB SWAP1 RETURN JUMPDEST PUSH2 0x191 PUSH1 0x4 DUP1 CALLDATASIZE SUB DUP2 ADD SWAP1 PUSH2 0x18C SWAP2 SWAP1 PUSH2 0x9FD JUMP JUMPDEST PUSH2 0x444 JUMP JUMPDEST STOP JUMPDEST PUSH2 0x19B PUSH2 0x64C JUMP JUMPDEST PUSH1 0x40 MLOAD PUSH2 0x1A8 SWAP2 SWAP1 PUSH2 0xDDA JUMP JUMPDEST PUSH1 0x40 MLOAD DUP1 SWAP2 SUB SWAP1 RETURN JUMPDEST PUSH2 0x1B9 PUSH2 0x652 JUMP JUMPDEST PUSH1 0x40 MLOAD PUSH2 0x1C6 SWAP2 SWAP1 PUSH2 0xA6B JUMP JUMPDEST PUSH1 0x40 MLOAD DUP1 SWAP2 SUB SWAP1 RETURN JUMPDEST PUSH2 0x1E9 PUSH1 0x4 DUP1 CALLDATASIZE SUB DUP2 ADD SWAP1 PUSH2 0x1E4 SWAP2 SWAP1 PUSH2 0x9FD JUMP JUMPDEST PUSH2 0x676 JUMP JUMPDEST STOP JUMPDEST PUSH1 0x2 DUP2 DUP2 SLOAD DUP2 LT PUSH2 0x1FB JUMPI PUSH1 0x0 DUP1 REVERT JUMPDEST SWAP1 PUSH1 0x0 MSTORE PUSH1 0x20 PUSH1 0x0 KECCAK256 ADD PUSH1 0x0 SWAP2 POP SLOAD SWAP1 PUSH2 0x100 EXP SWAP1 DIV PUSH20 0xFFFFFFFFFFFFFFFFFFFFFFFFFFFFFFFFFFFFFFFF AND DUP2 JUMP JUMPDEST PUSH1 0x3 PUSH1 0x20 MSTORE DUP1 PUSH1 0x0 MSTORE PUSH1 0x40 PUSH1 0x0 KECCAK256 PUSH1 0x0 SWAP2 POP SLOAD SWAP1 PUSH2 0x100 EXP SWAP1 DIV PUSH1 0xFF AND DUP2 JUMP JUMPDEST PUSH1 0x0 PUSH1 0x1 DUP1 SLOAD SWAP1 POP SWAP1 POP PUSH1 0x1 PUSH1 0x40 MLOAD DUP1 PUSH1 0x80 ADD PUSH1 0x40 MSTORE DUP1 DUP6 DUP2 MSTORE PUSH1 0x20 ADD DUP5 DUP2 MSTORE PUSH1 0x20 ADD PUSH1 0x0 ISZERO ISZERO DUP2 MSTORE PUSH1 0x20 ADD PUSH1 0x0 DUP2 MSTORE POP SWAP1 DUP1 PUSH1 0x1 DUP2 SLOAD ADD DUP1 DUP3 SSTORE DUP1 SWAP2 POP POP PUSH1 0x1 SWAP1 SUB SWAP1 PUSH1 0x0 MSTORE PUSH1 0x20 PUSH1 0x0 KECCAK256 SWAP1 PUSH1 0x4 MUL ADD PUSH1 0x0 SWAP1 SWAP2 SWAP1 SWAP2 SWAP1 SWAP2 POP PUSH1 0x0 DUP3 ADD MLOAD DUP2 PUSH1 0x0 ADD SSTORE PUSH1 0x20 DUP3 ADD MLOAD DUP2 PUSH1 0x1 ADD SWAP1 DUP1 MLOAD SWAP1 PUSH1 0x20 ADD SWAP1 PUSH2 0x2CA SWAP3 SWAP2 SWAP1 PUSH2 0x910 JUMP JUMPDEST POP PUSH1 0x40 DUP3 ADD MLOAD DUP2 PUSH1 0x2 ADD PUSH1 0x0 PUSH2 0x100 EXP DUP2 SLOAD DUP2 PUSH1 0xFF MUL NOT AND SWAP1 DUP4 ISZERO ISZERO MUL OR SWAP1 SSTORE POP PUSH1 0x60 DUP3 ADD MLOAD DUP2 PUSH1 0x3 ADD SSTORE POP POP DUP1 CALLER PUSH20 0xFFFFFFFFFFFFFFFFFFFFFFFFFFFFFFFFFFFFFFFF AND PUSH32 0xC82555D64D2B8B25FFEFC140AE6575736763EE3A99347632D7F633E7BFAE3F78 PUSH1 0x40 MLOAD PUSH1 0x40 MLOAD DUP1 SWAP2 SUB SWAP1 LOG3 POP POP POP JUMP JUMPDEST PUSH1 0x4 PUSH1 0x20 MSTORE DUP2 PUSH1 0x0 MSTORE PUSH1 0x40 PUSH1 0x0 KECCAK256 PUSH1 0x20 MSTORE DUP1 PUSH1 0x0 MSTORE PUSH1 0x40 PUSH1 0x0 KECCAK256 PUSH1 0x0 SWAP2 POP SWAP2 POP SWAP1 SLOAD SWAP1 PUSH2 0x100 EXP SWAP1 DIV PUSH1 0xFF AND DUP2 JUMP JUMPDEST PUSH1 0x1 DUP2 DUP2 SLOAD DUP2 LT PUSH2 0x37F JUMPI PUSH1 0x0 DUP1 REVERT JUMPDEST SWAP1 PUSH1 0x0 MSTORE PUSH1 0x20 PUSH1 0x0 KECCAK256 SWAP1 PUSH1 0x4 MUL ADD PUSH1 0x0 SWAP2 POP SWAP1 POP DUP1 PUSH1 0x0 ADD SLOAD SWAP1 DUP1 PUSH1 0x1 ADD DUP1 SLOAD PUSH2 0x3A8 SWAP1 PUSH2 0xE24 JUMP JUMPDEST DUP1 PUSH1 0x1F ADD PUSH1 0x20 DUP1 SWAP2 DIV MUL PUSH1 0x20 ADD PUSH1 0x40 MLOAD SWAP1 DUP2 ADD PUSH1 0x40 MSTORE DUP1 SWAP3 SWAP2 SWAP1 DUP2 DUP2 MSTORE PUSH1 0x20 ADD DUP3 DUP1 SLOAD PUSH2 0x3D4 SWAP1 PUSH2 0xE24 JUMP JUMPDEST DUP1 ISZERO PUSH2 0x421 JUMPI DUP1 PUSH1 0x1F LT PUSH2 0x3F6 JUMPI PUSH2 0x100 DUP1 DUP4 SLOAD DIV MUL DUP4 MSTORE SWAP2 PUSH1 0x20 ADD SWAP2 PUSH2 0x421 JUMP JUMPDEST DUP3 ADD SWAP2 SWAP1 PUSH1 0x0 MSTORE PUSH1 0x20 PUSH1 0x0 KECCAK256 SWAP1 JUMPDEST DUP2 SLOAD DUP2 MSTORE SWAP1 PUSH1 0x1 ADD SWAP1 PUSH1 0x20 ADD DUP1 DUP4 GT PUSH2 0x404 JUMPI DUP3 SWAP1 SUB PUSH1 0x1F AND DUP3 ADD SWAP2 JUMPDEST POP POP POP POP POP SWAP1 DUP1 PUSH1 0x2 ADD PUSH1 0x0 SWAP1 SLOAD SWAP1 PUSH2 0x100 EXP SWAP1 DIV PUSH1 0xFF AND SWAP1 DUP1 PUSH1 0x3 ADD SLOAD SWAP1 POP DUP5 JUMP JUMPDEST DUP1 PUSH1 0x1 DUP2 DUP2 SLOAD DUP2 LT PUSH2 0x459 JUMPI PUSH2 0x458 PUSH2 0xE55 JUMP JUMPDEST JUMPDEST SWAP1 PUSH1 0x0 MSTORE PUSH1 0x20 PUSH1 0x0 KECCAK256 SWAP1 PUSH1 0x4 MUL ADD PUSH1 0x2 ADD PUSH1 0x0 SWAP1 SLOAD SWAP1 PUSH2 0x100 EXP SWAP1 DIV PUSH1 0xFF AND ISZERO PUSH2 0x4B8 JUMPI PUSH1 0x40 MLOAD PUSH32 0x8C379A000000000000000000000000000000000000000000000000000000000 DUP2 MSTORE PUSH1 0x4 ADD PUSH2 0x4AF SWAP1 PUSH2 0xEE1 JUMP JUMPDEST PUSH1 0x40 MLOAD DUP1 SWAP2 SUB SWAP1 REVERT JUMPDEST DUP2 PUSH1 0x4 PUSH1 0x0 DUP3 DUP2 MSTORE PUSH1 0x20 ADD SWAP1 DUP2 MSTORE PUSH1 0x20 ADD PUSH1 0x0 KECCAK256 PUSH1 0x0 CALLER PUSH20 0xFFFFFFFFFFFFFFFFFFFFFFFFFFFFFFFFFFFFFFFF AND PUSH20 0xFFFFFFFFFFFFFFFFFFFFFFFFFFFFFFFFFFFFFFFF AND DUP2 MSTORE PUSH1 0x20 ADD SWAP1 DUP2 MSTORE PUSH1 0x20 ADD PUSH1 0x0 KECCAK256 PUSH1 0x0 SWAP1 SLOAD SWAP1 PUSH2 0x100 EXP SWAP1 DIV PUSH1 0xFF AND ISZERO PUSH2 0x557 JUMPI PUSH1 0x40 MLOAD PUSH32 0x8C379A000000000000000000000000000000000000000000000000000000000 DUP2 MSTORE PUSH1 0x4 ADD PUSH2 0x54E SWAP1 PUSH2 0xF4D JUMP JUMPDEST PUSH1 0x40 MLOAD DUP1 SWAP2 SUB SWAP1 REVERT JUMPDEST PUSH1 0x0 PUSH1 0x1 DUP5 DUP2 SLOAD DUP2 LT PUSH2 0x56D JUMPI PUSH2 0x56C PUSH2 0xE55 JUMP JUMPDEST JUMPDEST SWAP1 PUSH1 0x0 MSTORE PUSH1 0x20 PUSH1 0x0 KECCAK256 SWAP1 PUSH1 0x4 MUL ADD SWAP1 POP PUSH1 0x1 DUP2 PUSH1 0x3 ADD PUSH1 0x0 DUP3 DUP3 SLOAD PUSH2 0x592 SWAP2 SWAP1 PUSH2 0xF9C JUMP JUMPDEST SWAP3 POP POP DUP2 SWAP1 SSTORE POP PUSH1 0x1 PUSH1 0x4 PUSH1 0x0 DUP7 DUP2 MSTORE PUSH1 0x20 ADD SWAP1 DUP2 MSTORE PUSH1 0x20 ADD PUSH1 0x0 KECCAK256 PUSH1 0x0 CALLER PUSH20 0xFFFFFFFFFFFFFFFFFFFFFFFFFFFFFFFFFFFFFFFF AND PUSH20 0xFFFFFFFFFFFFFFFFFFFFFFFFFFFFFFFFFFFFFFFF AND DUP2 MSTORE PUSH1 0x20 ADD SWAP1 DUP2 MSTORE PUSH1 0x20 ADD PUSH1 0x0 KECCAK256 PUSH1 0x0 PUSH2 0x100 EXP DUP2 SLOAD DUP2 PUSH1 0xFF MUL NOT AND SWAP1 DUP4 ISZERO ISZERO MUL OR SWAP1 SSTORE POP DUP4 CALLER PUSH20 0xFFFFFFFFFFFFFFFFFFFFFFFFFFFFFFFFFFFFFFFF AND PUSH32 0x5CBE105E36805F7820E291F799D5794FF948AF2A5F664E580382DEFB63390041 PUSH1 0x40 MLOAD PUSH1 0x40 MLOAD DUP1 SWAP2 SUB SWAP1 LOG3 POP POP POP POP JUMP JUMPDEST PUSH1 0x5 SLOAD DUP2 JUMP JUMPDEST PUSH1 0x0 DUP1 SLOAD SWAP1 PUSH2 0x100 EXP SWAP1 DIV PUSH20 0xFFFFFFFFFFFFFFFFFFFFFFFFFFFFFFFFFFFFFFFF AND DUP2 JUMP JUMPDEST DUP1 PUSH1 0x1 DUP2 DUP2 SLOAD DUP2 LT PUSH2 0x68B JUMPI PUSH2 0x68A PUSH2 0xE55 JUMP JUMPDEST JUMPDEST SWAP1 PUSH1 0x0 MSTORE PUSH1 0x20 PUSH1 0x0 KECCAK256 SWAP1 PUSH1 0x4 MUL ADD PUSH1 0x2 ADD PUSH1 0x0 SWAP1 SLOAD SWAP1 PUSH2 0x100 EXP SWAP1 DIV PUSH1 0xFF AND ISZERO PUSH2 0x6EA JUMPI PUSH1 0x40 MLOAD PUSH32 0x8C379A000000000000000000000000000000000000000000000000000000000 DUP2 MSTORE PUSH1 0x4 ADD PUSH2 0x6E1 SWAP1 PUSH2 0xEE1 JUMP JUMPDEST PUSH1 0x40 MLOAD DUP1 SWAP2 SUB SWAP1 REVERT JUMPDEST PUSH1 0x0 PUSH1 0x1 DUP4 DUP2 SLOAD DUP2 LT PUSH2 0x700 JUMPI PUSH2 0x6FF PUSH2 0xE55 JUMP JUMPDEST JUMPDEST SWAP1 PUSH1 0x0 MSTORE PUSH1 0x20 PUSH1 0x0 KECCAK256 SWAP1 PUSH1 0x4 MUL ADD SWAP1 POP PUSH1 0x5 SLOAD DUP2 PUSH1 0x3 ADD SLOAD LT ISZERO PUSH2 0x759 JUMPI PUSH1 0x40 MLOAD PUSH32 0x8C379A000000000000000000000000000000000000000000000000000000000 DUP2 MSTORE PUSH1 0x4 ADD PUSH2 0x750 SWAP1 PUSH2 0x103E JUMP JUMPDEST PUSH1 0x40 MLOAD DUP1 SWAP2 SUB SWAP1 REVERT JUMPDEST PUSH1 0x1 DUP2 PUSH1 0x2 ADD PUSH1 0x0 PUSH2 0x100 EXP DUP2 SLOAD DUP2 PUSH1 0xFF MUL NOT AND SWAP1 DUP4 ISZERO ISZERO MUL OR SWAP1 SSTORE POP PUSH1 0x0 DUP1 PUSH1 0x0 SWAP1 SLOAD SWAP1 PUSH2 0x100 EXP SWAP1 DIV PUSH20 0xFFFFFFFFFFFFFFFFFFFFFFFFFFFFFFFFFFFFFFFF AND PUSH20 0xFFFFFFFFFFFFFFFFFFFFFFFFFFFFFFFFFFFFFFFF AND PUSH1 0x40 MLOAD PUSH1 0x24 ADD PUSH1 0x40 MLOAD PUSH1 0x20 DUP2 DUP4 SUB SUB DUP2 MSTORE SWAP1 PUSH1 0x40 MSTORE PUSH32 0x3CCFD60B00000000000000000000000000000000000000000000000000000000 PUSH28 0xFFFFFFFFFFFFFFFFFFFFFFFFFFFFFFFFFFFFFFFFFFFFFFFFFFFFFFFF NOT AND PUSH1 0x20 DUP3 ADD DUP1 MLOAD PUSH28 0xFFFFFFFFFFFFFFFFFFFFFFFFFFFFFFFFFFFFFFFFFFFFFFFFFFFFFFFF DUP4 DUP2 DUP4 AND OR DUP4 MSTORE POP POP POP POP PUSH1 0x40 MLOAD PUSH2 0x840 SWAP2 SWAP1 PUSH2 0x109A JUMP JUMPDEST PUSH1 0x0 PUSH1 0x40 MLOAD DUP1 DUP4 SUB DUP2 PUSH1 0x0 DUP7 GAS CALL SWAP2 POP POP RETURNDATASIZE DUP1 PUSH1 0x0 DUP2 EQ PUSH2 0x87D JUMPI PUSH1 0x40 MLOAD SWAP2 POP PUSH1 0x1F NOT PUSH1 0x3F RETURNDATASIZE ADD AND DUP3 ADD PUSH1 0x40 MSTORE RETURNDATASIZE DUP3 MSTORE RETURNDATASIZE PUSH1 0x0 PUSH1 0x20 DUP5 ADD RETURNDATACOPY PUSH2 0x882 JUMP JUMPDEST PUSH1 0x60 SWAP2 POP JUMPDEST POP POP SWAP1 POP DUP1 PUSH2 0x8C6 JUMPI PUSH1 0x40 MLOAD PUSH32 0x8C379A000000000000000000000000000000000000000000000000000000000 DUP2 MSTORE PUSH1 0x4 ADD PUSH2 0x8BD SWAP1 PUSH2 0x10FD JUMP JUMPDEST PUSH1 0x40 MLOAD DUP1 SWAP2 SUB SWAP1 REVERT JUMPDEST DUP4 CALLER PUSH20 0xFFFFFFFFFFFFFFFFFFFFFFFFFFFFFFFFFFFFFFFF AND PUSH32 0x5445F318F4F5FCFB66592E68E0CC5822AA15664039BD5F0FFDE24C5A8142B1AC PUSH1 0x40 MLOAD PUSH1 0x40 MLOAD DUP1 SWAP2 SUB SWAP1 LOG3 POP POP POP POP JUMP JUMPDEST DUP3 DUP1 SLOAD PUSH2 0x91C SWAP1 PUSH2 0xE24 JUMP JUMPDEST SWAP1 PUSH1 0x0 MSTORE PUSH1 0x20 PUSH1 0x0 KECCAK256 SWAP1 PUSH1 0x1F ADD PUSH1 0x20 SWAP1 DIV DUP2 ADD SWAP3 DUP3 PUSH2 0x93E JUMPI PUSH1 0x0 DUP6 SSTORE PUSH2 0x985 JUMP JUMPDEST DUP3 PUSH1 0x1F LT PUSH2 0x957 JUMPI DUP1 MLOAD PUSH1 0xFF NOT AND DUP4 DUP1 ADD OR DUP6 SSTORE PUSH2 0x985 JUMP JUMPDEST DUP3 DUP1 ADD PUSH1 0x1 ADD DUP6 SSTORE DUP3 ISZERO PUSH2 0x985 JUMPI SWAP2 DUP3 ADD JUMPDEST DUP3 DUP2 GT ISZERO PUSH2 0x984 JUMPI DUP3 MLOAD DUP3 SSTORE SWAP2 PUSH1 0x20 ADD SWAP2 SWAP1 PUSH1 0x1 ADD SWAP1 PUSH2 0x969 JUMP JUMPDEST JUMPDEST POP SWAP1 POP PUSH2 0x992 SWAP2 SWAP1 PUSH2 0x996 JUMP JUMPDEST POP SWAP1 JUMP JUMPDEST JUMPDEST DUP1 DUP3 GT ISZERO PUSH2 0x9AF JUMPI PUSH1 0x0 DUP2 PUSH1 0x0 SWAP1 SSTORE POP PUSH1 0x1 ADD PUSH2 0x997 JUMP JUMPDEST POP SWAP1 JUMP JUMPDEST PUSH1 0x0 PUSH1 0x40 MLOAD SWAP1 POP SWAP1 JUMP JUMPDEST PUSH1 0x0 DUP1 REVERT JUMPDEST PUSH1 0x0 DUP1 REVERT JUMPDEST PUSH1 0x0 DUP2 SWAP1 POP SWAP2 SWAP1 POP JUMP JUMPDEST PUSH2 0x9DA DUP2 PUSH2 0x9C7 JUMP JUMPDEST DUP2 EQ PUSH2 0x9E5 JUMPI PUSH1 0x0 DUP1 REVERT JUMPDEST POP JUMP JUMPDEST PUSH1 0x0 DUP2 CALLDATALOAD SWAP1 POP PUSH2 0x9F7 DUP2 PUSH2 0x9D1 JUMP JUMPDEST SWAP3 SWAP2 POP POP JUMP JUMPDEST PUSH1 0x0 PUSH1 0x20 DUP3 DUP5 SUB SLT ISZERO PUSH2 0xA13 JUMPI PUSH2 0xA12 PUSH2 0x9BD JUMP JUMPDEST JUMPDEST PUSH1 0x0 PUSH2 0xA21 DUP5 DUP3 DUP6 ADD PUSH2 0x9E8 JUMP JUMPDEST SWAP2 POP POP SWAP3 SWAP2 POP POP JUMP JUMPDEST PUSH1 0x0 PUSH20 0xFFFFFFFFFFFFFFFFFFFFFFFFFFFFFFFFFFFFFFFF DUP3 AND SWAP1 POP SWAP2 SWAP1 POP JUMP JUMPDEST PUSH1 0x0 PUSH2 0xA55 DUP3 PUSH2 0xA2A JUMP JUMPDEST SWAP1 POP SWAP2 SWAP1 POP JUMP JUMPDEST PUSH2 0xA65 DUP2 PUSH2 0xA4A JUMP JUMPDEST DUP3 MSTORE POP POP JUMP JUMPDEST PUSH1 0x0 PUSH1 0x20 DUP3 ADD SWAP1 POP PUSH2 0xA80 PUSH1 0x0 DUP4 ADD DUP5 PUSH2 0xA5C JUMP JUMPDEST SWAP3 SWAP2 POP POP JUMP JUMPDEST PUSH2 0xA8F DUP2 PUSH2 0xA4A JUMP JUMPDEST DUP2 EQ PUSH2 0xA9A JUMPI PUSH1 0x0 DUP1 REVERT JUMPDEST POP JUMP JUMPDEST PUSH1 0x0 DUP2 CALLDATALOAD SWAP1 POP PUSH2 0xAAC DUP2 PUSH2 0xA86 JUMP JUMPDEST SWAP3 SWAP2 POP POP JUMP JUMPDEST PUSH1 0x0 PUSH1 0x20 DUP3 DUP5 SUB SLT ISZERO PUSH2 0xAC8 JUMPI PUSH2 0xAC7 PUSH2 0x9BD JUMP JUMPDEST JUMPDEST PUSH1 0x0 PUSH2 0xAD6 DUP5 DUP3 DUP6 ADD PUSH2 0xA9D JUMP JUMPDEST SWAP2 POP POP SWAP3 SWAP2 POP POP JUMP JUMPDEST PUSH1 0x0 DUP2 ISZERO ISZERO SWAP1 POP SWAP2 SWAP1 POP JUMP JUMPDEST PUSH2 0xAF4 DUP2 PUSH2 0xADF JUMP JUMPDEST DUP3 MSTORE POP POP JUMP JUMPDEST PUSH1 0x0 PUSH1 0x20 DUP3 ADD SWAP1 POP PUSH2 0xB0F PUSH1 0x0 DUP4 ADD DUP5 PUSH2 0xAEB JUMP JUMPDEST SWAP3 SWAP2 POP POP JUMP JUMPDEST PUSH1 0x0 DUP1 REVERT JUMPDEST PUSH1 0x0 DUP1 REVERT JUMPDEST PUSH1 0x0 PUSH1 0x1F NOT PUSH1 0x1F DUP4 ADD AND SWAP1 POP SWAP2 SWAP1 POP JUMP JUMPDEST PUSH32 0x4E487B7100000000000000000000000000000000000000000000000000000000 PUSH1 0x0 MSTORE PUSH1 0x41 PUSH1 0x4 MSTORE PUSH1 0x24 PUSH1 0x0 REVERT JUMPDEST PUSH2 0xB68 DUP3 PUSH2 0xB1F JUMP JUMPDEST DUP2 ADD DUP2 DUP2 LT PUSH8 0xFFFFFFFFFFFFFFFF DUP3 GT OR ISZERO PUSH2 0xB87 JUMPI PUSH2 0xB86 PUSH2 0xB30 JUMP JUMPDEST JUMPDEST DUP1 PUSH1 0x40 MSTORE POP POP POP JUMP JUMPDEST PUSH1 0x0 PUSH2 0xB9A PUSH2 0x9B3 JUMP JUMPDEST SWAP1 POP PUSH2 0xBA6 DUP3 DUP3 PUSH2 0xB5F JUMP JUMPDEST SWAP2 SWAP1 POP JUMP JUMPDEST PUSH1 0x0 PUSH8 0xFFFFFFFFFFFFFFFF DUP3 GT ISZERO PUSH2 0xBC6 JUMPI PUSH2 0xBC5 PUSH2 0xB30 JUMP JUMPDEST JUMPDEST PUSH2 0xBCF DUP3 PUSH2 0xB1F JUMP JUMPDEST SWAP1 POP PUSH1 0x20 DUP2 ADD SWAP1 POP SWAP2 SWAP1 POP JUMP JUMPDEST DUP3 DUP2 DUP4 CALLDATACOPY PUSH1 0x0 DUP4 DUP4 ADD MSTORE POP POP POP JUMP JUMPDEST PUSH1 0x0 PUSH2 0xBFE PUSH2 0xBF9 DUP5 PUSH2 0xBAB JUMP JUMPDEST PUSH2 0xB90 JUMP JUMPDEST SWAP1 POP DUP3 DUP2 MSTORE PUSH1 0x20 DUP2 ADD DUP5 DUP5 DUP5 ADD GT ISZERO PUSH2 0xC1A JUMPI PUSH2 0xC19 PUSH2 0xB1A JUMP JUMPDEST JUMPDEST PUSH2 0xC25 DUP5 DUP3 DUP6 PUSH2 0xBDC JUMP JUMPDEST POP SWAP4 SWAP3 POP POP POP JUMP JUMPDEST PUSH1 0x0 DUP3 PUSH1 0x1F DUP4 ADD SLT PUSH2 0xC42 JUMPI PUSH2 0xC41 PUSH2 0xB15 JUMP JUMPDEST JUMPDEST DUP2 CALLDATALOAD PUSH2 0xC52 DUP5 DUP3 PUSH1 0x20 DUP7 ADD PUSH2 0xBEB JUMP JUMPDEST SWAP2 POP POP SWAP3 SWAP2 POP POP JUMP JUMPDEST PUSH1 0x0 DUP1 PUSH1 0x40 DUP4 DUP6 SUB SLT ISZERO PUSH2 0xC72 JUMPI PUSH2 0xC71 PUSH2 0x9BD JUMP JUMPDEST JUMPDEST PUSH1 0x0 PUSH2 0xC80 DUP6 DUP3 DUP7 ADD PUSH2 0x9E8 JUMP JUMPDEST SWAP3 POP POP PUSH1 0x20 DUP4 ADD CALLDATALOAD PUSH8 0xFFFFFFFFFFFFFFFF DUP2 GT ISZERO PUSH2 0xCA1 JUMPI PUSH2 0xCA0 PUSH2 0x9C2 JUMP JUMPDEST JUMPDEST PUSH2 0xCAD DUP6 DUP3 DUP7 ADD PUSH2 0xC2D JUMP JUMPDEST SWAP2 POP POP SWAP3 POP SWAP3 SWAP1 POP JUMP JUMPDEST PUSH1 0x0 DUP1 PUSH1 0x40 DUP4 DUP6 SUB SLT ISZERO PUSH2 0xCCE JUMPI PUSH2 0xCCD PUSH2 0x9BD JUMP JUMPDEST JUMPDEST PUSH1 0x0 PUSH2 0xCDC DUP6 DUP3 DUP7 ADD PUSH2 0x9E8 JUMP JUMPDEST SWAP3 POP POP PUSH1 0x20 PUSH2 0xCED DUP6 DUP3 DUP7 ADD PUSH2 0xA9D JUMP JUMPDEST SWAP2 POP POP SWAP3 POP SWAP3 SWAP1 POP JUMP JUMPDEST PUSH2 0xD00 DUP2 PUSH2 0x9C7 JUMP JUMPDEST DUP3 MSTORE POP POP JUMP JUMPDEST PUSH1 0x0 DUP2 MLOAD SWAP1 POP SWAP2 SWAP1 POP JUMP JUMPDEST PUSH1 0x0 DUP3 DUP3 MSTORE PUSH1 0x20 DUP3 ADD SWAP1 POP SWAP3 SWAP2 POP POP JUMP JUMPDEST PUSH1 0x0 JUMPDEST DUP4 DUP2 LT ISZERO PUSH2 0xD40 JUMPI DUP1 DUP3 ADD MLOAD DUP2 DUP5 ADD MSTORE PUSH1 0x20 DUP2 ADD SWAP1 POP PUSH2 0xD25 JUMP JUMPDEST DUP4 DUP2 GT ISZERO PUSH2 0xD4F JUMPI PUSH1 0x0 DUP5 DUP5 ADD MSTORE JUMPDEST POP POP POP POP JUMP JUMPDEST PUSH1 0x0 PUSH2 0xD60 DUP3 PUSH2 0xD06 JUMP JUMPDEST PUSH2 0xD6A DUP2 DUP6 PUSH2 0xD11 JUMP JUMPDEST SWAP4 POP PUSH2 0xD7A DUP2 DUP6 PUSH1 0x20 DUP7 ADD PUSH2 0xD22 JUMP JUMPDEST PUSH2 0xD83 DUP2 PUSH2 0xB1F JUMP JUMPDEST DUP5 ADD SWAP2 POP POP SWAP3 SWAP2 POP POP JUMP JUMPDEST PUSH1 0x0 PUSH1 0x80 DUP3 ADD SWAP1 POP PUSH2 0xDA3 PUSH1 0x0 DUP4 ADD DUP8 PUSH2 0xCF7 JUMP JUMPDEST DUP2 DUP2 SUB PUSH1 0x20 DUP4 ADD MSTORE PUSH2 0xDB5 DUP2 DUP7 PUSH2 0xD55 JUMP JUMPDEST SWAP1 POP PUSH2 0xDC4 PUSH1 0x40 DUP4 ADD DUP6 PUSH2 0xAEB JUMP JUMPDEST PUSH2 0xDD1 PUSH1 0x60 DUP4 ADD DUP5 PUSH2 0xCF7 JUMP JUMPDEST SWAP6 SWAP5 POP POP POP POP POP JUMP JUMPDEST PUSH1 0x0 PUSH1 0x20 DUP3 ADD SWAP1 POP PUSH2 0xDEF PUSH1 0x0 DUP4 ADD DUP5 PUSH2 0xCF7 JUMP JUMPDEST SWAP3 SWAP2 POP POP JUMP JUMPDEST PUSH32 0x4E487B7100000000000000000000000000000000000000000000000000000000 PUSH1 0x0 MSTORE PUSH1 0x22 PUSH1 0x4 MSTORE PUSH1 0x24 PUSH1 0x0 REVERT JUMPDEST PUSH1 0x0 PUSH1 0x2 DUP3 DIV SWAP1 POP PUSH1 0x1 DUP3 AND DUP1 PUSH2 0xE3C JUMPI PUSH1 0x7F DUP3 AND SWAP2 POP JUMPDEST PUSH1 0x20 DUP3 LT DUP2 SUB PUSH2 0xE4F JUMPI PUSH2 0xE4E PUSH2 0xDF5 JUMP JUMPDEST JUMPDEST POP SWAP2 SWAP1 POP JUMP JUMPDEST PUSH32 0x4E487B7100000000000000000000000000000000000000000000000000000000 PUSH1 0x0 MSTORE PUSH1 0x32 PUSH1 0x4 MSTORE PUSH1 0x24 PUSH1 0x0 REVERT JUMPDEST PUSH1 0x0 DUP3 DUP3 MSTORE PUSH1 0x20 DUP3 ADD SWAP1 POP SWAP3 SWAP2 POP POP JUMP JUMPDEST PUSH32 0x747820616C726561647920657865637574656400000000000000000000000000 PUSH1 0x0 DUP3 ADD MSTORE POP JUMP JUMPDEST PUSH1 0x0 PUSH2 0xECB PUSH1 0x13 DUP4 PUSH2 0xE84 JUMP JUMPDEST SWAP2 POP PUSH2 0xED6 DUP3 PUSH2 0xE95 JUMP JUMPDEST PUSH1 0x20 DUP3 ADD SWAP1 POP SWAP2 SWAP1 POP JUMP JUMPDEST PUSH1 0x0 PUSH1 0x20 DUP3 ADD SWAP1 POP DUP2 DUP2 SUB PUSH1 0x0 DUP4 ADD MSTORE PUSH2 0xEFA DUP2 PUSH2 0xEBE JUMP JUMPDEST SWAP1 POP SWAP2 SWAP1 POP JUMP JUMPDEST PUSH32 0x747820616C726561647920636F6E6669726D6564000000000000000000000000 PUSH1 0x0 DUP3 ADD MSTORE POP JUMP JUMPDEST PUSH1 0x0 PUSH2 0xF37 PUSH1 0x14 DUP4 PUSH2 0xE84 JUMP JUMPDEST SWAP2 POP PUSH2 0xF42 DUP3 PUSH2 0xF01 JUMP JUMPDEST PUSH1 0x20 DUP3 ADD SWAP1 POP SWAP2 SWAP1 POP JUMP JUMPDEST PUSH1 0x0 PUSH1 0x20 DUP3 ADD SWAP1 POP DUP2 DUP2 SUB PUSH1 0x0 DUP4 ADD MSTORE PUSH2 0xF66 DUP2 PUSH2 0xF2A JUMP JUMPDEST SWAP1 POP SWAP2 SWAP1 POP JUMP JUMPDEST PUSH32 0x4E487B7100000000000000000000000000000000000000000000000000000000 PUSH1 0x0 MSTORE PUSH1 0x11 PUSH1 0x4 MSTORE PUSH1 0x24 PUSH1 0x0 REVERT JUMPDEST PUSH1 0x0 PUSH2 0xFA7 DUP3 PUSH2 0x9C7 JUMP JUMPDEST SWAP2 POP PUSH2 0xFB2 DUP4 PUSH2 0x9C7 JUMP JUMPDEST SWAP3 POP DUP3 PUSH32 0xFFFFFFFFFFFFFFFFFFFFFFFFFFFFFFFFFFFFFFFFFFFFFFFFFFFFFFFFFFFFFFFF SUB DUP3 GT ISZERO PUSH2 0xFE7 JUMPI PUSH2 0xFE6 PUSH2 0xF6D JUMP JUMPDEST JUMPDEST DUP3 DUP3 ADD SWAP1 POP SWAP3 SWAP2 POP POP JUMP JUMPDEST PUSH32 0x63616E6E6F742065786563757465207478000000000000000000000000000000 PUSH1 0x0 DUP3 ADD MSTORE POP JUMP JUMPDEST PUSH1 0x0 PUSH2 0x1028 PUSH1 0x11 DUP4 PUSH2 0xE84 JUMP JUMPDEST SWAP2 POP PUSH2 0x1033 DUP3 PUSH2 0xFF2 JUMP JUMPDEST PUSH1 0x20 DUP3 ADD SWAP1 POP SWAP2 SWAP1 POP JUMP JUMPDEST PUSH1 0x0 PUSH1 0x20 DUP3 ADD SWAP1 POP DUP2 DUP2 SUB PUSH1 0x0 DUP4 ADD MSTORE PUSH2 0x1057 DUP2 PUSH2 0x101B JUMP JUMPDEST SWAP1 POP SWAP2 SWAP1 POP JUMP JUMPDEST PUSH1 0x0 DUP2 SWAP1 POP SWAP3 SWAP2 POP POP JUMP JUMPDEST PUSH1 0x0 PUSH2 0x1074 DUP3 PUSH2 0xD06 JUMP JUMPDEST PUSH2 0x107E DUP2 DUP6 PUSH2 0x105E JUMP JUMPDEST SWAP4 POP PUSH2 0x108E DUP2 DUP6 PUSH1 0x20 DUP7 ADD PUSH2 0xD22 JUMP JUMPDEST DUP1 DUP5 ADD SWAP2 POP POP SWAP3 SWAP2 POP POP JUMP JUMPDEST PUSH1 0x0 PUSH2 0x10A6 DUP3 DUP5 PUSH2 0x1069 JUMP JUMPDEST SWAP2 POP DUP2 SWAP1 POP SWAP3 SWAP2 POP POP JUMP JUMPDEST PUSH32 0x7478206661696C65640000000000000000000000000000000000000000000000 PUSH1 0x0 DUP3 ADD MSTORE POP JUMP JUMPDEST PUSH1 0x0 PUSH2 0x10E7 PUSH1 0x9 DUP4 PUSH2 0xE84 JUMP JUMPDEST SWAP2 POP PUSH2 0x10F2 DUP3 PUSH2 0x10B1 JUMP JUMPDEST PUSH1 0x20 DUP3 ADD SWAP1 POP SWAP2 SWAP1 POP JUMP JUMPDEST PUSH1 0x0 PUSH1 0x20 DUP3 ADD SWAP1 POP DUP2 DUP2 SUB PUSH1 0x0 DUP4 ADD MSTORE PUSH2 0x1116 DUP2 PUSH2 0x10DA JUMP JUMPDEST SWAP1 POP SWAP2 SWAP1 POP JUMP INVALID LOG2 PUSH5 0x6970667358 0x22 SLT KECCAK256 0xD8 0x26 XOR MULMOD DUP7 SAR EXTCODESIZE 0xD1 0xE0 CALL PUSH22 0x1251BFE004E37D1970386773D823D9FDFDC32D813964 PUSH20 0x6F6C634300080D00330000000000000000000000 "
				},
				"gasEstimates": {
					"creation": {
						"codeDepositCost": "887000",
						"executionCost": "infinite",
						"totalCost": "infinite"
					},
					"external": {
						"confirmTransaction(uint256)": "infinite",
						"executeTransaction(uint256)": "infinite",
						"isConfirmed(uint256,address)": "3154",
						"isOwner(address)": "2868",
						"numConfirmationsRequired()": "2473",
						"owners(uint256)": "4957",
						"submitTransaction(uint256,bytes)": "infinite",
						"target()": "2577",
						"transactions(uint256)": "infinite"
					}
				},
				"methodIdentifiers": {
					"confirmTransaction(uint256)": "c01a8c84",
					"executeTransaction(uint256)": "ee22610b",
					"isConfirmed(uint256,address)": "80f59a65",
					"isOwner(address)": "2f54bf6e",
					"numConfirmationsRequired()": "d0549b85",
					"owners(uint256)": "025e7c27",
					"submitTransaction(uint256,bytes)": "6028f099",
					"target()": "d4b83992",
					"transactions(uint256)": "9ace38c2"
				}
			},
			"userdoc": {
				"kind": "user",
				"methods": {},
				"version": 1
			}
		}
	}
}